{
  "contractName": "DecentralRent",
  "abi": [
    {
      "inputs": [
        {
          "internalType": "uint256",
          "name": "fee",
          "type": "uint256"
        },
        {
          "internalType": "address",
          "name": "supportAddress",
          "type": "address"
        }
      ],
      "payable": false,
      "stateMutability": "nonpayable",
      "type": "constructor"
    },
    {
      "anonymous": false,
      "inputs": [
        {
          "indexed": false,
          "internalType": "address",
          "name": "carOwner",
          "type": "address"
        }
      ],
      "name": "CarOwnerRegistered",
      "type": "event"
    },
    {
      "anonymous": false,
      "inputs": [
        {
          "indexed": false,
          "internalType": "address",
          "name": "renter_address",
          "type": "address"
        },
        {
          "indexed": false,
          "internalType": "uint256",
          "name": "carId",
          "type": "uint256"
        }
      ],
      "name": "CarReceived",
      "type": "event"
    },
    {
      "anonymous": false,
      "inputs": [
        {
          "indexed": false,
          "internalType": "uint256",
          "name": "carId",
          "type": "uint256"
        }
      ],
      "name": "CarReturned",
      "type": "event"
    },
    {
      "anonymous": false,
      "inputs": [
        {
          "indexed": false,
          "internalType": "uint256",
          "name": "carId",
          "type": "uint256"
        }
      ],
      "name": "CarUnlisted",
      "type": "event"
    },
    {
      "anonymous": false,
      "inputs": [
        {
          "indexed": false,
          "internalType": "uint256",
          "name": "issueId",
          "type": "uint256"
        }
      ],
      "name": "IssueReopened",
      "type": "event"
    },
    {
      "anonymous": false,
      "inputs": [
        {
          "indexed": false,
          "internalType": "address",
          "name": "reporter",
          "type": "address"
        },
        {
          "indexed": false,
          "internalType": "uint256",
          "name": "rentId",
          "type": "uint256"
        }
      ],
      "name": "IssueReported",
      "type": "event"
    },
    {
      "anonymous": false,
      "inputs": [
        {
          "indexed": false,
          "internalType": "uint256",
          "name": "issueId",
          "type": "uint256"
        }
      ],
      "name": "IssueResolved",
      "type": "event"
    },
    {
      "anonymous": false,
      "inputs": [
        {
          "indexed": false,
          "internalType": "address",
          "name": "owner",
          "type": "address"
        }
      ],
      "name": "Notify_owner",
      "type": "event"
    },
    {
      "anonymous": false,
      "inputs": [
        {
          "indexed": false,
          "internalType": "address",
          "name": "renter",
          "type": "address"
        }
      ],
      "name": "Notify_renter",
      "type": "event"
    },
    {
      "anonymous": false,
      "inputs": [
        {
          "indexed": false,
          "internalType": "uint256",
          "name": "rentId",
          "type": "uint256"
        }
      ],
      "name": "OfferRecalled",
      "type": "event"
    },
    {
      "anonymous": false,
      "inputs": [
        {
          "indexed": false,
          "internalType": "uint256",
          "name": "rentId",
          "type": "uint256"
        }
      ],
      "name": "RentRequestUpdated",
      "type": "event"
    },
    {
      "anonymous": false,
      "inputs": [
        {
          "indexed": false,
          "internalType": "uint256",
          "name": "renterId",
          "type": "uint256"
        },
        {
          "indexed": false,
          "internalType": "uint256",
          "name": "carId",
          "type": "uint256"
        }
      ],
      "name": "RentalOfferAccepted",
      "type": "event"
    },
    {
      "anonymous": false,
      "inputs": [
        {
          "indexed": false,
          "internalType": "address",
          "name": "renter_address",
          "type": "address"
        },
        {
          "indexed": false,
          "internalType": "uint256",
          "name": "rentId",
          "type": "uint256"
        }
      ],
      "name": "RentalRequestedSubmitted",
      "type": "event"
    },
    {
      "anonymous": false,
      "inputs": [
        {
          "indexed": false,
          "internalType": "address",
          "name": "renter_address",
          "type": "address"
        }
      ],
      "name": "RenterRegistered",
      "type": "event"
    },
    {
      "constant": false,
      "inputs": [],
      "name": "register_car_owner",
      "outputs": [],
      "payable": false,
      "stateMutability": "nonpayable",
      "type": "function"
    },
    {
      "constant": false,
      "inputs": [
        {
          "internalType": "string",
          "name": "carModel",
          "type": "string"
        },
        {
          "internalType": "string",
          "name": "carPlate",
          "type": "string"
        }
      ],
      "name": "register_car",
      "outputs": [],
      "payable": false,
      "stateMutability": "nonpayable",
      "type": "function"
    },
    {
      "constant": false,
      "inputs": [
        {
          "internalType": "uint256",
          "name": "carId",
          "type": "uint256"
        },
        {
          "internalType": "uint256",
          "name": "availableStartDate",
          "type": "uint256"
        },
        {
          "internalType": "uint256",
          "name": "availableEndDate",
          "type": "uint256"
        },
        {
          "internalType": "string",
          "name": "collectionPoint",
          "type": "string"
        },
        {
          "internalType": "uint256",
          "name": "hourlyRentalRate",
          "type": "uint256"
        },
        {
          "internalType": "uint256",
          "name": "deposit",
          "type": "uint256"
        },
        {
          "internalType": "uint256",
          "name": "carCondition",
          "type": "uint256"
        }
      ],
      "name": "list_car_for_rental",
      "outputs": [],
      "payable": false,
      "stateMutability": "nonpayable",
      "type": "function"
    },
    {
      "constant": false,
      "inputs": [
        {
          "internalType": "uint256",
          "name": "carId",
          "type": "uint256"
        },
        {
          "internalType": "uint256",
          "name": "hourlyRentalRate",
          "type": "uint256"
        },
        {
          "internalType": "uint256",
          "name": "deposit",
          "type": "uint256"
        },
        {
          "internalType": "uint256",
          "name": "availableStartDate",
          "type": "uint256"
        },
        {
          "internalType": "uint256",
          "name": "availableEndDate",
          "type": "uint256"
        },
        {
          "internalType": "string",
          "name": "collectionPoint",
          "type": "string"
        }
      ],
      "name": "update_listed_car_info",
      "outputs": [],
      "payable": false,
      "stateMutability": "nonpayable",
      "type": "function"
    },
    {
      "constant": false,
      "inputs": [
        {
          "internalType": "uint256",
          "name": "rentId",
          "type": "uint256"
        }
      ],
      "name": "approve_rental_request",
      "outputs": [],
      "payable": false,
      "stateMutability": "nonpayable",
      "type": "function"
    },
    {
      "constant": false,
      "inputs": [
        {
          "internalType": "uint256",
          "name": "rentId",
          "type": "uint256"
        }
      ],
      "name": "reject_rental_request",
      "outputs": [],
      "payable": false,
      "stateMutability": "nonpayable",
      "type": "function"
    },
    {
      "constant": false,
      "inputs": [
        {
          "internalType": "uint256",
          "name": "carId",
          "type": "uint256"
        }
      ],
      "name": "unlist_car",
      "outputs": [],
      "payable": false,
      "stateMutability": "nonpayable",
      "type": "function"
    },
    {
      "constant": false,
      "inputs": [
        {
          "internalType": "uint256",
          "name": "rentId",
          "type": "uint256"
        }
      ],
      "name": "recall_approval",
      "outputs": [],
      "payable": false,
      "stateMutability": "nonpayable",
      "type": "function"
    },
    {
      "constant": false,
      "inputs": [
        {
          "internalType": "uint256",
          "name": "rentId",
          "type": "uint256"
        }
      ],
      "name": "confirm_car_returned",
      "outputs": [],
      "payable": false,
      "stateMutability": "nonpayable",
      "type": "function"
    },
    {
      "constant": false,
      "inputs": [
        {
          "internalType": "address",
          "name": "renter_address",
          "type": "address"
        }
      ],
      "name": "register_car_renter",
      "outputs": [],
      "payable": false,
      "stateMutability": "nonpayable",
      "type": "function"
    },
    {
      "constant": false,
      "inputs": [
        {
          "internalType": "address",
          "name": "renter_address",
          "type": "address"
        },
        {
          "internalType": "uint256",
          "name": "carId",
          "type": "uint256"
        },
        {
          "internalType": "uint256",
          "name": "startDate",
          "type": "uint256"
        },
        {
          "internalType": "uint256",
          "name": "endDate",
          "type": "uint256"
        },
        {
          "internalType": "uint256",
          "name": "offeredRate",
          "type": "uint256"
        }
      ],
      "name": "submit_rental_request",
      "outputs": [
        {
          "internalType": "uint256",
          "name": "",
          "type": "uint256"
        }
      ],
      "payable": false,
      "stateMutability": "nonpayable",
      "type": "function"
    },
    {
      "constant": false,
      "inputs": [
        {
          "internalType": "address",
          "name": "renter_address",
          "type": "address"
        },
        {
          "internalType": "uint256",
          "name": "carId",
          "type": "uint256"
        },
        {
          "internalType": "uint256",
          "name": "startDate",
          "type": "uint256"
        },
        {
          "internalType": "uint256",
          "name": "endDate",
          "type": "uint256"
        }
      ],
      "name": "submit_rental_request",
      "outputs": [
        {
          "internalType": "uint256",
          "name": "",
          "type": "uint256"
        }
      ],
      "payable": false,
      "stateMutability": "nonpayable",
      "type": "function"
    },
    {
      "constant": false,
      "inputs": [
        {
          "internalType": "uint256",
          "name": "rentId",
          "type": "uint256"
        }
      ],
      "name": "accept_rental_offer",
      "outputs": [],
      "payable": true,
      "stateMutability": "payable",
      "type": "function"
    },
    {
      "constant": false,
      "inputs": [
        {
          "internalType": "uint256",
          "name": "rentId",
          "type": "uint256"
        },
        {
          "internalType": "uint256",
          "name": "startDate",
          "type": "uint256"
        },
        {
          "internalType": "uint256",
          "name": "endDate",
          "type": "uint256"
        },
        {
          "internalType": "uint256",
          "name": "offeredRate",
          "type": "uint256"
        },
        {
          "internalType": "uint256",
          "name": "deposit",
          "type": "uint256"
        }
      ],
      "name": "update_rental_request",
      "outputs": [],
      "payable": false,
      "stateMutability": "nonpayable",
      "type": "function"
    },
    {
      "constant": false,
      "inputs": [
        {
          "internalType": "uint256",
          "name": "rentId",
          "type": "uint256"
        }
      ],
      "name": "confirm_car_received",
      "outputs": [],
      "payable": false,
      "stateMutability": "nonpayable",
      "type": "function"
    },
    {
      "constant": false,
      "inputs": [
        {
          "internalType": "uint256",
          "name": "rentId",
          "type": "uint256"
        },
        {
          "internalType": "uint256",
          "name": "rating",
          "type": "uint256"
        }
      ],
      "name": "leaveRating",
      "outputs": [],
      "payable": false,
      "stateMutability": "nonpayable",
      "type": "function"
    },
    {
      "constant": false,
      "inputs": [
        {
          "internalType": "uint256",
          "name": "rentId",
          "type": "uint256"
        },
        {
          "internalType": "string",
          "name": "details",
          "type": "string"
        },
        {
          "internalType": "string",
          "name": "contact",
          "type": "string"
        }
      ],
      "name": "report_issues",
      "outputs": [],
      "payable": false,
      "stateMutability": "nonpayable",
      "type": "function"
    },
    {
      "constant": false,
      "inputs": [
        {
          "internalType": "uint256",
          "name": "issueId",
          "type": "uint256"
        }
      ],
      "name": "resolve_issue",
      "outputs": [],
      "payable": false,
      "stateMutability": "nonpayable",
      "type": "function"
    },
    {
      "constant": false,
      "inputs": [
        {
          "internalType": "uint256",
          "name": "issueId",
          "type": "uint256"
        }
      ],
      "name": "reopen_issue",
      "outputs": [],
      "payable": false,
      "stateMutability": "nonpayable",
      "type": "function"
    },
    {
      "constant": true,
      "inputs": [
        {
          "internalType": "address",
          "name": "userId",
          "type": "address"
        }
      ],
      "name": "get_owner_rating",
      "outputs": [
        {
          "internalType": "uint256",
          "name": "",
          "type": "uint256"
        }
      ],
      "payable": false,
      "stateMutability": "view",
      "type": "function"
    },
    {
      "constant": true,
      "inputs": [
        {
          "internalType": "address",
          "name": "userId",
          "type": "address"
        }
      ],
      "name": "get_renter_rating",
      "outputs": [
        {
          "internalType": "uint256",
          "name": "",
          "type": "uint256"
        }
      ],
      "payable": false,
      "stateMutability": "view",
      "type": "function"
    },
    {
      "constant": true,
      "inputs": [
        {
          "internalType": "address",
          "name": "owner",
          "type": "address"
        }
      ],
      "name": "get_car_count",
      "outputs": [
        {
          "internalType": "uint256",
          "name": "",
          "type": "uint256"
        }
      ],
      "payable": false,
      "stateMutability": "view",
      "type": "function"
    },
    {
      "constant": true,
      "inputs": [
        {
          "internalType": "address",
          "name": "owner",
          "type": "address"
        }
      ],
      "name": "get_cars_owned",
      "outputs": [
        {
          "internalType": "uint256[]",
          "name": "",
          "type": "uint256[]"
        }
      ],
      "payable": false,
      "stateMutability": "view",
      "type": "function"
    },
    {
      "constant": true,
      "inputs": [
        {
          "internalType": "uint256",
          "name": "carId",
          "type": "uint256"
        }
      ],
      "name": "get_car_hourly_rental",
      "outputs": [
        {
          "internalType": "uint256",
          "name": "",
          "type": "uint256"
        }
      ],
      "payable": false,
      "stateMutability": "view",
      "type": "function"
    },
    {
      "constant": true,
      "inputs": [
        {
          "internalType": "uint256",
          "name": "carId",
          "type": "uint256"
        }
      ],
      "name": "get_car_model",
      "outputs": [
        {
          "internalType": "string",
          "name": "",
          "type": "string"
        }
      ],
      "payable": false,
      "stateMutability": "view",
      "type": "function"
    },
    {
      "constant": true,
      "inputs": [
        {
          "internalType": "uint256",
          "name": "carId",
          "type": "uint256"
        }
      ],
      "name": "get_car_deposit",
      "outputs": [
        {
          "internalType": "uint256",
          "name": "",
          "type": "uint256"
        }
      ],
      "payable": false,
      "stateMutability": "view",
      "type": "function"
    },
    {
      "constant": true,
      "inputs": [
        {
          "internalType": "uint256",
          "name": "carId",
          "type": "uint256"
        }
      ],
      "name": "get_car_owner",
      "outputs": [
        {
          "internalType": "address",
          "name": "",
          "type": "address"
        }
      ],
      "payable": false,
      "stateMutability": "view",
      "type": "function"
    },
    {
      "constant": true,
      "inputs": [
        {
          "internalType": "uint256",
          "name": "carId",
          "type": "uint256"
        }
      ],
      "name": "get_car_available_start_date",
      "outputs": [
        {
          "internalType": "uint256",
          "name": "",
          "type": "uint256"
        }
      ],
      "payable": false,
      "stateMutability": "view",
      "type": "function"
    },
    {
      "constant": true,
      "inputs": [
        {
          "internalType": "uint256",
          "name": "carId",
          "type": "uint256"
        }
      ],
      "name": "get_car_available_end_date",
      "outputs": [
        {
          "internalType": "uint256",
          "name": "",
          "type": "uint256"
        }
      ],
      "payable": false,
      "stateMutability": "view",
      "type": "function"
    },
    {
      "constant": true,
      "inputs": [
        {
          "internalType": "uint256",
          "name": "carId",
          "type": "uint256"
        }
      ],
      "name": "get_car_requested_rent_IDs",
      "outputs": [
        {
          "internalType": "uint256[]",
          "name": "",
          "type": "uint256[]"
        }
      ],
      "payable": false,
      "stateMutability": "view",
      "type": "function"
    },
    {
      "constant": true,
      "inputs": [
        {
          "internalType": "uint256",
          "name": "carId",
          "type": "uint256"
        }
      ],
      "name": "get_car_collection_point",
      "outputs": [
        {
          "internalType": "string",
          "name": "",
          "type": "string"
        }
      ],
      "payable": false,
      "stateMutability": "view",
      "type": "function"
    },
    {
      "constant": true,
      "inputs": [
        {
          "internalType": "uint256",
          "name": "carId",
          "type": "uint256"
        }
      ],
      "name": "get_car_status",
      "outputs": [
        {
          "internalType": "enum DecentralRent.CarStatus",
          "name": "",
          "type": "uint8"
        }
      ],
      "payable": false,
      "stateMutability": "view",
      "type": "function"
    },
    {
      "constant": true,
      "inputs": [
        {
          "internalType": "uint256",
          "name": "rentId",
          "type": "uint256"
        }
      ],
      "name": "get_rent_start_date",
      "outputs": [
        {
          "internalType": "uint256",
          "name": "",
          "type": "uint256"
        }
      ],
      "payable": false,
      "stateMutability": "view",
      "type": "function"
    },
    {
      "constant": true,
      "inputs": [
        {
          "internalType": "uint256",
          "name": "rentId",
          "type": "uint256"
        }
      ],
      "name": "get_rent_end_date",
      "outputs": [
        {
          "internalType": "uint256",
          "name": "",
          "type": "uint256"
        }
      ],
      "payable": false,
      "stateMutability": "view",
      "type": "function"
    },
    {
      "constant": true,
      "inputs": [
        {
          "internalType": "uint256",
          "name": "rentId",
          "type": "uint256"
        }
      ],
      "name": "get_rent_price",
      "outputs": [
        {
          "internalType": "uint256",
          "name": "",
          "type": "uint256"
        }
      ],
      "payable": false,
      "stateMutability": "view",
      "type": "function"
    },
    {
      "constant": true,
      "inputs": [
        {
          "internalType": "uint256",
          "name": "rentId",
          "type": "uint256"
        }
      ],
      "name": "get_rent_carId",
      "outputs": [
        {
          "internalType": "uint256",
          "name": "",
          "type": "uint256"
        }
      ],
      "payable": false,
      "stateMutability": "view",
      "type": "function"
    },
    {
      "constant": true,
      "inputs": [
        {
          "internalType": "uint256",
          "name": "rentId",
          "type": "uint256"
        }
      ],
      "name": "get_rent_renter",
      "outputs": [
        {
          "internalType": "address",
          "name": "",
          "type": "address"
        }
      ],
      "payable": false,
      "stateMutability": "view",
      "type": "function"
    },
    {
      "constant": true,
      "inputs": [
        {
          "internalType": "uint256",
          "name": "rentId",
          "type": "uint256"
        }
      ],
      "name": "get_rent_status",
      "outputs": [
        {
          "internalType": "enum DecentralRent.RentalStatus",
          "name": "",
          "type": "uint8"
        }
      ],
      "payable": false,
      "stateMutability": "view",
      "type": "function"
    },
    {
      "constant": true,
      "inputs": [
        {
          "internalType": "address",
          "name": "_address",
          "type": "address"
        }
      ],
      "name": "getEthBalance",
      "outputs": [
        {
          "internalType": "uint256",
          "name": "",
          "type": "uint256"
        }
      ],
      "payable": false,
      "stateMutability": "view",
      "type": "function"
    }
  ],
  "bytecode": "0x6080604052336000806101000a81548173ffffffffffffffffffffffffffffffffffffffff021916908373ffffffffffffffffffffffffffffffffffffffff1602179055506000600a556000600b556000600c556000600d553480156200006557600080fd5b506040516200640138038062006401833981810160405260408110156200008b57600080fd5b81019080805190602001909291908051906020019092919050505080600260006101000a81548173ffffffffffffffffffffffffffffffffffffffff021916908373ffffffffffffffffffffffffffffffffffffffff16021790555081600181905550505061630180620001006000396000f3fe6080604052600436106102305760003560e01c8063866afe291161012e578063cf1211bc116100ab578063efe9818d1161006f578063efe9818d14611141578063efea4b461461117c578063f7ffcb0114611276578063f8609cea146112f1578063ffa7263b1461132c57610230565b8063cf1211bc14610e6e578063d361195d14610f22578063de0498ad14611026578063debc7f49146110a9578063e656c5391461110657610230565b8063990bf167116100f2578063990bf16714610b7c578063a2d66c3914610cdb578063accd83b714610d16578063b22c513414610da6578063b24a5f4014610e0b57610230565b8063866afe29146109375780638798b4dd14610aa0578063903b7bf714610adb57806391b664f714610b2a57806393633b2814610b4157610230565b8063360798fa116101bc5780636d759ad3116101805780636d759ad3146106f957806371227a06146107ad578063745135c0146107fe578063749dba5b1461084d578063750db669146108aa57610230565b8063360798fa1461052c57806336d65484146105a757806339f0d282146105f65780633d82d328146106455780634d2301cc1461069457610230565b80630ef2fe87116102035780630ef2fe87146103bd578063118730e7146104225780631bcd5fa91461045d5780631c00454f146104ac57806321818ca6146104e757610230565b806303bff5ed14610235578063048644361461028457806305e848c51461032a578063096415621461038f575b600080fd5b34801561024157600080fd5b5061026e6004803603602081101561025857600080fd5b810190808035906020019092919050505061137b565b6040518082815260200191505060405180910390f35b34801561029057600080fd5b506102d3600480360360208110156102a757600080fd5b81019080803573ffffffffffffffffffffffffffffffffffffffff16906020019092919050505061139b565b6040518080602001828103825283818151815260200191508051906020019060200280838360005b838110156103165780820151818401526020810190506102fb565b505050509050019250505060405180910390f35b34801561033657600080fd5b506103796004803603602081101561034d57600080fd5b81019080803573ffffffffffffffffffffffffffffffffffffffff169060200190929190505050611435565b6040518082815260200191505060405180910390f35b6103bb600480360360208110156103a557600080fd5b8101908080359060200190929190505050611481565b005b3480156103c957600080fd5b5061040c600480360360208110156103e057600080fd5b81019080803573ffffffffffffffffffffffffffffffffffffffff1690602001909291905050506118e3565b6040518082815260200191505060405180910390f35b34801561042e57600080fd5b5061045b6004803603602081101561044557600080fd5b810190808035906020019092919050505061192f565b005b34801561046957600080fd5b506104966004803603602081101561048057600080fd5b8101908080359060200190929190505050611af5565b6040518082815260200191505060405180910390f35b3480156104b857600080fd5b506104e5600480360360208110156104cf57600080fd5b8101908080359060200190929190505050611b15565b005b3480156104f357600080fd5b5061052a6004803603604081101561050a57600080fd5b810190808035906020019092919080359060200190929190505050611f38565b005b34801561053857600080fd5b506105656004803603602081101561054f57600080fd5b810190808035906020019092919050505061258b565b604051808273ffffffffffffffffffffffffffffffffffffffff1673ffffffffffffffffffffffffffffffffffffffff16815260200191505060405180910390f35b3480156105b357600080fd5b506105e0600480360360208110156105ca57600080fd5b81019080803590602001909291905050506125cb565b6040518082815260200191505060405180910390f35b34801561060257600080fd5b5061062f6004803603602081101561061957600080fd5b81019080803590602001909291905050506125eb565b6040518082815260200191505060405180910390f35b34801561065157600080fd5b5061067e6004803603602081101561066857600080fd5b810190808035906020019092919050505061260b565b6040518082815260200191505060405180910390f35b3480156106a057600080fd5b506106e3600480360360208110156106b757600080fd5b81019080803573ffffffffffffffffffffffffffffffffffffffff169060200190929190505050612771565b6040518082815260200191505060405180910390f35b34801561070557600080fd5b506107326004803603602081101561071c57600080fd5b8101908080359060200190929190505050612792565b6040518080602001828103825283818151815260200191508051906020019080838360005b83811015610772578082015181840152602081019050610757565b50505050905090810190601f16801561079f5780820380516001836020036101000a031916815260200191505b509250505060405180910390f35b3480156107b957600080fd5b506107fc600480360360208110156107d057600080fd5b81019080803573ffffffffffffffffffffffffffffffffffffffff16906020019092919050505061284a565b005b34801561080a57600080fd5b506108376004803603602081101561082157600080fd5b81019080803590602001909291905050506129c9565b6040518082815260200191505060405180910390f35b34801561085957600080fd5b506108866004803603602081101561087057600080fd5b81019080803590602001909291905050506129e9565b6040518082600581111561089657fe5b60ff16815260200191505060405180910390f35b3480156108b657600080fd5b50610921600480360360a08110156108cd57600080fd5b81019080803573ffffffffffffffffffffffffffffffffffffffff16906020019092919080359060200190929190803590602001909291908035906020019092919080359060200190929190505050612a16565b6040518082815260200191505060405180910390f35b34801561094357600080fd5b50610a9e6004803603606081101561095a57600080fd5b81019080803590602001909291908035906020019064010000000081111561098157600080fd5b82018360208201111561099357600080fd5b803590602001918460018302840111640100000000831117156109b557600080fd5b91908080601f016020809104026020016040519081016040528093929190818152602001838380828437600081840152601f19601f82011690508083019250505050505050919291929080359060200190640100000000811115610a1857600080fd5b820183602082011115610a2a57600080fd5b80359060200191846001830284011164010000000083111715610a4c57600080fd5b91908080601f016020809104026020016040519081016040528093929190818152602001838380828437600081840152601f19601f820116905080830192505050505050509192919290505050612eef565b005b348015610aac57600080fd5b50610ad960048036036020811015610ac357600080fd5b8101908080359060200190929190505050613409565b005b348015610ae757600080fd5b50610b1460048036036020811015610afe57600080fd5b8101908080359060200190929190505050613977565b6040518082815260200191505060405180910390f35b348015610b3657600080fd5b50610b3f613997565b005b348015610b4d57600080fd5b50610b7a60048036036020811015610b6457600080fd5b8101908080359060200190929190505050613b12565b005b348015610b8857600080fd5b50610cd960048036036040811015610b9f57600080fd5b8101908080359060200190640100000000811115610bbc57600080fd5b820183602082011115610bce57600080fd5b80359060200191846001830284011164010000000083111715610bf057600080fd5b91908080601f016020809104026020016040519081016040528093929190818152602001838380828437600081840152601f19601f82011690508083019250505050505050919291929080359060200190640100000000811115610c5357600080fd5b820183602082011115610c6557600080fd5b80359060200191846001830284011164010000000083111715610c8757600080fd5b91908080601f016020809104026020016040519081016040528093929190818152602001838380828437600081840152601f19601f820116905080830192505050505050509192919290505050613d9a565b005b348015610ce757600080fd5b50610d1460048036036020811015610cfe57600080fd5b81019080803590602001909291905050506141c0565b005b348015610d2257600080fd5b50610d4f60048036036020811015610d3957600080fd5b8101908080359060200190929190505050614465565b6040518080602001828103825283818151815260200191508051906020019060200280838360005b83811015610d92578082015181840152602081019050610d77565b505050509050019250505060405180910390f35b348015610db257600080fd5b50610df560048036036020811015610dc957600080fd5b81019080803573ffffffffffffffffffffffffffffffffffffffff1690602001909291905050506144d3565b6040518082815260200191505060405180910390f35b348015610e1757600080fd5b50610e6c600480360360a0811015610e2e57600080fd5b81019080803590602001909291908035906020019092919080359060200190929190803590602001909291908035906020019092919050505061451f565b005b348015610e7a57600080fd5b50610ea760048036036020811015610e9157600080fd5b81019080803590602001909291905050506147c5565b6040518080602001828103825283818151815260200191508051906020019080838360005b83811015610ee7578082015181840152602081019050610ecc565b50505050905090810190601f168015610f145780820380516001836020036101000a031916815260200191505b509250505060405180910390f35b348015610f2e57600080fd5b50611024600480360360e0811015610f4557600080fd5b8101908080359060200190929190803590602001909291908035906020019092919080359060200190640100000000811115610f8057600080fd5b820183602082011115610f9257600080fd5b80359060200191846001830284011164010000000083111715610fb457600080fd5b91908080601f016020809104026020016040519081016040528093929190818152602001838380828437600081840152601f19601f82011690508083019250505050505050919291929080359060200190929190803590602001909291908035906020019092919050505061487d565b005b34801561103257600080fd5b506110936004803603608081101561104957600080fd5b81019080803573ffffffffffffffffffffffffffffffffffffffff169060200190929190803590602001909291908035906020019092919080359060200190929190505050614ac4565b6040518082815260200191505060405180910390f35b3480156110b557600080fd5b506110e2600480360360208110156110cc57600080fd5b8101908080359060200190929190505050614af3565b604051808260058111156110f257fe5b60ff16815260200191505060405180910390f35b34801561111257600080fd5b5061113f6004803603602081101561112957600080fd5b8101908080359060200190929190505050614b20565b005b34801561114d57600080fd5b5061117a6004803603602081101561116457600080fd5b8101908080359060200190929190505050615211565b005b34801561118857600080fd5b50611274600480360360c081101561119f57600080fd5b810190808035906020019092919080359060200190929190803590602001909291908035906020019092919080359060200190929190803590602001906401000000008111156111ee57600080fd5b82018360208201111561120057600080fd5b8035906020019184600183028401116401000000008311171561122257600080fd5b91908080601f016020809104026020016040519081016040528093929190818152602001838380828437600081840152601f19601f82011690508083019250505050505050919291929050505061558d565b005b34801561128257600080fd5b506112af6004803603602081101561129957600080fd5b8101908080359060200190929190505050615780565b604051808273ffffffffffffffffffffffffffffffffffffffff1673ffffffffffffffffffffffffffffffffffffffff16815260200191505060405180910390f35b3480156112fd57600080fd5b5061132a6004803603602081101561131457600080fd5b81019080803590602001909291905050506157c0565b005b34801561133857600080fd5b506113656004803603602081101561134f57600080fd5b8101908080359060200190929190505050615c78565b6040518082815260200191505060405180910390f35b600060036000838152602001908152602001600020600601549050919050565b6060600560008373ffffffffffffffffffffffffffffffffffffffff1673ffffffffffffffffffffffffffffffffffffffff16815260200190815260200160002060020180548060200260200160405190810160405280929190818152602001828054801561142957602002820191906000526020600020905b815481526020019060010190808311611415575b50505050509050919050565b6000600560008373ffffffffffffffffffffffffffffffffffffffff1673ffffffffffffffffffffffffffffffffffffffff168152602001908152602001600020600101549050919050565b611489615d77565b6004600083815260200190815260200160002060405180610100016040529081600082015481526020016001820160009054906101000a900473ffffffffffffffffffffffffffffffffffffffff1673ffffffffffffffffffffffffffffffffffffffff1673ffffffffffffffffffffffffffffffffffffffff1681526020016002820160009054906101000a900473ffffffffffffffffffffffffffffffffffffffff1673ffffffffffffffffffffffffffffffffffffffff1673ffffffffffffffffffffffffffffffffffffffff1681526020016002820160149054906101000a900460ff16600581111561157c57fe5b600581111561158757fe5b815260200160038201548152602001600482015481526020016005820154815260200160068201548152505090503373ffffffffffffffffffffffffffffffffffffffff16816020015173ffffffffffffffffffffffffffffffffffffffff161461163d576040517f08c379a00000000000000000000000000000000000000000000000000000000081526004018080602001828103825260218152602001806162596021913960400191505060405180910390fd5b6001600581111561164a57fe5b8160600151600581111561165a57fe5b146116b0576040517f08c379a00000000000000000000000000000000000000000000000000000000081526004018080602001828103825260238152602001806161b26023913960400191505060405180910390fd5b6000610e1082608001518360a0015103816116c757fe5b04905060008260e00151828460c001510201905080341015611734576040517f08c379a000000000000000000000000000000000000000000000000000000000815260040180806020018281038252602c81526020018061606b602c913960400191505060405180910390fd5b60048360600190600581111561174657fe5b9081600581111561175357fe5b815250507fea1598499a6b74f4ea534d2b8891b00ad6306e8dc6d54c6a346ccc639426f19c848460000151604051808381526020018281526020019250505060405180910390a17ff8a39b59079e168cebb5099fe7aa8c49a36e0921f6d111b3bc396f145b7105f58360400151604051808273ffffffffffffffffffffffffffffffffffffffff1673ffffffffffffffffffffffffffffffffffffffff16815260200191505060405180910390a1803411156118595760003390508073ffffffffffffffffffffffffffffffffffffffff166108fc8334039081150290604051600060405180830381858888f19350505050158015611856573d6000803e3d6000fd5b50505b600660006004600087815260200190815260200160002060010160009054906101000a900473ffffffffffffffffffffffffffffffffffffffff1673ffffffffffffffffffffffffffffffffffffffff1673ffffffffffffffffffffffffffffffffffffffff16815260200190815260200160002060070160006118dd9190615df3565b50505050565b6000600660008373ffffffffffffffffffffffffffffffffffffffff1673ffffffffffffffffffffffffffffffffffffffff168152602001908152602001600020600401549050919050565b33816003600082815260200190815260200160002060000160009054906101000a900473ffffffffffffffffffffffffffffffffffffffff1673ffffffffffffffffffffffffffffffffffffffff168273ffffffffffffffffffffffffffffffffffffffff16146119eb576040517f08c379a000000000000000000000000000000000000000000000000000000000815260040180806020018281038252602f81526020018061614d602f913960400191505060405180910390fd5b8260018060058111156119fa57fe5b6003600084815260200190815260200160002060000160149054906101000a900460ff166005811115611a2957fe5b14611a7f576040517f08c379a000000000000000000000000000000000000000000000000000000000815260040180806020018281038252603681526020018061617c6036913960400191505060405180910390fd5b60046003600087815260200190815260200160002060000160146101000a81548160ff02191690836005811115611ab257fe5b02179055507fd9634177085743dc78f994ddbeb3ef9f0b4ec65efc3a50600f0e758dbf8819b4856040518082815260200191505060405180910390a15050505050565b600060046000838152602001908152602001600020600401549050919050565b6004600082815260200190815260200160002060010160009054906101000a900473ffffffffffffffffffffffffffffffffffffffff1673ffffffffffffffffffffffffffffffffffffffff163373ffffffffffffffffffffffffffffffffffffffff1614611bec576040517f08c379a00000000000000000000000000000000000000000000000000000000081526004018080602001828103825260178152602001807f596f7520617265206e6f74207468652072656e7465722100000000000000000081525060200191505060405180910390fd5b6000339050611bf9615e14565b600660008373ffffffffffffffffffffffffffffffffffffffff1673ffffffffffffffffffffffffffffffffffffffff168152602001908152602001600020604051806101000160405290816000820160009054906101000a900460ff1615151515815260200160018201548152602001600282015481526020016003820154815260200160048201548152602001600582015481526020016006820154815260200160078201805480602002602001604051908101604052809291908181526020018280548015611cea57602002820191906000526020600020905b815481526020019060010190808311611cd6575b50505050508152505090506060808260e0018190525060046000858152602001908152602001600020600001548260c00181815250507fce871e0c96fe88b0cc51e78098e3ee4a655b0b6792af19f8cb8486ad743b5d7a8385604051808373ffffffffffffffffffffffffffffffffffffffff1673ffffffffffffffffffffffffffffffffffffffff1681526020018281526020019250505060405180910390a1611d93615d77565b6004600086815260200190815260200160002060405180610100016040529081600082015481526020016001820160009054906101000a900473ffffffffffffffffffffffffffffffffffffffff1673ffffffffffffffffffffffffffffffffffffffff1673ffffffffffffffffffffffffffffffffffffffff1681526020016002820160009054906101000a900473ffffffffffffffffffffffffffffffffffffffff1673ffffffffffffffffffffffffffffffffffffffff1673ffffffffffffffffffffffffffffffffffffffff1681526020016002820160149054906101000a900460ff166005811115611e8657fe5b6005811115611e9157fe5b815260200160038201548152602001600482015481526020016005820154815260200160068201548152505090506000816040015190506000603c80846080015102028360a001510390506000818460c001510290508273ffffffffffffffffffffffffffffffffffffffff166108fc829081150290604051600060405180830381858888f19350505050158015611f2d573d6000803e3d6000fd5b505050505050505050565b816005806005811115611f4757fe5b6004600084815260200190815260200160002060020160149054906101000a900460ff166005811115611f7657fe5b14611fcc576040517f08c379a00000000000000000000000000000000000000000000000000000000081526004018080602001828103825260418152602001806160976041913960600191505060405180910390fd5b6004600085815260200190815260200160002060010160009054906101000a900473ffffffffffffffffffffffffffffffffffffffff1673ffffffffffffffffffffffffffffffffffffffff163373ffffffffffffffffffffffffffffffffffffffff16148061209d57506004600085815260200190815260200160002060020160009054906101000a900473ffffffffffffffffffffffffffffffffffffffff1673ffffffffffffffffffffffffffffffffffffffff163373ffffffffffffffffffffffffffffffffffffffff16145b6120f2576040517f08c379a00000000000000000000000000000000000000000000000000000000081526004018080602001828103825260248152602001806161046024913960400191505060405180910390fd5b60058311158015612104575060008310155b612159576040517f08c379a00000000000000000000000000000000000000000000000000000000081526004018080602001828103825260218152602001806161d56021913960400191505060405180910390fd5b6004600085815260200190815260200160002060010160009054906101000a900473ffffffffffffffffffffffffffffffffffffffff1673ffffffffffffffffffffffffffffffffffffffff163373ffffffffffffffffffffffffffffffffffffffff16141561236f5760006004600086815260200190815260200160002060020160009054906101000a900473ffffffffffffffffffffffffffffffffffffffff1690506001600560008373ffffffffffffffffffffffffffffffffffffffff1673ffffffffffffffffffffffffffffffffffffffff168152602001908152602001600020600501540184600560008473ffffffffffffffffffffffffffffffffffffffff1673ffffffffffffffffffffffffffffffffffffffff16815260200190815260200160002060050154600560008573ffffffffffffffffffffffffffffffffffffffff1673ffffffffffffffffffffffffffffffffffffffff168152602001908152602001600020600401540201816122d457fe5b04600560008373ffffffffffffffffffffffffffffffffffffffff1673ffffffffffffffffffffffffffffffffffffffff16815260200190815260200160002060040181905550600560008273ffffffffffffffffffffffffffffffffffffffff1673ffffffffffffffffffffffffffffffffffffffff16815260200190815260200160002060050160008154809291906001019190505550505b6004600085815260200190815260200160002060020160009054906101000a900473ffffffffffffffffffffffffffffffffffffffff1673ffffffffffffffffffffffffffffffffffffffff163373ffffffffffffffffffffffffffffffffffffffff1614156125855760006004600086815260200190815260200160002060010160009054906101000a900473ffffffffffffffffffffffffffffffffffffffff1690506001600560008373ffffffffffffffffffffffffffffffffffffffff1673ffffffffffffffffffffffffffffffffffffffff168152602001908152602001600020600501540184600660008473ffffffffffffffffffffffffffffffffffffffff1673ffffffffffffffffffffffffffffffffffffffff16815260200190815260200160002060050154600660008573ffffffffffffffffffffffffffffffffffffffff1673ffffffffffffffffffffffffffffffffffffffff168152602001908152602001600020600401540201816124ea57fe5b04600660008373ffffffffffffffffffffffffffffffffffffffff1673ffffffffffffffffffffffffffffffffffffffff16815260200190815260200160002060040181905550600660008273ffffffffffffffffffffffffffffffffffffffff1673ffffffffffffffffffffffffffffffffffffffff16815260200190815260200160002060050160008154809291906001019190505550505b50505050565b60006004600083815260200190815260200160002060010160009054906101000a900473ffffffffffffffffffffffffffffffffffffffff169050919050565b600060036000838152602001908152602001600020600401549050919050565b600060036000838152602001908152602001600020600701549050919050565b6000612615615d77565b6004600084815260200190815260200160002060405180610100016040529081600082015481526020016001820160009054906101000a900473ffffffffffffffffffffffffffffffffffffffff1673ffffffffffffffffffffffffffffffffffffffff1673ffffffffffffffffffffffffffffffffffffffff1681526020016002820160009054906101000a900473ffffffffffffffffffffffffffffffffffffffff1673ffffffffffffffffffffffffffffffffffffffff1673ffffffffffffffffffffffffffffffffffffffff1681526020016002820160149054906101000a900460ff16600581111561270857fe5b600581111561271357fe5b815260200160038201548152602001600482015481526020016005820154815260200160068201548152505090506000610e1082608001518360a00151038161275857fe5b0490508160e00151818360c00151020192505050919050565b60008173ffffffffffffffffffffffffffffffffffffffff16319050919050565b6060600360008381526020019081526020016000206008018054600181600116156101000203166002900480601f01602080910402602001604051908101604052809291908181526020018280546001816001161561010002031660029004801561283e5780601f106128135761010080835404028352916020019161283e565b820191906000526020600020905b81548152906001019060200180831161282157829003601f168201915b50505050509050919050565b61285381615c98565b61285c57600080fd5b60001515600660008373ffffffffffffffffffffffffffffffffffffffff1673ffffffffffffffffffffffffffffffffffffffff16815260200190815260200160002060000160009054906101000a900460ff16151514612908576040517f08c379a00000000000000000000000000000000000000000000000000000000081526004018080602001828103825260268152602001806162a76026913960400191505060405180910390fd5b6001600660008373ffffffffffffffffffffffffffffffffffffffff1673ffffffffffffffffffffffffffffffffffffffff16815260200190815260200160002060000160006101000a81548160ff0219169083151502179055507fe61c52258a4d2f33189eda374919387538392b1582262d1d43da6a73019fe88281604051808273ffffffffffffffffffffffffffffffffffffffff1673ffffffffffffffffffffffffffffffffffffffff16815260200191505060405180910390a150565b600060046000838152602001908152602001600020600301549050919050565b60006003600083815260200190815260200160002060000160149054906101000a900460ff169050919050565b60008073ffffffffffffffffffffffffffffffffffffffff168673ffffffffffffffffffffffffffffffffffffffff161415612a5157600080fd5b612a59615e14565b600660008873ffffffffffffffffffffffffffffffffffffffff1673ffffffffffffffffffffffffffffffffffffffff168152602001908152602001600020604051806101000160405290816000820160009054906101000a900460ff1615151515815260200160018201548152602001600282015481526020016003820154815260200160048201548152602001600582015481526020016006820154815260200160078201805480602002602001604051908101604052809291908181526020018280548015612b4a57602002820191906000526020600020905b815481526020019060010190808311612b36575b50505050508152505090506000600b600081546001019190508190559050600660008973ffffffffffffffffffffffffffffffffffffffff1673ffffffffffffffffffffffffffffffffffffffff16815260200190815260200160002060070187908060018154018082558091505090600182039060005260206000200160009091929091909150555060036000888152602001908152602001600020600901819080600181540180825580915050906001820390600052602060002001600090919290919091505550612c1c615d77565b6040518061010001604052808981526020018a73ffffffffffffffffffffffffffffffffffffffff168152602001600360008b815260200190815260200160002060000160009054906101000a900473ffffffffffffffffffffffffffffffffffffffff1673ffffffffffffffffffffffffffffffffffffffff16815260200160006005811115612ca957fe5b8152602001888152602001878152602001868152602001600360008b815260200190815260200160002060040154815250905080600460008481526020019081526020016000206000820151816000015560208201518160010160006101000a81548173ffffffffffffffffffffffffffffffffffffffff021916908373ffffffffffffffffffffffffffffffffffffffff16021790555060408201518160020160006101000a81548173ffffffffffffffffffffffffffffffffffffffff021916908373ffffffffffffffffffffffffffffffffffffffff16021790555060608201518160020160146101000a81548160ff02191690836005811115612dac57fe5b02179055506080820151816003015560a0820151816004015560c0820151816005015560e082015181600601559050507f46d8489632192dd294096a252ad7860b89444adc1adaec7953c7bf9c1e87fe258983604051808373ffffffffffffffffffffffffffffffffffffffff1673ffffffffffffffffffffffffffffffffffffffff1681526020018281526020019250505060405180910390a17ff8a39b59079e168cebb5099fe7aa8c49a36e0921f6d111b3bc396f145b7105f5600360008a815260200190815260200160002060000160009054906101000a900473ffffffffffffffffffffffffffffffffffffffff16604051808273ffffffffffffffffffffffffffffffffffffffff1673ffffffffffffffffffffffffffffffffffffffff16815260200191505060405180910390a181935050505095945050505050565b826004806005811115612efe57fe5b6004600084815260200190815260200160002060020160149054906101000a900460ff166005811115612f2d57fe5b14612f83576040517f08c379a00000000000000000000000000000000000000000000000000000000081526004018080602001828103825260418152602001806160976041913960600191505060405180910390fd5b612f8b615d77565b6004600087815260200190815260200160002060405180610100016040529081600082015481526020016001820160009054906101000a900473ffffffffffffffffffffffffffffffffffffffff1673ffffffffffffffffffffffffffffffffffffffff1673ffffffffffffffffffffffffffffffffffffffff1681526020016002820160009054906101000a900473ffffffffffffffffffffffffffffffffffffffff1673ffffffffffffffffffffffffffffffffffffffff1673ffffffffffffffffffffffffffffffffffffffff1681526020016002820160149054906101000a900460ff16600581111561307e57fe5b600581111561308957fe5b815260200160038201548152602001600482015481526020016005820154815260200160068201548152505090506000816040015190506000826020015190508173ffffffffffffffffffffffffffffffffffffffff163373ffffffffffffffffffffffffffffffffffffffff16148061312e57508073ffffffffffffffffffffffffffffffffffffffff163373ffffffffffffffffffffffffffffffffffffffff16145b6131a0576040517f08c379a000000000000000000000000000000000000000000000000000000000815260040180806020018281038252601b8152602001807f497373756520646f6573206e6f7420696e766f6c766520796f7521000000000081525060200191505060405180910390fd5b6040518060a001604052808981526020013373ffffffffffffffffffffffffffffffffffffffff168152602001888152602001878152602001600060028111156131e657fe5b81525060096000600d5481526020019081526020016000206000820151816000015560208201518160010160006101000a81548173ffffffffffffffffffffffffffffffffffffffff021916908373ffffffffffffffffffffffffffffffffffffffff160217905550604082015181600201908051906020019061326b929190615e5b565b506060820151816003019080519060200190613288929190615e5b565b5060808201518160040160006101000a81548160ff021916908360028111156132ad57fe5b02179055509050506001600d600082825401925050819055507f69050c9965f08b2e104d7757ca1347bb11b269a14524e417d7c6c0a1d39cc8bc3389604051808373ffffffffffffffffffffffffffffffffffffffff1673ffffffffffffffffffffffffffffffffffffffff1681526020018281526020019250505060405180910390a17ff8a39b59079e168cebb5099fe7aa8c49a36e0921f6d111b3bc396f145b7105f58360400151604051808273ffffffffffffffffffffffffffffffffffffffff1673ffffffffffffffffffffffffffffffffffffffff16815260200191505060405180910390a17fa772bbeff1bd45191583762ba3038ecc80ea6e160d8de1439d08c03f743c72e28360200151604051808273ffffffffffffffffffffffffffffffffffffffff1673ffffffffffffffffffffffffffffffffffffffff16815260200191505060405180910390a15050505050505050565b3360046000838152602001908152602001600020600001546003600082815260200190815260200160002060000160009054906101000a900473ffffffffffffffffffffffffffffffffffffffff1673ffffffffffffffffffffffffffffffffffffffff168273ffffffffffffffffffffffffffffffffffffffff16146134db576040517f08c379a000000000000000000000000000000000000000000000000000000000815260040180806020018281038252602f81526020018061614d602f913960400191505060405180910390fd5b600460008481526020019081526020016000206000015483600080905060606003600085815260200190815260200160002060090180548060200260200160405190810160405280929190818152602001828054801561355a57602002820191906000526020600020905b815481526020019060010190808311613546575b5050505050905060008090505b81518110156135a1578382828151811061357d57fe5b6020026020010151141561359457600192506135a1565b8080600101915050613567565b5060011515821515146135ff576040517f08c379a000000000000000000000000000000000000000000000000000000000815260040180806020018281038252602c8152602001806160d8602c913960400191505060405180910390fd5b8660006001905060008090505b6003600060046000868152602001908152602001600020600001548152602001908152602001600020600901805490508110156138be576001600581111561365057fe5b600460006003600060046000898152602001908152602001600020600001548152602001908152602001600020600901848154811061368b57fe5b9060005260206000200154815260200190815260200160002060020160149054906101000a900460ff1660058111156136c057fe5b14156138b1576004600084815260200190815260200160002060030154600460006003600060046000898152602001908152602001600020600001548152602001908152602001600020600901848154811061371857fe5b906000526020600020015481526020019081526020016000206003015410613836576004600084815260200190815260200160002060040154600460006003600060046000898152602001908152602001600020600001548152602001908152602001600020600901848154811061378c57fe5b9060005260206000200154815260200190815260200160002060030154116137b75760009150613831565b6004600084815260200190815260200160002060040154600460006003600060046000898152602001908152602001600020600001548152602001908152602001600020600901848154811061380957fe5b90600052602060002001548152602001908152602001600020600401541161383057600091505b5b6138b0565b6004600084815260200190815260200160002060040154600460006003600060046000898152602001908152602001600020600001548152602001908152602001600020600901848154811061388857fe5b9060005260206000200154815260200190815260200160002060040154116138af57600091505b5b5b808060010191505061360c565b50600115158115151461391c576040517f08c379a000000000000000000000000000000000000000000000000000000000815260040180806020018281038252602e81526020018061622b602e913960400191505060405180910390fd5b6001600460008b815260200190815260200160002060020160146101000a81548160ff0219169083600581111561394f57fe5b021790555042600760008b815260200190815260200160002081905550505050505050505050565b600060036000838152602001908152602001600020600301549050919050565b60001515600560003373ffffffffffffffffffffffffffffffffffffffff1673ffffffffffffffffffffffffffffffffffffffff16815260200190815260200160002060000160009054906101000a900460ff16151514613a43576040517f08c379a00000000000000000000000000000000000000000000000000000000081526004018080602001828103825260258152602001806161286025913960400191505060405180910390fd5b613a4c33615c98565b15613aad576001600560003373ffffffffffffffffffffffffffffffffffffffff1673ffffffffffffffffffffffffffffffffffffffff16815260200190815260200160002060000160006101000a81548160ff0219169083151502179055505b7f6a79f7f20c9ccc78cb18ff952a60bd2844ef24594cdae659d0b1ea7785e6c86433604051808273ffffffffffffffffffffffffffffffffffffffff1673ffffffffffffffffffffffffffffffffffffffff16815260200191505060405180910390a1565b3360046000838152602001908152602001600020600001546003600082815260200190815260200160002060000160009054906101000a900473ffffffffffffffffffffffffffffffffffffffff1673ffffffffffffffffffffffffffffffffffffffff168273ffffffffffffffffffffffffffffffffffffffff1614613be4576040517f08c379a000000000000000000000000000000000000000000000000000000000815260040180806020018281038252602f81526020018061614d602f913960400191505060405180910390fd5b826001806005811115613bf357fe5b6004600084815260200190815260200160002060020160149054906101000a900460ff166005811115613c2257fe5b14613c78576040517f08c379a00000000000000000000000000000000000000000000000000000000081526004018080602001828103825260418152602001806160976041913960600191505060405180910390fd5b613c8185615ce1565b613cd6576040517f08c379a00000000000000000000000000000000000000000000000000000000081526004018080602001828103825260358152602001806161f66035913960400191505060405180910390fd5b6001600360006004600089815260200190815260200160002060000154815260200190815260200160002060000160146101000a81548160ff02191690836005811115613d1f57fe5b021790555060036004600087815260200190815260200160002060020160146101000a81548160ff02191690836005811115613d5757fe5b02179055507f493aa8773123000445821c669df5dd075891fc8a7cc9f8633d301e6e306eb631856040518082815260200191505060405180910390a15050505050565b3360011515600560008373ffffffffffffffffffffffffffffffffffffffff1673ffffffffffffffffffffffffffffffffffffffff16815260200190815260200160002060000160009054906101000a900460ff16151514613e64576040517f08c379a00000000000000000000000000000000000000000000000000000000081526004018080602001828103825260198152602001807f636172206f776e6572206973206e6f742076657269666965640000000000000081525060200191505060405180910390fd5b60011515613e73338585615d05565b151514613ee8576040517f08c379a000000000000000000000000000000000000000000000000000000000815260040180806020018281038252601e8152602001807f63617220646f6573206e6f74207061737320766572696669636174696f6e000081525060200191505060405180910390fd5b60608060606001600a60008282540192505081905550604051806101a001604052803373ffffffffffffffffffffffffffffffffffffffff16815260200160006005811115613f3357fe5b815260200186815260200187815260200160008152602001600081526020016000815260200160008152602001600081526020016040518060200160405280600081525081526020018481526020018381526020018281525060036000600a54815260200190815260200160002060008201518160000160006101000a81548173ffffffffffffffffffffffffffffffffffffffff021916908373ffffffffffffffffffffffffffffffffffffffff16021790555060208201518160000160146101000a81548160ff0219169083600581111561400c57fe5b0217905550604082015181600101908051906020019061402d929190615e5b565b50606082015181600201908051906020019061404a929190615e5b565b506080820151816003015560a0820151816004015560c0820151816005015560e08201518160060155610100820151816007015561012082015181600801908051906020019061409b929190615e5b565b506101408201518160090190805190602001906140b9929190615edb565b5061016082015181600a0190805190602001906140d7929190615edb565b5061018082015181600b0190805190602001906140f5929190615edb565b50905050600560003373ffffffffffffffffffffffffffffffffffffffff1673ffffffffffffffffffffffffffffffffffffffff168152602001908152602001600020600201600a5490806001815401808255809150509060018203906000526020600020016000909192909190915055506001600560003373ffffffffffffffffffffffffffffffffffffffff1673ffffffffffffffffffffffffffffffffffffffff16815260200190815260200160002060010160008282540192505081905550505050505050565b3360046000838152602001908152602001600020600001546003600082815260200190815260200160002060000160009054906101000a900473ffffffffffffffffffffffffffffffffffffffff1673ffffffffffffffffffffffffffffffffffffffff168273ffffffffffffffffffffffffffffffffffffffff1614614292576040517f08c379a000000000000000000000000000000000000000000000000000000000815260040180806020018281038252602f81526020018061614d602f913960400191505060405180910390fd5b600460008481526020019081526020016000206000015483600080905060606003600085815260200190815260200160002060090180548060200260200160405190810160405280929190818152602001828054801561431157602002820191906000526020600020905b8154815260200190600101908083116142fd575b5050505050905060008090505b8151811015614358578382828151811061433457fe5b6020026020010151141561434b5760019250614358565b808060010191505061431e565b5060011515821515146143b6576040517f08c379a000000000000000000000000000000000000000000000000000000000815260040180806020018281038252602c8152602001806160d8602c913960400191505060405180910390fd5b60026004600089815260200190815260200160002060020160146101000a81548160ff021916908360058111156143e957fe5b021790555042600860008981526020019081526020016000208190555060036000600460008a8152602001908152602001600020600001548152602001908152602001600020600b0187908060018154018082558091505090600182039060005260206000200160009091929091909150555050505050505050565b6060600360008381526020019081526020016000206009018054806020026020016040519081016040528092919081815260200182805480156144c757602002820191906000526020600020905b8154815260200190600101908083116144b3575b50505050509050919050565b6000600560008373ffffffffffffffffffffffffffffffffffffffff1673ffffffffffffffffffffffffffffffffffffffff168152602001908152602001600020600401549050919050565b6004600086815260200190815260200160002060000154600180600581111561454457fe5b6003600084815260200190815260200160002060000160149054906101000a900460ff16600581111561457357fe5b146145c9576040517f08c379a000000000000000000000000000000000000000000000000000000000815260040180806020018281038252603681526020018061617c6036913960400191505060405180910390fd5b8660008060058111156145d857fe5b6004600084815260200190815260200160002060020160149054906101000a900460ff16600581111561460757fe5b1461465d576040517f08c379a00000000000000000000000000000000000000000000000000000000081526004018080602001828103825260418152602001806160976041913960600191505060405180910390fd5b600460008a815260200190815260200160002060010160009054906101000a900473ffffffffffffffffffffffffffffffffffffffff1673ffffffffffffffffffffffffffffffffffffffff163373ffffffffffffffffffffffffffffffffffffffff1614614717576040517f08c379a000000000000000000000000000000000000000000000000000000000815260040180806020018281038252602d81526020018061627a602d913960400191505060405180910390fd5b87600460008b81526020019081526020016000206003018190555086600460008b81526020019081526020016000206004018190555085600460008b81526020019081526020016000206005018190555084600460008b8152602001908152602001600020600601819055507f6886ac1c5fd5c6b4253471f48b7409e43302ccb84df826e37a1d284175f50c2a896040518082815260200191505060405180910390a1505050505050505050565b6060600360008381526020019081526020016000206002018054600181600116156101000203166002900480601f0160208091040260200160405190810160405280929190818152602001828054600181600116156101000203166002900480156148715780601f1061484657610100808354040283529160200191614871565b820191906000526020600020905b81548152906001019060200180831161485457829003601f168201915b50505050509050919050565b33876003600082815260200190815260200160002060000160009054906101000a900473ffffffffffffffffffffffffffffffffffffffff1673ffffffffffffffffffffffffffffffffffffffff168273ffffffffffffffffffffffffffffffffffffffff1614614939576040517f08c379a000000000000000000000000000000000000000000000000000000000815260040180806020018281038252602f81526020018061614d602f913960400191505060405180910390fd5b88600080600581111561494857fe5b6003600084815260200190815260200160002060000160149054906101000a900460ff16600581111561497757fe5b146149cd576040517f08c379a000000000000000000000000000000000000000000000000000000000815260040180806020018281038252603681526020018061617c6036913960400191505060405180910390fd5b89600360008d81526020019081526020016000206006018190555088600360008d81526020019081526020016000206007018190555087600360008d81526020019081526020016000206008019080519060200190614a2d929190615f28565b5085600360008d81526020019081526020016000206004018190555086600360008d81526020019081526020016000206003018190555084600360008d8152602001908152602001600020600501819055506001600360008d815260200190815260200160002060000160146101000a81548160ff02191690836005811115614ab257fe5b02179055505050505050505050505050565b6000614ae985858585600360008a815260200190815260200160002060030154612a16565b9050949350505050565b60006004600083815260200190815260200160002060020160149054906101000a900460ff169050919050565b3360046000838152602001908152602001600020600001546003600082815260200190815260200160002060000160009054906101000a900473ffffffffffffffffffffffffffffffffffffffff1673ffffffffffffffffffffffffffffffffffffffff168273ffffffffffffffffffffffffffffffffffffffff1614614bf2576040517f08c379a000000000000000000000000000000000000000000000000000000000815260040180806020018281038252602f81526020018061614d602f913960400191505060405180910390fd5b6001600360006004600087815260200190815260200160002060000154815260200190815260200160002060000160146101000a81548160ff02191690836005811115614c3b57fe5b02179055506003600060046000868152602001908152602001600020600001548152602001908152602001600020600a018390806001815401808255809150509060018203906000526020600020016000909192909190915055506060600080905060008090505b6003600060046000898152602001908152602001600020600001548152602001908152602001600020600b0180549050811015614e7f57614d2460036000600460008a8152602001908152602001600020600001548152602001908152602001600020600b018281548110614d1457fe5b9060005260206000200154615d53565b15614e0f576004600060036000600460008b8152602001908152602001600020600001548152602001908152602001600020600b018381548110614d6457fe5b906000526020600020015481526020019081526020016000206000808201600090556001820160006101000a81549073ffffffffffffffffffffffffffffffffffffffff02191690556002820160006101000a81549073ffffffffffffffffffffffffffffffffffffffff02191690556002820160146101000a81549060ff021916905560038201600090556004820160009055600582016000905560068201600090555050614e72565b6003600060046000898152602001908152602001600020600001548152602001908152602001600020600b018181548110614e4657fe5b9060005260206000200154838381518110614e5d57fe5b60200260200101818152505081806001019250505b8080600101915050614ca3565b50816003600060046000898152602001908152602001600020600001548152602001908152602001600020600b019080519060200190614ec0929190615fa8565b5060056004600087815260200190815260200160002060020160146101000a81548160ff02191690836005811115614ef457fe5b021790555060006004600087815260200190815260200160002060010160009054906101000a900473ffffffffffffffffffffffffffffffffffffffff169050600660008273ffffffffffffffffffffffffffffffffffffffff1673ffffffffffffffffffffffffffffffffffffffff16815260200190815260200160002060010160008154809291906001019190505550600660008273ffffffffffffffffffffffffffffffffffffffff1673ffffffffffffffffffffffffffffffffffffffff168152602001908152602001600020600201600081548092919060010191905055506064600660008373ffffffffffffffffffffffffffffffffffffffff1673ffffffffffffffffffffffffffffffffffffffff16815260200190815260200160002060020154600660008473ffffffffffffffffffffffffffffffffffffffff1673ffffffffffffffffffffffffffffffffffffffff168152602001908152602001600020600101548161506757fe5b0402600660008373ffffffffffffffffffffffffffffffffffffffff1673ffffffffffffffffffffffffffffffffffffffff168152602001908152602001600020600301819055506000819050600060036000600460008b81526020019081526020016000206000015481526020019081526020016000206004015490508173ffffffffffffffffffffffffffffffffffffffff166108fc829081150290604051600060405180830381858888f1935050505015801561512b573d6000803e3d6000fd5b506000600460008a815260200190815260200160002060020160009054906101000a900473ffffffffffffffffffffffffffffffffffffffff169050600560008273ffffffffffffffffffffffffffffffffffffffff1673ffffffffffffffffffffffffffffffffffffffff168152602001908152602001600020600301600081548092919060010191905055507fd9188e305dee9c23fa1cc9b07058ae9500862da7079cc5ba9df28045ae2f1d1e600460008b8152602001908152602001600020600001546040518082815260200191505060405180910390a1505050505050505050565b600060096000838152602001908152602001600020600001549050615234615d77565b6004600083815260200190815260200160002060405180610100016040529081600082015481526020016001820160009054906101000a900473ffffffffffffffffffffffffffffffffffffffff1673ffffffffffffffffffffffffffffffffffffffff1673ffffffffffffffffffffffffffffffffffffffff1681526020016002820160009054906101000a900473ffffffffffffffffffffffffffffffffffffffff1673ffffffffffffffffffffffffffffffffffffffff1673ffffffffffffffffffffffffffffffffffffffff1681526020016002820160149054906101000a900460ff16600581111561532757fe5b600581111561533257fe5b815260200160038201548152602001600482015481526020016005820154815260200160068201548152505090506000816040015190506000826020015190508173ffffffffffffffffffffffffffffffffffffffff163373ffffffffffffffffffffffffffffffffffffffff1614806153d757508073ffffffffffffffffffffffffffffffffffffffff163373ffffffffffffffffffffffffffffffffffffffff16145b615449576040517f08c379a000000000000000000000000000000000000000000000000000000000815260040180806020018281038252601b8152602001807f497373756520646f6573206e6f7420696e766f6c766520796f7521000000000081525060200191505060405180910390fd5b60006009600087815260200190815260200160002060040160006101000a81548160ff0219169083600281111561547c57fe5b02179055507ff5ef6b370ee421c47090c9eaa507629f3dddec9d0cab6c09d33cd56e985b5d65856040518082815260200191505060405180910390a17ff8a39b59079e168cebb5099fe7aa8c49a36e0921f6d111b3bc396f145b7105f58360400151604051808273ffffffffffffffffffffffffffffffffffffffff1673ffffffffffffffffffffffffffffffffffffffff16815260200191505060405180910390a17fa772bbeff1bd45191583762ba3038ecc80ea6e160d8de1439d08c03f743c72e28360200151604051808273ffffffffffffffffffffffffffffffffffffffff1673ffffffffffffffffffffffffffffffffffffffff16815260200191505060405180910390a15050505050565b33866003600082815260200190815260200160002060000160009054906101000a900473ffffffffffffffffffffffffffffffffffffffff1673ffffffffffffffffffffffffffffffffffffffff168273ffffffffffffffffffffffffffffffffffffffff1614615649576040517f08c379a000000000000000000000000000000000000000000000000000000000815260040180806020018281038252602f81526020018061614d602f913960400191505060405180910390fd5b87600180600581111561565857fe5b6003600084815260200190815260200160002060000160149054906101000a900460ff16600581111561568757fe5b146156dd576040517f08c379a000000000000000000000000000000000000000000000000000000000815260040180806020018281038252603681526020018061617c6036913960400191505060405180910390fd5b86600360008c81526020019081526020016000206006018190555085600360008c81526020019081526020016000206007018190555084600360008c8152602001908152602001600020600801908051906020019061573d929190615f28565b5087600360008c81526020019081526020016000206004018190555088600360008c81526020019081526020016000206003018190555050505050505050505050565b60006003600083815260200190815260200160002060000160009054906101000a900473ffffffffffffffffffffffffffffffffffffffff169050919050565b600260009054906101000a900473ffffffffffffffffffffffffffffffffffffffff1673ffffffffffffffffffffffffffffffffffffffff163373ffffffffffffffffffffffffffffffffffffffff161461581a57600080fd5b615822615ff5565b600960008381526020019081526020016000206040518060a0016040529081600082015481526020016001820160009054906101000a900473ffffffffffffffffffffffffffffffffffffffff1673ffffffffffffffffffffffffffffffffffffffff1673ffffffffffffffffffffffffffffffffffffffff168152602001600282018054600181600116156101000203166002900480601f0160208091040260200160405190810160405280929190818152602001828054600181600116156101000203166002900480156159395780601f1061590e57610100808354040283529160200191615939565b820191906000526020600020905b81548152906001019060200180831161591c57829003601f168201915b50505050508152602001600382018054600181600116156101000203166002900480601f0160208091040260200160405190810160405280929190818152602001828054600181600116156101000203166002900480156159db5780601f106159b0576101008083540402835291602001916159db565b820191906000526020600020905b8154815290600101906020018083116159be57829003601f168201915b505050505081526020016004820160009054906101000a900460ff166002811115615a0257fe5b6002811115615a0d57fe5b815250509050600281608001906002811115615a2557fe5b90816002811115615a3257fe5b81525050615a3e615d77565b600460008360000151815260200190815260200160002060405180610100016040529081600082015481526020016001820160009054906101000a900473ffffffffffffffffffffffffffffffffffffffff1673ffffffffffffffffffffffffffffffffffffffff1673ffffffffffffffffffffffffffffffffffffffff1681526020016002820160009054906101000a900473ffffffffffffffffffffffffffffffffffffffff1673ffffffffffffffffffffffffffffffffffffffff1673ffffffffffffffffffffffffffffffffffffffff1681526020016002820160149054906101000a900460ff166005811115615b3557fe5b6005811115615b4057fe5b815260200160038201548152602001600482015481526020016005820154815260200160068201548152505090507ff8a39b59079e168cebb5099fe7aa8c49a36e0921f6d111b3bc396f145b7105f58160400151604051808273ffffffffffffffffffffffffffffffffffffffff1673ffffffffffffffffffffffffffffffffffffffff16815260200191505060405180910390a17fa772bbeff1bd45191583762ba3038ecc80ea6e160d8de1439d08c03f743c72e28160200151604051808273ffffffffffffffffffffffffffffffffffffffff1673ffffffffffffffffffffffffffffffffffffffff16815260200191505060405180910390a17fefc3caf2e4b08f41d5380ca4184c2818fc142ad5e07c161416b764d4c23dbf2c836040518082815260200191505060405180910390a1505050565b600060046000838152602001908152602001600020600001549050919050565b60008060009050600073ffffffffffffffffffffffffffffffffffffffff168373ffffffffffffffffffffffffffffffffffffffff1614615cd857600190505b80915050919050565b60006201518060076000848152602001908152602001600020540142119050919050565b60008192506000809050600073ffffffffffffffffffffffffffffffffffffffff168573ffffffffffffffffffffffffffffffffffffffff1614615d4857600190505b809150509392505050565b60006201518060086000848152602001908152602001600020540142119050919050565b60405180610100016040528060008152602001600073ffffffffffffffffffffffffffffffffffffffff168152602001600073ffffffffffffffffffffffffffffffffffffffff16815260200160006005811115615dd157fe5b8152602001600081526020016000815260200160008152602001600081525090565b5080546000825590600052602060002090810190615e119190616045565b50565b604051806101000160405280600015158152602001600081526020016000815260200160008152602001600081526020016000815260200160008152602001606081525090565b828054600181600116156101000203166002900490600052602060002090601f016020900481019282601f10615e9c57805160ff1916838001178555615eca565b82800160010185558215615eca579182015b82811115615ec9578251825591602001919060010190615eae565b5b509050615ed79190616045565b5090565b828054828255906000526020600020908101928215615f17579160200282015b82811115615f16578251825591602001919060010190615efb565b5b509050615f249190616045565b5090565b828054600181600116156101000203166002900490600052602060002090601f016020900481019282601f10615f6957805160ff1916838001178555615f97565b82800160010185558215615f97579182015b82811115615f96578251825591602001919060010190615f7b565b5b509050615fa49190616045565b5090565b828054828255906000526020600020908101928215615fe4579160200282015b82811115615fe3578251825591602001919060010190615fc8565b5b509050615ff19190616045565b5090565b6040518060a0016040528060008152602001600073ffffffffffffffffffffffffffffffffffffffff16815260200160608152602001606081526020016000600281111561603f57fe5b81525090565b61606791905b8082111561606357600081600090555060010161604b565b5090565b9056fe506c65617365207472616e7366657220656e6f7567682045746820746f2070617920666f722072656e74616c54686520737461747573206f6620746869732072656e74616c2072657175657374206973206e6f7420616c6c6f77656420666f722074686973206f7074696f6e2e72656e746572206e6565647320746f206170706c7920746f2072656e74207468697320636172206669727374596f7520617265206e6f7420696e766f6c76656420696e20746869732072656e74616c2e636172206f776e65722068617320616c7265616479206265656e20726567697374657265646f6e6c7920766572696669656420636172206f776e65722063616e20706572666f726d207468697320616374696f6e54686520737461747573206f66207468697320636172206973206e6f7420616c6c6f77656420666f722074686973206f7074696f6e2e4f66666572206e6f7420617070726f7665642079657420627920636172206f776e6572526174696e672068617320746f206265206265747765656e203020616e64203521596f752063616e206f6e6c7920726563616c6c206974206166746572203234682073696e636520796f757220617070726f76616c2e796f75206861766520616c726561647920617070726f76656420666f7220746869732074696d6520706572696f6454686973206f6666657220646f6573206e6f742062656c6f6e6720746f20796f75596f7520617265206e6f7420746865206f776e6572206f6620746869732072656e74616c20726571756573742e6361722072656e7465722068617320616c7265616479206265656e2072656769737465726564a265627a7a7231582070db7676ef27070f9457aa59ec97dfe7b9b0a23ce70d665ccf33729a289d195164736f6c63430005100032",
  "source": "pragma solidity >= 0.5.0; \n\n// try to optimise by using memory storage \n// try to integrate learnings from lecture 9 \n// separate data storage and logic \n// satellite functions \n\ncontract DecentralRent{\n    address _owner = msg.sender;\n    uint256 platformFee;\n    address _support_team;    \n    mapping (uint256 => car) carList; \n    mapping (uint256 => rent) rentList;\n    mapping (address => carOwner) carOwnerInfo; \n    mapping (address => renter) renterList;\n    mapping (uint256 => uint256) offer_dates;\n    mapping (uint256 => uint256) rejection_dates;\n    mapping (uint256 => issue) issueList; \n    uint256 carIdCount = 0;\n    uint256 rentIdCount = 0;\n    uint256 renterIDCount = 0;\n    uint256 issueIDCount = 0;\n\n    constructor(uint256 fee, address supportAddress) public {\n        _support_team = supportAddress;\n        platformFee = fee;\n    }\n\n    enum CarStatus {\n        Registered,\n        Available,\n        Reserved,\n        Received,\n        Unavailable,\n        Abnormal\n    }\n\n    enum RentalStatus {\n        Pending,\n        Approved,\n        Rejected,\n        Cancelled, \n        Ongoing,\n        Completed\n    } \n    //'Ongoing' when renter accept offer\n    //'Cancelled' when owner recall approval/renter reject offer\n\n    enum IssueStatus {\n        Created,\n        Solving,\n        Solved\n    }  \n\n/***************************** STRUCTS ********************************/\n    struct carOwner {\n        bool verified; \n        uint256 carCount;\n        uint256[] carList;\n        uint256 completedRentCount;\n        uint256 rating;\n        uint256 ratingCount;\n    }\n\n    struct car {\n        address owner;\n        CarStatus carStatus;\n        // (available, reserved, received, on_rent, returned, missing)\n        string carPlate; // maybe can be revealed only after the rent has been confirmed;\n        string carModel;\n        uint256 hourlyRentalRate;\n        uint256 deposit;\n        uint256 carCondition; // 1-10\n        uint256 availableStartDate; // in seconds, JS default\n        uint256 availableEndDate;\n        string collectionPoint;\n        uint256[] requestedrentIdList; \n        uint256[] rentHistory;\n        uint256[] rejectedrentIdList;\n    }\n\n    struct rent {\n        uint256 carId;\n        address renter;\n        address carOwner;\n        RentalStatus rentalStatus; // (pending, approved, rejected) \n        uint256 startDate;\n        uint256 endDate;\n        uint256 hourlyRentalRate; // Named offeredRate at submit_rental_requests, updates throughout nego\n        uint256 deposit; // is fixed, no nego.\n    }\n\n    struct renter {\n        bool verified;\n        uint256 completedRentCount;\n        uint256 totalRentCount; \n        uint256 creditScore;\n        uint256 rating;\n        uint256 ratingCount;\n        uint256 currentCar; //Car ID if renting, 0 if not\n        uint256[] rentalRequests; //Rent IDs\n    }\n\n    struct issue {\n        uint256 rentId;\n        address reporter;\n        string details;\n        string contactNumber;\n        IssueStatus issueStatus;\n    }\n\n/***************************** EVENTS ********************************/\n    event Notify_renter(address renter);\n    event Notify_owner(address owner);\n\n    //car owner\n    event CarOwnerRegistered(address carOwner);\n    event OfferRecalled(uint256 rentId);\n    event CarReturned(uint256 carId);\n    event CarUnlisted(uint256 carId);\n    \n    //car renter\n    event RenterRegistered(address renter_address);\n    event RentalRequestedSubmitted(address renter_address, uint256 rentId);\n    event RentRequestUpdated(uint256 rentId);\n    event RentalOfferAccepted(uint256 renterId, uint256 carId);\n    event CarReceived(address renter_address, uint256 carId);\n    event IssueReported(address reporter, uint256 rentId);\n    event IssueResolved(uint256 issueId);\n    event IssueReopened(uint256 issueId);\n\n/***************************** MODIFIERS ********************************/\n    modifier carOwnerOnly(address person, uint256 carId) {\n        // this modifier requires the caller to be the owner of this car\n        require(person == carList[carId].owner, \"only verified car owner can perform this action\");\n        _;\n    }\n\n    modifier verifiedUserOnly(address person) {\n        // this modifier requires to caller to be a verified user of DecentralRent\n        require(carOwnerInfo[person].verified == true, \"car owner is not verified\");\n        _;\n    }\n\n    modifier requestedRenter(uint256 carId, uint256 rentId) {\n        // this modifier requires only when the renter submited a rental request for this car, s/he can be approved or rejected\n        bool requested = false;\n        uint256[] memory requests = carList[carId].requestedrentIdList;\n        for (uint i=0; i<requests.length; i++) {\n            if (requests[i] == rentId) {\n                requested = true;\n                break;\n            }\n        }\n        require(requested == true, \"renter needs to apply to rent this car first\");\n        _;\n    }\n\n    modifier canApprove(uint256 rentId) {\n        // this modifier requires the owner to be able to approve only if he has not approved a rent in the same period\n        bool approve = true;\n        for (uint i=0; i<carList[rentList[rentId].carId].requestedrentIdList.length; i++) {\n           if (rentList[carList[rentList[rentId].carId].requestedrentIdList[i]].rentalStatus == RentalStatus.Approved) {\n                if (rentList[carList[rentList[rentId].carId].requestedrentIdList[i]].startDate >= rentList[rentId].startDate) {\n                    if (rentList[carList[rentList[rentId].carId].requestedrentIdList[i]].startDate <= rentList[rentId].endDate) {\n                        approve = false;\n                    } else if (rentList[carList[rentList[rentId].carId].requestedrentIdList[i]].endDate <= rentList[rentId].endDate) {\n                        approve = false;\n                    }\n                } else {\n                    if (rentList[carList[rentList[rentId].carId].requestedrentIdList[i]].endDate <= rentList[rentId].endDate) {\n                        approve = false;\n                    }\n                }         \n           }     \n        }\n        require(approve == true, \"you have already approved for this time period\");\n        _;\n    }\n\n    modifier rentalInStatus(uint256 rentId, RentalStatus status) {\n        // this modifier requires rental in specific status\n        require(rentList[rentId].rentalStatus == status, \"The status of this rental request is not allowed for this option.\");\n        _;\n    }\n\n    modifier carInStatus(uint256 carId, CarStatus status) {\n        // this modifier requires car in specific status\n        require(carList[carId].carStatus == status, \"The status of this car is not allowed for this option.\");\n        _;\n    }\n\n    function singPassVerify(address person) private pure returns(bool) {\n        // this function simulates the verification through SingPass. \n        // Returns true by default. assuming the person passes real-name identification and driving license check\n        bool singPass = false;\n        if (person != address(0)) {\n            singPass = true;\n        }\n        return singPass;\n    }\n\n    function singPassVerifyCar(address person, string memory carModel, string memory carPlate) private pure returns(bool){\n        // this function simulates the verification of car ownership and model through SingPass. \n        // Returns true by default.\n        carModel = carPlate; // just for warning purpose. To be taken out/editted\n        bool singPassCar = false;\n        if (person != address(0)) {\n            singPassCar = true;\n        }\n        return singPassCar;\n    }\n    \n//car owner \n    // xb\n    function register_car_owner() public {\n        // never use carOwner struct to register?\n        require(carOwnerInfo[msg.sender].verified == false, \"car owner has already been registered\");\n        if(singPassVerify(msg.sender)) {\n            carOwnerInfo[msg.sender].verified = true;\n        }\n\n        emit CarOwnerRegistered(msg.sender);\n\n    }\n\n    function register_car(string memory carModel, string memory carPlate) public verifiedUserOnly(msg.sender) {\n        // require verification of car\n        require(singPassVerifyCar(msg.sender, carModel, carPlate) == true, \"car does not pass verification\"); \n        // create new car struct\n        uint256[] memory requestedrentIdList;\n        uint256[] memory rentHistory;\n        uint256[] memory rejectedList;\n        carIdCount += 1;\n        carList[carIdCount] = car(msg.sender, CarStatus.Registered, carPlate, carModel, 0, 0, 0, 0, 0, \"\", requestedrentIdList, rentHistory, rejectedList);\n        carOwnerInfo[msg.sender].carList.push(carIdCount);\n        carOwnerInfo[msg.sender].carCount += 1;\n    }\n\n\n    // xinyi\n    function list_car_for_rental(uint256 carId, uint256 availableStartDate, uint256 availableEndDate, string memory collectionPoint, uint256 hourlyRentalRate, uint256 deposit, uint256 carCondition) \n        public carOwnerOnly(msg.sender, carId) carInStatus(carId, CarStatus.Registered) {\n\n        // add information to the car struct\n        carList[carId].availableStartDate = availableStartDate;\n        carList[carId].availableEndDate = availableEndDate;\n        carList[carId].collectionPoint = collectionPoint;\n        carList[carId].deposit = deposit;\n        carList[carId].hourlyRentalRate = hourlyRentalRate;\n        carList[carId].carCondition = carCondition;\n        carList[carId].carStatus = CarStatus.Available;\n    }\n\n    function update_listed_car_info(uint256 carId, uint256 hourlyRentalRate, uint256 deposit, uint256 availableStartDate, uint256 availableEndDate, string memory collectionPoint) \n        public carOwnerOnly(msg.sender, carId) carInStatus(carId, CarStatus.Available) {\n        \n        //modify information in the car struct\n        carList[carId].availableStartDate = availableStartDate;\n        carList[carId].availableEndDate= availableEndDate;\n        carList[carId].collectionPoint = collectionPoint;\n        carList[carId].deposit = deposit;\n        carList[carId].hourlyRentalRate = hourlyRentalRate;\n    }\n\n    function approve_rental_request(uint256 rentId) public carOwnerOnly(msg.sender, rentList[rentId].carId) requestedRenter(rentList[rentId].carId, rentId) canApprove(rentId){\n        // change the request status of the rent contract to be approved \n        rentList[rentId].rentalStatus = RentalStatus.Approved;\n        offer_dates[rentId] = block.timestamp;\n\n        // change the request status of the rest of the rent inside the request list to be rejected\n        //for (uint i=0; i<registeredCarList[rentList[rentId].carId].requestedrentIdList.length; i++) {\n        //   if (registeredCarList[rentList[rentId].carId].requestedrentIdList[i] != rentId) {\n        //        rentList[registeredCarList[rentList[rentId].carId].requestedrentIdList[i]].rentalStatus = RentalStatus.Rejected;\n                // delete rentList[registeredCarList[rentList[rentId].carId].requestedrentIdList[i]];\n        //   /}     \n        //}\n    } // delete all id related to this car after the car return \n\n    function reject_rental_request(uint256 rentId) public carOwnerOnly(msg.sender, rentList[rentId].carId) requestedRenter(rentList[rentId].carId, rentId) {\n        rentList[rentId].rentalStatus = RentalStatus.Rejected;\n\n        // record the rejected requests of this car in a list\n        // and record the rejection time\n        // the rejected rent request will be deleted from storage if it's over 24h\n        rejection_dates[rentId] = block.timestamp;\n        carList[rentList[rentId].carId].rejectedrentIdList.push(rentId);\n        // delete rentList[rentId];\n    }\n\n    // yitong\n    function unlist_car(uint256 carId) public carOwnerOnly(msg.sender, carId) carInStatus(carId, CarStatus.Available) {\n        carList[carId].carStatus = CarStatus.Unavailable;\n\n        emit CarUnlisted(carId);\n    }\n\n    function offer_pending_1day(uint256 rentId) internal view returns (bool) {\n        //auto-depre for recall approval\n        return block.timestamp > offer_dates[rentId] + 1 days;\n    }\n\n    function recall_approval(uint256 rentId) public carOwnerOnly(msg.sender, rentList[rentId].carId) rentalInStatus(rentId, RentalStatus.Approved){\n        require(offer_pending_1day(rentId), \"You can only recall it after 24h since your approval.\");\n        //change rent request status and car status\n        carList[rentList[rentId].carId].carStatus = CarStatus.Available;\n        rentList[rentId].rentalStatus = RentalStatus.Cancelled;\n\n        emit OfferRecalled(rentId);\n    }\n\n    function request_rejected_1day(uint256 rentId) internal view returns (bool) {\n        //auto-depre for deletion of rejected rental request\n        return block.timestamp > rejection_dates[rentId] + 1 days;\n    }\n\n    function confirm_car_returned(uint256 rentId) public carOwnerOnly(msg.sender, rentList[rentId].carId) {\n        // change car status to returned\n        carList[rentList[rentId].carId].carStatus = CarStatus.Available;\n        \n        // add rent to car's rentHistory\n        carList[rentList[rentId].carId].rentHistory.push(rentId);\n        \n        // delete those rental request of this car that are rejected over 24h ago\n        uint256[] memory newRejectedRentList;\n        uint256 j = 0; // temporary index for memory array newRejectedRentList\n        for (uint i=0; i<carList[rentList[rentId].carId].rejectedrentIdList.length; i++) {\n            if (request_rejected_1day(carList[rentList[rentId].carId].rejectedrentIdList[i])) {\n                // loop thru the existing rejected rent of this car\n                // delete the corresponding rent struct if it has been rejected over 24h ago\n                delete rentList[carList[rentList[rentId].carId].rejectedrentIdList[i]];\n            } else {\n                // if not over 24h, keep the rent id in the rejection list\n                newRejectedRentList[j] = (carList[rentList[rentId].carId].rejectedrentIdList[i]);\n                j++;\n            }\n        }\n        // update the rejected list, remove those id we've alr deleted\n        carList[rentList[rentId].carId].rejectedrentIdList = newRejectedRentList;\n        \n        // change rent status\n        rentList[rentId].rentalStatus = RentalStatus.Completed;\n        \n        // update renter score \n        address renteradd = rentList[rentId].renter;\n        renterList[renteradd].completedRentCount ++;\n        renterList[renteradd].totalRentCount ++;\n        renterList[renteradd].creditScore = renterList[renteradd].completedRentCount/renterList[renteradd].totalRentCount * 100; //maximum 100 marks\n        \n        // transfer deposit back to renter\n        address payable recipient = address(uint160(renteradd));\n        uint256 dep = carList[rentList[rentId].carId].deposit;\n        recipient.transfer(dep);\n\n        // update car owner completedRentCount also\n        address owneradd = rentList[rentId].carOwner;\n        carOwnerInfo[owneradd].completedRentCount ++;\n\n        emit CarReturned(rentList[rentId].carId);\n    }\n\n    \n/***************************** CAR RENTER ********************************/\n//car renter -> guys \n    function register_car_renter(address renter_address) public {\n        require(singPassVerify(renter_address));\n        require(renterList[renter_address].verified == false, \"car renter has already been registered\");\n        renterList[renter_address].verified = true;\n        // uint256[] memory rentalRequests;\n        // renterList[renter_address] = renter(\n        // renter memory newRenter = renter(\n        //     true,\n        //     0,\n        //     0,\n        //     0,\n        //     0,\n        //     0,\n        //     0,\n        //     rentalRequests\n        // );\n        // renterList[renter_address] = newRenter;\n        emit RenterRegistered(renter_address);\n    }\n\n    // struct renter {\n    //     address renter_address;\n    //     uint256 completedRentCount;\n    //     uint256 totalRentCount; \n    //     uint256 creditScore;\n    //     uint8 rating;\n    //     uint256 ratingCount;\n    //     uint256 currentCar; //Car ID if renting, 0 if not\n    //     uint256[] rentalRequests; //Rent IDs\n    // }\n    \n    // for the renter to quickly make rent request using LISTING PRICE\n    function submit_rental_request(address renter_address , uint256 carId, uint256 startDate,uint256 endDate) public returns (uint256) {\n        return submit_rental_request(renter_address, carId, startDate, endDate, carList[carId].hourlyRentalRate);\n    }\n\n\n    // if renter wants to offer a different price from listing\n    function submit_rental_request(address renter_address , uint256 carId, uint256 startDate,uint256 endDate, uint256 offeredRate) public returns (uint256) {\n        /**\n        car renters can submit multiple rental requests\n\n        rental request must have a way of expiring -> should include the start and end date of\n        car rental, after rental offer accepted, only other requests with overlapping dates should expire\n\n        this logic can be handled in decentralrent smart contract, rental requests can be modelled as a struct\n        */\n        //require(car to be listed)\n        require(renter_address != address(0));\n        renter memory currentRenter = renterList[renter_address]; \n\n        // make a new list of requests to append our new rentId in\n        //uint256[] memory oldRequests = currentRenter.rentalRequests;\n        //uint256 newRequestSize = oldRequests.length + 1;\n        //uint256[] memory newRequests = new uint256[](newRequestSize);\n        //for(uint i = 0; i < oldRequests.length; i++) {\n        //    newRequests[i] = oldRequests[i];   \n        //}\n\n\n\n        // create a new rent ID to put into currentRenter rentalrequests\n        // rentList[newrentId] = currentRenter;\n        // newRequests[prevLength] = newrentId;\n        // currentRenter.rentalRequests = newRequests;\n        \n        uint256 newrentId = ++rentIdCount;\n        // currentRenter.rentalRequests.push(newrentId);\n\n        renterList[renter_address].rentalRequests.push(carId);\n        carList[carId].requestedrentIdList.push(newrentId);\n        \n        // creating our new rent struct and put into rentList\n        rent memory newRentInstance = rent(\n            carId,\n            renter_address,\n            carList[carId].owner,\n            RentalStatus.Pending, // (pending, approved, rejected) \n            startDate,\n            endDate,\n            offeredRate,\n            carList[carId].deposit\n        );\n        rentList[newrentId] = newRentInstance;\n\n        \n        emit RentalRequestedSubmitted(renter_address,newrentId);\n        emit Notify_owner(carList[carId].owner);\n\n        return newrentId;\n    }\n    \n\n    function accept_rental_offer(uint256 rentId) public payable {\n        rent memory rentInstance = rentList[rentId];\n        require(rentInstance.renter == msg.sender, \"This offer does not belong to you\");\n        require(rentInstance.rentalStatus == RentalStatus.Approved, \"Offer not approved yet by car owner\");\n\n        // WE TAKE RENTAL PRICE + DEPOSIT FROM RENTER NOW\n        // NEED FIND A WAY TO CALCULATE TOTAL HOURS ELAPSED\n        // uint256 hoursElapsed = 3; //hardcoded first\n        uint256 hoursElapsed = (rentInstance.endDate - rentInstance.startDate) / (60 * 60); \n        uint256 ethToPay = rentInstance.hourlyRentalRate * hoursElapsed + rentInstance.deposit;\n        require(msg.value >= ethToPay, \"Please transfer enough Eth to pay for rental\");\n\n        rentInstance.rentalStatus = RentalStatus.Ongoing;        \n\n        emit RentalOfferAccepted(rentId, rentInstance.carId);\n        emit Notify_owner(rentInstance.carOwner);\n\n        if (msg.value > ethToPay) {\n            // transfer back remaining Eth\n            // address payable recipient = payable(msg.sender);\n            address payable recipient = address(uint160(msg.sender));\n\n\n            recipient.transfer(msg.value - ethToPay);\n        }\n\n        delete renterList[rentList[rentId].renter].rentalRequests;   //need to check if this works -- work around is each renter can only requests for max three requests at a time, array initialized at fix size of 0,3   \n    }\n\n    function update_rental_request(uint256 rentId, uint256 startDate,uint256 endDate, uint256 offeredRate, uint256 deposit) public carInStatus(rentList[rentId].carId, CarStatus.Available) rentalInStatus(rentId, RentalStatus.Pending) {\n        require(msg.sender == rentList[rentId].renter, \"You are not the owner of this rental request.\");\n        rentList[rentId].startDate = startDate;\n        rentList[rentId].endDate = endDate;\n        rentList[rentId].hourlyRentalRate = offeredRate;\n        rentList[rentId].deposit = deposit;\n\n        emit RentRequestUpdated(rentId);\n    }\n    \n    function confirm_car_received(uint256 rentId) public {\n        require(msg.sender == rentList[rentId].renter, \"You are not the renter!\");\n        address renter_address = msg.sender;\n        // require(renterList[renter_address].renter_address == msg.sender);\n\n        renter memory currentRenter = renterList[renter_address];\n        \n        uint256[] memory rentalRequests;\n        currentRenter.rentalRequests = rentalRequests; //clear all other existing rental requests\n        \n\n        currentRenter.currentCar = rentList[rentId].carId;\n        \n        emit CarReceived(renter_address, rentId);\n        \n        // TRANSFER THE RENTAL PRICE TO OWNER\n        rent memory rentInstance = rentList[rentId];\n        // address payable recipient = payable(rentInstance.carOwner);\n        address payable recipient = address(uint160(rentInstance.carOwner));\n\n        \n        \n        // uint256 hoursElapsed = 3; //hardcoded first\n        uint256 hoursElapsed = rentInstance.endDate - rentInstance.startDate * 60 * 60; \n        uint256 ethToPay = rentInstance.hourlyRentalRate * hoursElapsed;\n        recipient.transfer(ethToPay);\n    }\n    \n/***************************** COMMON FUNCTIONS ********************************/\n    function leaveRating(uint256 rentId, uint256 rating) public rentalInStatus(rentId, RentalStatus.Completed){\n        require(msg.sender == rentList[rentId].renter || msg.sender == rentList[rentId].carOwner, \"You are not involved in this rental.\");\n        require(rating <= 5 && rating >=0, \"Rating has to be between 0 and 5!\");\n        // update the owner / renter struct value \n        if (msg.sender == rentList[rentId].renter) {\n            address rater_address = rentList[rentId].carOwner;\n            carOwnerInfo[rater_address].rating = (carOwnerInfo[rater_address].rating * carOwnerInfo[rater_address].ratingCount + rating)/(carOwnerInfo[rater_address].ratingCount + 1);\n            carOwnerInfo[rater_address].ratingCount++;\n        }\n\n        if (msg.sender == rentList[rentId].carOwner) {\n            address rater_address = rentList[rentId].renter;\n            renterList[rater_address].rating = (renterList[rater_address].rating * renterList[rater_address].ratingCount + rating)/(carOwnerInfo[rater_address].ratingCount + 1);\n            renterList[rater_address].ratingCount++;\n        }\n    } \n\n//support team \n\n    // common for both\n    function report_issues(uint256 rentId, string memory details, string memory contact) public rentalInStatus(rentId, RentalStatus.Ongoing) {\n        //CHECK IF OWNER OR RENTER\n        rent memory currentRent = rentList[rentId];\n        address car_owner = currentRent.carOwner;\n        address car_renter = currentRent.renter;\n\n        require(msg.sender == car_owner || msg.sender == car_renter, \"Issue does not involve you!\");\n\n        issueList[issueIDCount] = issue(rentId, msg.sender, details, contact, IssueStatus.Created);\n        issueIDCount += 1;\n\n        emit IssueReported(msg.sender, rentId);\n        emit Notify_owner(currentRent.carOwner);\n        emit Notify_renter(currentRent.renter); \n    }\n\n    function resolve_issue(uint256 issueId) public {\n        require(msg.sender == _support_team);\n        issue memory issueInstance = issueList[issueId];\n        issueInstance.issueStatus = IssueStatus.Solved;\n\n        rent memory currentRent = rentList[issueInstance.rentId];\n        emit Notify_owner(currentRent.carOwner);\n        emit Notify_renter(currentRent.renter); \n        emit IssueResolved(issueId);\n    }\n\n    function reopen_issue(uint256 issueId) public {\n        // could be renter or owner?\n        uint256 rentId = issueList[issueId].rentId;\n        rent memory currentRent = rentList[rentId];\n        address car_owner = currentRent.carOwner;\n        address car_renter = currentRent.renter;\n\n        require(msg.sender == car_owner || msg.sender == car_renter, \"Issue does not involve you!\");\n\n        issueList[issueId].issueStatus = IssueStatus.Created;\n\n        // events\n        emit IssueReopened(issueId);\n        emit Notify_owner(currentRent.carOwner);\n        emit Notify_renter(currentRent.renter); \n    }\n\n\n\n\n    // getters\n    function get_owner_rating(address userId) public view returns (uint256) {\n        // return carOwnerInfo[owner].cumulativeRating / carOwnerInfo[owner].completedRentCount;\n        return carOwnerInfo[userId].rating;\n    }\n\n    function get_renter_rating(address userId) public view returns (uint256) {\n        // return renterList[renter].cumulativeRating / renterList[renter].completedRentCount;\n        return renterList[userId].rating;\n    }\n\n    function get_car_count(address owner) public view returns(uint256) {\n        return carOwnerInfo[owner].carCount;\n    }\n\n    function get_cars_owned(address owner) public view returns(uint256[] memory) {\n        return carOwnerInfo[owner].carList;\n    }\n\n    function get_car_hourly_rental(uint256 carId) public view returns(uint256) {\n        return carList[carId].hourlyRentalRate;\n    }\n\n    function get_car_model(uint256 carId) public view returns(string memory) {\n        return carList[carId].carModel;\n    }\n\n    function get_car_deposit(uint256 carId) public view returns(uint256) {\n        return carList[carId].deposit;\n    }\n\n    function get_car_owner(uint256 carId) public view returns(address) {\n        return carList[carId].owner;\n    }\n\n    function get_car_available_start_date(uint256 carId) public view returns(uint256) {\n        return carList[carId].availableStartDate;\n    }\n\n    function get_car_available_end_date(uint256 carId) public view returns(uint256 ) {\n        return carList[carId].availableEndDate;\n    }\n\n    function get_car_requested_rent_IDs(uint256 carId) public view returns(uint256[] memory) {\n        return carList[carId].requestedrentIdList;\n    }\n\n    function get_car_collection_point(uint256 carId) public view returns(string memory) {\n        return carList[carId].collectionPoint;\n    }\n\n    function get_car_status(uint256 carId) public view returns(CarStatus) {\n        return carList[carId].carStatus;\n    }\n\n    function get_rent_start_date(uint256 rentId) public view returns(uint256) {\n        return rentList[rentId].startDate;\n    }\n\n    function get_rent_end_date(uint256 rentId) public view returns(uint256) {\n        return rentList[rentId].endDate;\n    }\n\n    function get_rent_price(uint256 rentId) public view returns(uint256) {\n        rent memory rentInstance = rentList[rentId];\n        uint256 hoursElapsed = (rentInstance.endDate - rentInstance.startDate) / (60 * 60); \n        return rentInstance.hourlyRentalRate * hoursElapsed + rentInstance.deposit;\n    }\n\n    function get_rent_carId(uint256 rentId) public view returns(uint256) {\n        return rentList[rentId].carId;\n    }\n\n    function get_rent_renter(uint256 rentId) public view returns(address) {\n        return rentList[rentId].renter;\n    }\n\n    function get_rent_status(uint256 rentId) public view returns(RentalStatus) {\n        return rentList[rentId].rentalStatus;\n    }\n\n    function getEthBalance(address _address) public view returns (uint256) {\n        return _address.balance;\n    }\n    \n\n}",
  "sourcePath": "/Users/edward/Documents/GitHub/4302-Project/contracts/DecentralRent.sol",
  "compiler": {
    "name": "solc",
    "version": "0.5.16+commit.9c3226ce.Emscripten.clang"
  },
  "schemaVersion": "3.4.4",
  "updatedAt": "2022-04-07T11:05:41.424Z",
  "devdoc": {
    "methods": {}
  },
  "userdoc": {
    "methods": {
      "leaveRating(uint256,uint256)": {
        "notice": "*************************** COMMON FUNCTIONS *******************************"
      },
      "register_car_renter(address)": {
        "notice": "*************************** CAR RENTER *******************************"
      }
    }
  }
}