{
  "contractName": "DecentralRent",
  "abi": [
    {
      "inputs": [
        {
          "internalType": "uint256",
          "name": "fee",
          "type": "uint256"
        },
        {
          "internalType": "uint256",
          "name": "percentage",
          "type": "uint256"
        },
        {
          "internalType": "address",
          "name": "supportAddress",
          "type": "address"
        }
      ],
      "payable": false,
      "stateMutability": "nonpayable",
      "type": "constructor"
    },
    {
      "anonymous": false,
      "inputs": [
        {
          "indexed": false,
          "internalType": "uint256",
          "name": "carId",
          "type": "uint256"
        }
      ],
      "name": "CarInfoUpdated",
      "type": "event"
    },
    {
      "anonymous": false,
      "inputs": [
        {
          "indexed": false,
          "internalType": "uint256",
          "name": "carId",
          "type": "uint256"
        }
      ],
      "name": "CarListed",
      "type": "event"
    },
    {
      "anonymous": false,
      "inputs": [
        {
          "indexed": false,
          "internalType": "uint256",
          "name": "rentId",
          "type": "uint256"
        }
      ],
      "name": "CarOwnerNewRating",
      "type": "event"
    },
    {
      "anonymous": false,
      "inputs": [
        {
          "indexed": false,
          "internalType": "address",
          "name": "carOwner",
          "type": "address"
        }
      ],
      "name": "CarOwnerRegistered",
      "type": "event"
    },
    {
      "anonymous": false,
      "inputs": [
        {
          "indexed": false,
          "internalType": "address",
          "name": "renter_address",
          "type": "address"
        },
        {
          "indexed": false,
          "internalType": "uint256",
          "name": "carId",
          "type": "uint256"
        }
      ],
      "name": "CarReceived",
      "type": "event"
    },
    {
      "anonymous": false,
      "inputs": [
        {
          "indexed": false,
          "internalType": "uint256",
          "name": "carId",
          "type": "uint256"
        }
      ],
      "name": "CarRegistered",
      "type": "event"
    },
    {
      "anonymous": false,
      "inputs": [
        {
          "indexed": false,
          "internalType": "uint256",
          "name": "carId",
          "type": "uint256"
        }
      ],
      "name": "CarReturned",
      "type": "event"
    },
    {
      "anonymous": false,
      "inputs": [
        {
          "indexed": false,
          "internalType": "uint256",
          "name": "carId",
          "type": "uint256"
        }
      ],
      "name": "CarUnlisted",
      "type": "event"
    },
    {
      "anonymous": false,
      "inputs": [
        {
          "indexed": false,
          "internalType": "uint256",
          "name": "issueId",
          "type": "uint256"
        }
      ],
      "name": "IssueReopened",
      "type": "event"
    },
    {
      "anonymous": false,
      "inputs": [
        {
          "indexed": false,
          "internalType": "address",
          "name": "reporter",
          "type": "address"
        },
        {
          "indexed": false,
          "internalType": "uint256",
          "name": "rentId",
          "type": "uint256"
        }
      ],
      "name": "IssueReported",
      "type": "event"
    },
    {
      "anonymous": false,
      "inputs": [
        {
          "indexed": false,
          "internalType": "uint256",
          "name": "issueId",
          "type": "uint256"
        }
      ],
      "name": "IssueResolved",
      "type": "event"
    },
    {
      "anonymous": false,
      "inputs": [
        {
          "indexed": false,
          "internalType": "address",
          "name": "owner",
          "type": "address"
        }
      ],
      "name": "Notify_owner",
      "type": "event"
    },
    {
      "anonymous": false,
      "inputs": [
        {
          "indexed": false,
          "internalType": "address",
          "name": "renter",
          "type": "address"
        }
      ],
      "name": "Notify_renter",
      "type": "event"
    },
    {
      "anonymous": false,
      "inputs": [
        {
          "indexed": false,
          "internalType": "uint256",
          "name": "rentId",
          "type": "uint256"
        }
      ],
      "name": "OfferRecalled",
      "type": "event"
    },
    {
      "anonymous": false,
      "inputs": [
        {
          "indexed": false,
          "internalType": "uint256",
          "name": "rentId",
          "type": "uint256"
        }
      ],
      "name": "RentRequestUpdated",
      "type": "event"
    },
    {
      "anonymous": false,
      "inputs": [
        {
          "indexed": false,
          "internalType": "uint256",
          "name": "renterId",
          "type": "uint256"
        },
        {
          "indexed": false,
          "internalType": "uint256",
          "name": "carId",
          "type": "uint256"
        }
      ],
      "name": "RentalOfferAccepted",
      "type": "event"
    },
    {
      "anonymous": false,
      "inputs": [
        {
          "indexed": false,
          "internalType": "uint256",
          "name": "rentId",
          "type": "uint256"
        }
      ],
      "name": "RentalOfferApproved",
      "type": "event"
    },
    {
      "anonymous": false,
      "inputs": [
        {
          "indexed": false,
          "internalType": "uint256",
          "name": "renterId",
          "type": "uint256"
        },
        {
          "indexed": false,
          "internalType": "uint256",
          "name": "carId",
          "type": "uint256"
        }
      ],
      "name": "RentalOfferDeclined",
      "type": "event"
    },
    {
      "anonymous": false,
      "inputs": [
        {
          "indexed": false,
          "internalType": "uint256",
          "name": "rentId",
          "type": "uint256"
        }
      ],
      "name": "RentalRequestRecalled",
      "type": "event"
    },
    {
      "anonymous": false,
      "inputs": [
        {
          "indexed": false,
          "internalType": "uint256",
          "name": "rentId",
          "type": "uint256"
        }
      ],
      "name": "RentalRequestRejected",
      "type": "event"
    },
    {
      "anonymous": false,
      "inputs": [
        {
          "indexed": false,
          "internalType": "address",
          "name": "renter_address",
          "type": "address"
        },
        {
          "indexed": false,
          "internalType": "uint256",
          "name": "rentId",
          "type": "uint256"
        }
      ],
      "name": "RentalRequestedSubmitted",
      "type": "event"
    },
    {
      "anonymous": false,
      "inputs": [
        {
          "indexed": false,
          "internalType": "uint256",
          "name": "rentId",
          "type": "uint256"
        }
      ],
      "name": "RenterNewRating",
      "type": "event"
    },
    {
      "anonymous": false,
      "inputs": [
        {
          "indexed": false,
          "internalType": "address",
          "name": "renter_address",
          "type": "address"
        }
      ],
      "name": "RenterRegistered",
      "type": "event"
    },
    {
      "constant": false,
      "inputs": [],
      "name": "register_car_owner",
      "outputs": [],
      "payable": false,
      "stateMutability": "nonpayable",
      "type": "function"
    },
    {
      "constant": false,
      "inputs": [
        {
          "internalType": "string",
          "name": "carModel",
          "type": "string"
        },
        {
          "internalType": "string",
          "name": "carPlate",
          "type": "string"
        }
      ],
      "name": "register_car",
      "outputs": [],
      "payable": false,
      "stateMutability": "nonpayable",
      "type": "function"
    },
    {
      "constant": false,
      "inputs": [
        {
          "internalType": "uint256",
          "name": "carId",
          "type": "uint256"
        },
        {
          "internalType": "uint256",
          "name": "availableStartDate",
          "type": "uint256"
        },
        {
          "internalType": "uint256",
          "name": "availableEndDate",
          "type": "uint256"
        },
        {
          "internalType": "string",
          "name": "collectionPoint",
          "type": "string"
        },
        {
          "internalType": "uint256",
          "name": "hourlyRentalRate",
          "type": "uint256"
        },
        {
          "internalType": "uint256",
          "name": "deposit",
          "type": "uint256"
        },
        {
          "internalType": "uint256",
          "name": "carCondition",
          "type": "uint256"
        }
      ],
      "name": "list_car_for_rental",
      "outputs": [],
      "payable": false,
      "stateMutability": "nonpayable",
      "type": "function"
    },
    {
      "constant": false,
      "inputs": [
        {
          "internalType": "uint256",
          "name": "carId",
          "type": "uint256"
        },
        {
          "internalType": "uint256",
          "name": "hourlyRentalRate",
          "type": "uint256"
        },
        {
          "internalType": "uint256",
          "name": "deposit",
          "type": "uint256"
        },
        {
          "internalType": "uint256",
          "name": "availableStartDate",
          "type": "uint256"
        },
        {
          "internalType": "uint256",
          "name": "availableEndDate",
          "type": "uint256"
        },
        {
          "internalType": "string",
          "name": "collectionPoint",
          "type": "string"
        }
      ],
      "name": "update_listed_car_info",
      "outputs": [],
      "payable": false,
      "stateMutability": "nonpayable",
      "type": "function"
    },
    {
      "constant": false,
      "inputs": [
        {
          "internalType": "uint256",
          "name": "rentId",
          "type": "uint256"
        }
      ],
      "name": "approve_rental_request",
      "outputs": [],
      "payable": false,
      "stateMutability": "nonpayable",
      "type": "function"
    },
    {
      "constant": false,
      "inputs": [
        {
          "internalType": "uint256",
          "name": "rentId",
          "type": "uint256"
        }
      ],
      "name": "reject_rental_request",
      "outputs": [],
      "payable": false,
      "stateMutability": "nonpayable",
      "type": "function"
    },
    {
      "constant": false,
      "inputs": [
        {
          "internalType": "uint256",
          "name": "carId",
          "type": "uint256"
        }
      ],
      "name": "unlist_car",
      "outputs": [],
      "payable": false,
      "stateMutability": "nonpayable",
      "type": "function"
    },
    {
      "constant": false,
      "inputs": [
        {
          "internalType": "uint256",
          "name": "rentId",
          "type": "uint256"
        }
      ],
      "name": "recall_approval",
      "outputs": [],
      "payable": false,
      "stateMutability": "nonpayable",
      "type": "function"
    },
    {
      "constant": false,
      "inputs": [
        {
          "internalType": "uint256",
          "name": "rentId",
          "type": "uint256"
        }
      ],
      "name": "revert_offer_date_by_1day",
      "outputs": [],
      "payable": false,
      "stateMutability": "nonpayable",
      "type": "function"
    },
    {
      "constant": false,
      "inputs": [
        {
          "internalType": "uint256",
          "name": "rentId",
          "type": "uint256"
        }
      ],
      "name": "confirm_car_returned",
      "outputs": [],
      "payable": true,
      "stateMutability": "payable",
      "type": "function"
    },
    {
      "constant": false,
      "inputs": [],
      "name": "register_car_renter",
      "outputs": [],
      "payable": false,
      "stateMutability": "nonpayable",
      "type": "function"
    },
    {
      "constant": false,
      "inputs": [
        {
          "internalType": "uint256",
          "name": "carId",
          "type": "uint256"
        },
        {
          "internalType": "uint256",
          "name": "startDate",
          "type": "uint256"
        },
        {
          "internalType": "uint256",
          "name": "endDate",
          "type": "uint256"
        }
      ],
      "name": "submit_rental_request_without_offer",
      "outputs": [
        {
          "internalType": "uint256",
          "name": "",
          "type": "uint256"
        }
      ],
      "payable": false,
      "stateMutability": "nonpayable",
      "type": "function"
    },
    {
      "constant": false,
      "inputs": [
        {
          "internalType": "uint256",
          "name": "carId",
          "type": "uint256"
        },
        {
          "internalType": "uint256",
          "name": "startDate",
          "type": "uint256"
        },
        {
          "internalType": "uint256",
          "name": "endDate",
          "type": "uint256"
        },
        {
          "internalType": "uint256",
          "name": "offeredRate",
          "type": "uint256"
        }
      ],
      "name": "submit_rental_request_with_offer",
      "outputs": [
        {
          "internalType": "uint256",
          "name": "",
          "type": "uint256"
        }
      ],
      "payable": false,
      "stateMutability": "nonpayable",
      "type": "function"
    },
    {
      "constant": false,
      "inputs": [
        {
          "internalType": "uint256",
          "name": "rentId",
          "type": "uint256"
        }
      ],
      "name": "recall_rental_request",
      "outputs": [],
      "payable": false,
      "stateMutability": "nonpayable",
      "type": "function"
    },
    {
      "constant": false,
      "inputs": [
        {
          "internalType": "uint256",
          "name": "rentId",
          "type": "uint256"
        }
      ],
      "name": "accept_rental_offer",
      "outputs": [],
      "payable": true,
      "stateMutability": "payable",
      "type": "function"
    },
    {
      "constant": false,
      "inputs": [
        {
          "internalType": "uint256",
          "name": "rentId",
          "type": "uint256"
        }
      ],
      "name": "decline_rental_offer",
      "outputs": [],
      "payable": false,
      "stateMutability": "nonpayable",
      "type": "function"
    },
    {
      "constant": false,
      "inputs": [
        {
          "internalType": "uint256",
          "name": "rentId",
          "type": "uint256"
        },
        {
          "internalType": "uint256",
          "name": "startDate",
          "type": "uint256"
        },
        {
          "internalType": "uint256",
          "name": "endDate",
          "type": "uint256"
        },
        {
          "internalType": "uint256",
          "name": "offeredRate",
          "type": "uint256"
        }
      ],
      "name": "update_rental_request",
      "outputs": [],
      "payable": false,
      "stateMutability": "nonpayable",
      "type": "function"
    },
    {
      "constant": false,
      "inputs": [
        {
          "internalType": "uint256",
          "name": "rentId",
          "type": "uint256"
        }
      ],
      "name": "confirm_car_received",
      "outputs": [],
      "payable": true,
      "stateMutability": "payable",
      "type": "function"
    },
    {
      "constant": false,
      "inputs": [
        {
          "internalType": "uint256",
          "name": "rentId",
          "type": "uint256"
        },
        {
          "internalType": "uint256",
          "name": "carConditionRating",
          "type": "uint256"
        },
        {
          "internalType": "uint256",
          "name": "attitude",
          "type": "uint256"
        },
        {
          "internalType": "uint256",
          "name": "responseSpeed",
          "type": "uint256"
        }
      ],
      "name": "renter_leave_rating",
      "outputs": [],
      "payable": false,
      "stateMutability": "nonpayable",
      "type": "function"
    },
    {
      "constant": false,
      "inputs": [
        {
          "internalType": "uint256",
          "name": "rentId",
          "type": "uint256"
        },
        {
          "internalType": "uint256",
          "name": "attitude",
          "type": "uint256"
        },
        {
          "internalType": "uint256",
          "name": "responseSpeed",
          "type": "uint256"
        }
      ],
      "name": "owner_leave_rating",
      "outputs": [],
      "payable": false,
      "stateMutability": "nonpayable",
      "type": "function"
    },
    {
      "constant": false,
      "inputs": [
        {
          "internalType": "uint256",
          "name": "rentId",
          "type": "uint256"
        },
        {
          "internalType": "string",
          "name": "details",
          "type": "string"
        },
        {
          "internalType": "string",
          "name": "contact",
          "type": "string"
        },
        {
          "internalType": "string",
          "name": "proofImageUrl",
          "type": "string"
        }
      ],
      "name": "report_issue",
      "outputs": [],
      "payable": false,
      "stateMutability": "nonpayable",
      "type": "function"
    },
    {
      "constant": false,
      "inputs": [
        {
          "internalType": "uint256",
          "name": "issueId",
          "type": "uint256"
        },
        {
          "internalType": "uint256",
          "name": "amount",
          "type": "uint256"
        },
        {
          "internalType": "address payable",
          "name": "recipient",
          "type": "address"
        }
      ],
      "name": "support_team_transfer",
      "outputs": [],
      "payable": true,
      "stateMutability": "payable",
      "type": "function"
    },
    {
      "constant": false,
      "inputs": [
        {
          "internalType": "uint256",
          "name": "issueId",
          "type": "uint256"
        },
        {
          "internalType": "uint256",
          "name": "changeInCreditScore",
          "type": "uint256"
        }
      ],
      "name": "resolve_issue",
      "outputs": [],
      "payable": false,
      "stateMutability": "nonpayable",
      "type": "function"
    },
    {
      "constant": true,
      "inputs": [
        {
          "internalType": "uint256",
          "name": "issueId",
          "type": "uint256"
        }
      ],
      "name": "reject_issue",
      "outputs": [],
      "payable": false,
      "stateMutability": "view",
      "type": "function"
    },
    {
      "constant": false,
      "inputs": [
        {
          "internalType": "uint256",
          "name": "issueId",
          "type": "uint256"
        },
        {
          "internalType": "string",
          "name": "updatedDetails",
          "type": "string"
        }
      ],
      "name": "reopen_issue",
      "outputs": [],
      "payable": false,
      "stateMutability": "nonpayable",
      "type": "function"
    },
    {
      "constant": false,
      "inputs": [
        {
          "internalType": "uint256",
          "name": "fee",
          "type": "uint256"
        },
        {
          "internalType": "uint256",
          "name": "commission_percentage",
          "type": "uint256"
        }
      ],
      "name": "update_platform_fee_and_commision_percentage",
      "outputs": [],
      "payable": false,
      "stateMutability": "nonpayable",
      "type": "function"
    },
    {
      "constant": false,
      "inputs": [
        {
          "internalType": "uint256",
          "name": "amount",
          "type": "uint256"
        }
      ],
      "name": "withdraw_profit",
      "outputs": [],
      "payable": true,
      "stateMutability": "payable",
      "type": "function"
    },
    {
      "constant": true,
      "inputs": [],
      "name": "get_current_time",
      "outputs": [
        {
          "internalType": "uint256",
          "name": "",
          "type": "uint256"
        }
      ],
      "payable": false,
      "stateMutability": "view",
      "type": "function"
    },
    {
      "constant": true,
      "inputs": [
        {
          "internalType": "address",
          "name": "user_address",
          "type": "address"
        }
      ],
      "name": "get_owner_car_condition_rating",
      "outputs": [
        {
          "internalType": "uint256",
          "name": "",
          "type": "uint256"
        }
      ],
      "payable": false,
      "stateMutability": "view",
      "type": "function"
    },
    {
      "constant": true,
      "inputs": [
        {
          "internalType": "address",
          "name": "user_address",
          "type": "address"
        }
      ],
      "name": "get_owner_attitude",
      "outputs": [
        {
          "internalType": "uint256",
          "name": "",
          "type": "uint256"
        }
      ],
      "payable": false,
      "stateMutability": "view",
      "type": "function"
    },
    {
      "constant": true,
      "inputs": [
        {
          "internalType": "address",
          "name": "user_address",
          "type": "address"
        }
      ],
      "name": "get_owner_response_speed",
      "outputs": [
        {
          "internalType": "uint256",
          "name": "",
          "type": "uint256"
        }
      ],
      "payable": false,
      "stateMutability": "view",
      "type": "function"
    },
    {
      "constant": true,
      "inputs": [
        {
          "internalType": "address",
          "name": "user_address",
          "type": "address"
        }
      ],
      "name": "get_renter_attitude",
      "outputs": [
        {
          "internalType": "uint256",
          "name": "",
          "type": "uint256"
        }
      ],
      "payable": false,
      "stateMutability": "view",
      "type": "function"
    },
    {
      "constant": true,
      "inputs": [
        {
          "internalType": "address",
          "name": "user_address",
          "type": "address"
        }
      ],
      "name": "get_renter_response_speed",
      "outputs": [
        {
          "internalType": "uint256",
          "name": "",
          "type": "uint256"
        }
      ],
      "payable": false,
      "stateMutability": "view",
      "type": "function"
    },
    {
      "constant": true,
      "inputs": [
        {
          "internalType": "address",
          "name": "user_address",
          "type": "address"
        }
      ],
      "name": "get_owner_credit_score",
      "outputs": [
        {
          "internalType": "uint256",
          "name": "",
          "type": "uint256"
        }
      ],
      "payable": false,
      "stateMutability": "view",
      "type": "function"
    },
    {
      "constant": true,
      "inputs": [
        {
          "internalType": "address",
          "name": "user_address",
          "type": "address"
        }
      ],
      "name": "get_renter_credit_score",
      "outputs": [
        {
          "internalType": "uint256",
          "name": "",
          "type": "uint256"
        }
      ],
      "payable": false,
      "stateMutability": "view",
      "type": "function"
    },
    {
      "constant": true,
      "inputs": [
        {
          "internalType": "address",
          "name": "user_address",
          "type": "address"
        }
      ],
      "name": "get_owner_rating_count",
      "outputs": [
        {
          "internalType": "uint256",
          "name": "",
          "type": "uint256"
        }
      ],
      "payable": false,
      "stateMutability": "view",
      "type": "function"
    },
    {
      "constant": true,
      "inputs": [
        {
          "internalType": "address",
          "name": "user_address",
          "type": "address"
        }
      ],
      "name": "get_renter_rating_count",
      "outputs": [
        {
          "internalType": "uint256",
          "name": "",
          "type": "uint256"
        }
      ],
      "payable": false,
      "stateMutability": "view",
      "type": "function"
    },
    {
      "constant": true,
      "inputs": [
        {
          "internalType": "address",
          "name": "user_address",
          "type": "address"
        }
      ],
      "name": "get_owner_completed_rent_count",
      "outputs": [
        {
          "internalType": "uint256",
          "name": "",
          "type": "uint256"
        }
      ],
      "payable": false,
      "stateMutability": "view",
      "type": "function"
    },
    {
      "constant": true,
      "inputs": [
        {
          "internalType": "address",
          "name": "user_address",
          "type": "address"
        }
      ],
      "name": "get_renter_completed_rent_count",
      "outputs": [
        {
          "internalType": "uint256",
          "name": "",
          "type": "uint256"
        }
      ],
      "payable": false,
      "stateMutability": "view",
      "type": "function"
    },
    {
      "constant": true,
      "inputs": [
        {
          "internalType": "address",
          "name": "owner",
          "type": "address"
        }
      ],
      "name": "get_car_count",
      "outputs": [
        {
          "internalType": "uint256",
          "name": "",
          "type": "uint256"
        }
      ],
      "payable": false,
      "stateMutability": "view",
      "type": "function"
    },
    {
      "constant": true,
      "inputs": [
        {
          "internalType": "address",
          "name": "owner",
          "type": "address"
        }
      ],
      "name": "get_cars_owned",
      "outputs": [
        {
          "internalType": "uint256[]",
          "name": "",
          "type": "uint256[]"
        }
      ],
      "payable": false,
      "stateMutability": "view",
      "type": "function"
    },
    {
      "constant": true,
      "inputs": [
        {
          "internalType": "uint256",
          "name": "carId",
          "type": "uint256"
        }
      ],
      "name": "get_car_hourly_rental",
      "outputs": [
        {
          "internalType": "uint256",
          "name": "",
          "type": "uint256"
        }
      ],
      "payable": false,
      "stateMutability": "view",
      "type": "function"
    },
    {
      "constant": true,
      "inputs": [
        {
          "internalType": "uint256",
          "name": "carId",
          "type": "uint256"
        }
      ],
      "name": "get_car_model",
      "outputs": [
        {
          "internalType": "string",
          "name": "",
          "type": "string"
        }
      ],
      "payable": false,
      "stateMutability": "view",
      "type": "function"
    },
    {
      "constant": true,
      "inputs": [
        {
          "internalType": "uint256",
          "name": "carId",
          "type": "uint256"
        }
      ],
      "name": "get_car_deposit",
      "outputs": [
        {
          "internalType": "uint256",
          "name": "",
          "type": "uint256"
        }
      ],
      "payable": false,
      "stateMutability": "view",
      "type": "function"
    },
    {
      "constant": true,
      "inputs": [
        {
          "internalType": "uint256",
          "name": "carId",
          "type": "uint256"
        }
      ],
      "name": "get_car_owner",
      "outputs": [
        {
          "internalType": "address",
          "name": "",
          "type": "address"
        }
      ],
      "payable": false,
      "stateMutability": "view",
      "type": "function"
    },
    {
      "constant": true,
      "inputs": [
        {
          "internalType": "uint256",
          "name": "carId",
          "type": "uint256"
        }
      ],
      "name": "get_car_available_start_date",
      "outputs": [
        {
          "internalType": "uint256",
          "name": "",
          "type": "uint256"
        }
      ],
      "payable": false,
      "stateMutability": "view",
      "type": "function"
    },
    {
      "constant": true,
      "inputs": [
        {
          "internalType": "uint256",
          "name": "carId",
          "type": "uint256"
        }
      ],
      "name": "get_car_available_end_date",
      "outputs": [
        {
          "internalType": "uint256",
          "name": "",
          "type": "uint256"
        }
      ],
      "payable": false,
      "stateMutability": "view",
      "type": "function"
    },
    {
      "constant": true,
      "inputs": [
        {
          "internalType": "uint256",
          "name": "carId",
          "type": "uint256"
        }
      ],
      "name": "get_car_requested_rent_IDs",
      "outputs": [
        {
          "internalType": "uint256[]",
          "name": "",
          "type": "uint256[]"
        }
      ],
      "payable": false,
      "stateMutability": "view",
      "type": "function"
    },
    {
      "constant": true,
      "inputs": [
        {
          "internalType": "uint256",
          "name": "carId",
          "type": "uint256"
        }
      ],
      "name": "get_car_collection_point",
      "outputs": [
        {
          "internalType": "string",
          "name": "",
          "type": "string"
        }
      ],
      "payable": false,
      "stateMutability": "view",
      "type": "function"
    },
    {
      "constant": true,
      "inputs": [
        {
          "internalType": "uint256",
          "name": "carId",
          "type": "uint256"
        }
      ],
      "name": "get_car_status",
      "outputs": [
        {
          "internalType": "enum DecentralRent.CarStatus",
          "name": "",
          "type": "uint8"
        }
      ],
      "payable": false,
      "stateMutability": "view",
      "type": "function"
    },
    {
      "constant": true,
      "inputs": [
        {
          "internalType": "uint256",
          "name": "carId",
          "type": "uint256"
        }
      ],
      "name": "get_car_status_toString",
      "outputs": [
        {
          "internalType": "string",
          "name": "",
          "type": "string"
        }
      ],
      "payable": false,
      "stateMutability": "view",
      "type": "function"
    },
    {
      "constant": true,
      "inputs": [
        {
          "internalType": "uint256",
          "name": "rentId",
          "type": "uint256"
        }
      ],
      "name": "get_rent_status_toString",
      "outputs": [
        {
          "internalType": "string",
          "name": "",
          "type": "string"
        }
      ],
      "payable": false,
      "stateMutability": "view",
      "type": "function"
    },
    {
      "constant": true,
      "inputs": [
        {
          "internalType": "uint256",
          "name": "rentId",
          "type": "uint256"
        }
      ],
      "name": "get_rent_start_date",
      "outputs": [
        {
          "internalType": "uint256",
          "name": "",
          "type": "uint256"
        }
      ],
      "payable": false,
      "stateMutability": "view",
      "type": "function"
    },
    {
      "constant": true,
      "inputs": [
        {
          "internalType": "uint256",
          "name": "rentId",
          "type": "uint256"
        }
      ],
      "name": "get_rent_end_date",
      "outputs": [
        {
          "internalType": "uint256",
          "name": "",
          "type": "uint256"
        }
      ],
      "payable": false,
      "stateMutability": "view",
      "type": "function"
    },
    {
      "constant": true,
      "inputs": [
        {
          "internalType": "uint256",
          "name": "rentId",
          "type": "uint256"
        }
      ],
      "name": "get_total_rent_price",
      "outputs": [
        {
          "internalType": "uint256",
          "name": "",
          "type": "uint256"
        }
      ],
      "payable": false,
      "stateMutability": "view",
      "type": "function"
    },
    {
      "constant": true,
      "inputs": [
        {
          "internalType": "uint256",
          "name": "rentId",
          "type": "uint256"
        }
      ],
      "name": "get_rent_carId",
      "outputs": [
        {
          "internalType": "uint256",
          "name": "",
          "type": "uint256"
        }
      ],
      "payable": false,
      "stateMutability": "view",
      "type": "function"
    },
    {
      "constant": true,
      "inputs": [
        {
          "internalType": "uint256",
          "name": "rentId",
          "type": "uint256"
        }
      ],
      "name": "get_rent_renter",
      "outputs": [
        {
          "internalType": "address",
          "name": "",
          "type": "address"
        }
      ],
      "payable": false,
      "stateMutability": "view",
      "type": "function"
    },
    {
      "constant": true,
      "inputs": [
        {
          "internalType": "uint256",
          "name": "rentId",
          "type": "uint256"
        }
      ],
      "name": "get_rent_status",
      "outputs": [
        {
          "internalType": "enum DecentralRent.RentalStatus",
          "name": "",
          "type": "uint8"
        }
      ],
      "payable": false,
      "stateMutability": "view",
      "type": "function"
    },
    {
      "constant": true,
      "inputs": [
        {
          "internalType": "uint256",
          "name": "issueId",
          "type": "uint256"
        }
      ],
      "name": "get_issue_details",
      "outputs": [
        {
          "internalType": "string",
          "name": "",
          "type": "string"
        }
      ],
      "payable": false,
      "stateMutability": "view",
      "type": "function"
    },
    {
      "constant": true,
      "inputs": [
        {
          "internalType": "uint256",
          "name": "issueId",
          "type": "uint256"
        }
      ],
      "name": "get_issue_contact",
      "outputs": [
        {
          "internalType": "string",
          "name": "",
          "type": "string"
        }
      ],
      "payable": false,
      "stateMutability": "view",
      "type": "function"
    },
    {
      "constant": true,
      "inputs": [
        {
          "internalType": "uint256",
          "name": "issueId",
          "type": "uint256"
        }
      ],
      "name": "get_issue_image_url",
      "outputs": [
        {
          "internalType": "string",
          "name": "",
          "type": "string"
        }
      ],
      "payable": false,
      "stateMutability": "view",
      "type": "function"
    },
    {
      "constant": true,
      "inputs": [
        {
          "internalType": "uint256",
          "name": "issueId",
          "type": "uint256"
        }
      ],
      "name": "get_issue_reporter",
      "outputs": [
        {
          "internalType": "address",
          "name": "",
          "type": "address"
        }
      ],
      "payable": false,
      "stateMutability": "view",
      "type": "function"
    },
    {
      "constant": true,
      "inputs": [],
      "name": "owner_get_my_issues",
      "outputs": [
        {
          "internalType": "uint256[]",
          "name": "",
          "type": "uint256[]"
        }
      ],
      "payable": false,
      "stateMutability": "view",
      "type": "function"
    },
    {
      "constant": true,
      "inputs": [],
      "name": "renter_get_my_issues",
      "outputs": [
        {
          "internalType": "uint256[]",
          "name": "",
          "type": "uint256[]"
        }
      ],
      "payable": false,
      "stateMutability": "view",
      "type": "function"
    }
  ],
  "bytecode": "0x6080604052336000806101000a81548173ffffffffffffffffffffffffffffffffffffffff021916908373ffffffffffffffffffffffffffffffffffffffff1602179055506000600c556000600d556000600e556000600f553480156200006557600080fd5b5060405162009e2638038062009e26833981810160405260608110156200008b57600080fd5b8101908080519060200190929190805190602001909291908051906020019092919050505080600360006101000a81548173ffffffffffffffffffffffffffffffffffffffff021916908373ffffffffffffffffffffffffffffffffffffffff1602179055508260018190555081600281905550505050619d1480620001126000396000f3fe6080604052600436106103c15760003560e01c8063796d2472116101f25780639ca9617c1161010d578063e656c539116100a0578063efea4b461161006f578063efea4b4614611db9578063f7ffcb0114611eb3578063f8ac7d5514611f2e578063ffa7263b14611f9b576103c1565b8063e656c53914611c5b578063e7031c0914611c89578063e78f1c0014611cee578063efe9374a14611d05576103c1565b8063b9a0c162116100dc578063b9a0c16214611a1b578063cf1211bc14611a46578063d361195d14611afa578063debc7f4914611bfe576103c1565b80639ca9617c146118a95780639e7cc709146118e4578063a2d66c3914611950578063accd83b71461198b576103c1565b80638ff3fe121161018557806394622c051161015457806394622c05146115cc57806394780bcc1461168057806398b744e7146116e5578063990bf1671461174a576103c1565b80638ff3fe12146114b0578063903b7bf71461152b57806391b664f71461157a57806393633b2814611591576103c1565b8063851bd414116101c1578063851bd414146113865780638798b4dd146113c15780638ac284eb146113fc5780638cc3ecb514611461576103c1565b8063796d2472146110d85780637cd580731461111d5780638262e4581461131d57806382e6b3c81461134b576103c1565b8063351dd96d116102e25780635a2abe3f116102755780636d759ad3116102445780636d759ad314610f1f5780636f5236b914610fd3578063745135c01461102c578063749dba5b1461107b576103c1565b80635a2abe3f14610da157806367a9289b14610e065780636c75c87e14610e6b5780636d65c9cd14610ed0576103c1565b806339f0d282116102b157806339f0d28214610baf578063438ea18514610bfe5780634c8d0de714610c6357806350d2345814610d35576103c1565b8063351dd96d146109cc578063360798fa14610a805780633628333314610afb57806336d6548414610b60576103c1565b8063096415621161035a5780631c00454f116103295780631c00454f146108395780631c895f3b146108675780632151b56c146108bf5780633354aa7c14610973576103c1565b8063096415621461073c5780630bdcaa361461076a578063118730e7146107af5780631bcd5fa9146107ea576103c1565b80630486443611610396578063048644361461056957806304bc721e1461060f57806305e848c51461067257806307e9028a146106d7576103c1565b806276b52f146103c6578062de0e271461042b57806303bff5ed146104df578063045d8bf71461052e575b600080fd5b3480156103d257600080fd5b50610415600480360360208110156103e957600080fd5b81019080803573ffffffffffffffffffffffffffffffffffffffff169060200190929190505050611fea565b6040518082815260200191505060405180910390f35b34801561043757600080fd5b506104646004803603602081101561044e57600080fd5b8101908080359060200190929190505050612036565b6040518080602001828103825283818151815260200191508051906020019080838360005b838110156104a4578082015181840152602081019050610489565b50505050905090810190601f1680156104d15780820380516001836020036101000a031916815260200191505b509250505060405180910390f35b3480156104eb57600080fd5b506105186004803603602081101561050257600080fd5b81019080803590602001909291905050506120ee565b6040518082815260200191505060405180910390f35b34801561053a57600080fd5b506105676004803603602081101561055157600080fd5b810190808035906020019092919050505061210e565b005b34801561057557600080fd5b506105b86004803603602081101561058c57600080fd5b81019080803573ffffffffffffffffffffffffffffffffffffffff169060200190929190505050612144565b6040518080602001828103825283818151815260200191508051906020019060200280838360005b838110156105fb5780820151818401526020810190506105e0565b505050509050019250505060405180910390f35b34801561061b57600080fd5b5061065c6004803603606081101561063257600080fd5b810190808035906020019092919080359060200190929190803590602001909291905050506121de565b6040518082815260200191505060405180910390f35b34801561067e57600080fd5b506106c16004803603602081101561069557600080fd5b81019080803573ffffffffffffffffffffffffffffffffffffffff1690602001909291905050506122b9565b6040518082815260200191505060405180910390f35b3480156106e357600080fd5b50610726600480360360208110156106fa57600080fd5b81019080803573ffffffffffffffffffffffffffffffffffffffff169060200190929190505050612305565b6040518082815260200191505060405180910390f35b6107686004803603602081101561075257600080fd5b8101908080359060200190929190505050612351565b005b34801561077657600080fd5b506107ad6004803603604081101561078d57600080fd5b810190808035906020019092919080359060200190929190505050612836565b005b3480156107bb57600080fd5b506107e8600480360360208110156107d257600080fd5b810190808035906020019092919050505061305f565b005b3480156107f657600080fd5b506108236004803603602081101561080d57600080fd5b8101908080359060200190929190505050613224565b6040518082815260200191505060405180910390f35b6108656004803603602081101561084f57600080fd5b8101908080359060200190929190505050613244565b005b6108bd6004803603606081101561087d57600080fd5b810190808035906020019092919080359060200190929190803573ffffffffffffffffffffffffffffffffffffffff16906020019092919050505061376c565b005b3480156108cb57600080fd5b506108f8600480360360208110156108e257600080fd5b8101908080359060200190929190505050613bb5565b6040518080602001828103825283818151815260200191508051906020019080838360005b8381101561093857808201518184015260208101905061091d565b50505050905090810190601f1680156109655780820380516001836020036101000a031916815260200191505b509250505060405180910390f35b34801561097f57600080fd5b506109ca6004803603608081101561099657600080fd5b8101908080359060200190929190803590602001909291908035906020019092919080359060200190929190505050613e13565b005b3480156109d857600080fd5b50610a05600480360360208110156109ef57600080fd5b81019080803590602001909291905050506143d9565b6040518080602001828103825283818151815260200191508051906020019080838360005b83811015610a45578082015181840152602081019050610a2a565b50505050905090810190601f168015610a725780820380516001836020036101000a031916815260200191505b509250505060405180910390f35b348015610a8c57600080fd5b50610ab960048036036020811015610aa357600080fd5b8101908080359060200190929190505050614637565b604051808273ffffffffffffffffffffffffffffffffffffffff1673ffffffffffffffffffffffffffffffffffffffff16815260200191505060405180910390f35b348015610b0757600080fd5b50610b4a60048036036020811015610b1e57600080fd5b81019080803573ffffffffffffffffffffffffffffffffffffffff169060200190929190505050614677565b6040518082815260200191505060405180910390f35b348015610b6c57600080fd5b50610b9960048036036020811015610b8357600080fd5b81019080803590602001909291905050506146c3565b6040518082815260200191505060405180910390f35b348015610bbb57600080fd5b50610be860048036036020811015610bd257600080fd5b81019080803590602001909291905050506146e3565b6040518082815260200191505060405180910390f35b348015610c0a57600080fd5b50610c4d60048036036020811015610c2157600080fd5b81019080803573ffffffffffffffffffffffffffffffffffffffff169060200190929190505050614703565b6040518082815260200191505060405180910390f35b348015610c6f57600080fd5b50610d3360048036036040811015610c8657600080fd5b810190808035906020019092919080359060200190640100000000811115610cad57600080fd5b820183602082011115610cbf57600080fd5b80359060200191846001830284011164010000000083111715610ce157600080fd5b91908080601f016020809104026020016040519081016040528093929190818152602001838380828437600081840152601f19601f82011690508083019250505050505050919291929050505061474f565b005b348015610d4157600080fd5b50610d4a614b5c565b6040518080602001828103825283818151815260200191508051906020019060200280838360005b83811015610d8d578082015181840152602081019050610d72565b505050509050019250505060405180910390f35b348015610dad57600080fd5b50610df060048036036020811015610dc457600080fd5b81019080803573ffffffffffffffffffffffffffffffffffffffff169060200190929190505050614cbf565b6040518082815260200191505060405180910390f35b348015610e1257600080fd5b50610e5560048036036020811015610e2957600080fd5b81019080803573ffffffffffffffffffffffffffffffffffffffff169060200190929190505050614d0b565b6040518082815260200191505060405180910390f35b348015610e7757600080fd5b50610eba60048036036020811015610e8e57600080fd5b81019080803573ffffffffffffffffffffffffffffffffffffffff169060200190929190505050614d57565b6040518082815260200191505060405180910390f35b348015610edc57600080fd5b50610f0960048036036020811015610ef357600080fd5b8101908080359060200190929190505050614da3565b6040518082815260200191505060405180910390f35b348015610f2b57600080fd5b50610f5860048036036020811015610f4257600080fd5b8101908080359060200190929190505050614f03565b6040518080602001828103825283818151815260200191508051906020019080838360005b83811015610f98578082015181840152602081019050610f7d565b50505050905090810190601f168015610fc55780820380516001836020036101000a031916815260200191505b509250505060405180910390f35b348015610fdf57600080fd5b5061102a60048036036080811015610ff657600080fd5b8101908080359060200190929190803590602001909291908035906020019092919080359060200190929190505050614fbb565b005b34801561103857600080fd5b506110656004803603602081101561104f57600080fd5b8101908080359060200190929190505050615245565b6040518082815260200191505060405180910390f35b34801561108757600080fd5b506110b46004803603602081101561109e57600080fd5b8101908080359060200190929190505050615265565b604051808260058111156110c457fe5b60ff16815260200191505060405180910390f35b3480156110e457600080fd5b5061111b600480360360408110156110fb57600080fd5b810190808035906020019092919080359060200190929190505050615292565b005b34801561112957600080fd5b5061131b6004803603608081101561114057600080fd5b81019080803590602001909291908035906020019064010000000081111561116757600080fd5b82018360208201111561117957600080fd5b8035906020019184600183028401116401000000008311171561119b57600080fd5b91908080601f016020809104026020016040519081016040528093929190818152602001838380828437600081840152601f19601f820116905080830192505050505050509192919290803590602001906401000000008111156111fe57600080fd5b82018360208201111561121057600080fd5b8035906020019184600183028401116401000000008311171561123257600080fd5b91908080601f016020809104026020016040519081016040528093929190818152602001838380828437600081840152601f19601f8201169050808301925050505050505091929192908035906020019064010000000081111561129557600080fd5b8201836020820111156112a757600080fd5b803590602001918460018302840111640100000000831117156112c957600080fd5b91908080601f016020809104026020016040519081016040528093929190818152602001838380828437600081840152601f19601f82011690508083019250505050505050919291929050505061534b565b005b6113496004803603602081101561133357600080fd5b810190808035906020019092919050505061599f565b005b34801561135757600080fd5b506113846004803603602081101561136e57600080fd5b8101908080359060200190929190505050615ab7565b005b34801561139257600080fd5b506113bf600480360360208110156113a957600080fd5b8101908080359060200190929190505050615e4f565b005b3480156113cd57600080fd5b506113fa600480360360208110156113e457600080fd5b81019080803590602001909291905050506161ca565b005b34801561140857600080fd5b5061144b6004803603602081101561141f57600080fd5b81019080803573ffffffffffffffffffffffffffffffffffffffff16906020019092919050505061676f565b6040518082815260200191505060405180910390f35b34801561146d57600080fd5b506114ae6004803603606081101561148457600080fd5b810190808035906020019092919080359060200190929190803590602001909291905050506167bb565b005b3480156114bc57600080fd5b506114e9600480360360208110156114d357600080fd5b8101908080359060200190929190505050616c80565b604051808273ffffffffffffffffffffffffffffffffffffffff1673ffffffffffffffffffffffffffffffffffffffff16815260200191505060405180910390f35b34801561153757600080fd5b506115646004803603602081101561154e57600080fd5b8101908080359060200190929190505050616cc0565b6040518082815260200191505060405180910390f35b34801561158657600080fd5b5061158f616ce0565b005b34801561159d57600080fd5b506115ca600480360360208110156115b457600080fd5b8101908080359060200190929190505050616e5b565b005b3480156115d857600080fd5b50611605600480360360208110156115ef57600080fd5b81019080803590602001909291905050506170e3565b6040518080602001828103825283818151815260200191508051906020019080838360005b8381101561164557808201518184015260208101905061162a565b50505050905090810190601f1680156116725780820380516001836020036101000a031916815260200191505b509250505060405180910390f35b34801561168c57600080fd5b506116cf600480360360208110156116a357600080fd5b81019080803573ffffffffffffffffffffffffffffffffffffffff16906020019092919050505061719b565b6040518082815260200191505060405180910390f35b3480156116f157600080fd5b506117346004803603602081101561170857600080fd5b81019080803573ffffffffffffffffffffffffffffffffffffffff1690602001909291905050506171e7565b6040518082815260200191505060405180910390f35b34801561175657600080fd5b506118a76004803603604081101561176d57600080fd5b810190808035906020019064010000000081111561178a57600080fd5b82018360208201111561179c57600080fd5b803590602001918460018302840111640100000000831117156117be57600080fd5b91908080601f016020809104026020016040519081016040528093929190818152602001838380828437600081840152601f19601f8201169050808301925050505050505091929192908035906020019064010000000081111561182157600080fd5b82018360208201111561183357600080fd5b8035906020019184600183028401116401000000008311171561185557600080fd5b91908080601f016020809104026020016040519081016040528093929190818152602001838380828437600081840152601f19601f820116905080830192505050505050509192919290505050617233565b005b3480156118b557600080fd5b506118e2600480360360208110156118cc57600080fd5b8101908080359060200190929190505050617692565b005b3480156118f057600080fd5b506118f9617a2b565b6040518080602001828103825283818151815260200191508051906020019060200280838360005b8381101561193c578082015181840152602081019050611921565b505050509050019250505060405180910390f35b34801561195c57600080fd5b506119896004803603602081101561197357600080fd5b8101908080359060200190929190505050617b8e565b005b34801561199757600080fd5b506119c4600480360360208110156119ae57600080fd5b8101908080359060200190929190505050617e6a565b6040518080602001828103825283818151815260200191508051906020019060200280838360005b83811015611a075780820151818401526020810190506119ec565b505050509050019250505060405180910390f35b348015611a2757600080fd5b50611a30617ed8565b6040518082815260200191505060405180910390f35b348015611a5257600080fd5b50611a7f60048036036020811015611a6957600080fd5b8101908080359060200190929190505050617ee0565b6040518080602001828103825283818151815260200191508051906020019080838360005b83811015611abf578082015181840152602081019050611aa4565b50505050905090810190601f168015611aec5780820380516001836020036101000a031916815260200191505b509250505060405180910390f35b348015611b0657600080fd5b50611bfc600480360360e0811015611b1d57600080fd5b8101908080359060200190929190803590602001909291908035906020019092919080359060200190640100000000811115611b5857600080fd5b820183602082011115611b6a57600080fd5b80359060200191846001830284011164010000000083111715611b8c57600080fd5b91908080601f016020809104026020016040519081016040528093929190818152602001838380828437600081840152601f19601f820116905080830192505050505050509192919290803590602001909291908035906020019092919080359060200190929190505050617f98565b005b348015611c0a57600080fd5b50611c3760048036036020811015611c2157600080fd5b8101908080359060200190929190505050618216565b60405180826005811115611c4757fe5b60ff16815260200191505060405180910390f35b611c8760048036036020811015611c7157600080fd5b8101908080359060200190929190505050618243565b005b348015611c9557600080fd5b50611cd860048036036020811015611cac57600080fd5b81019080803573ffffffffffffffffffffffffffffffffffffffff169060200190929190505050618be1565b6040518082815260200191505060405180910390f35b348015611cfa57600080fd5b50611d03618c2d565b005b348015611d1157600080fd5b50611d3e60048036036020811015611d2857600080fd5b8101908080359060200190929190505050618dab565b6040518080602001828103825283818151815260200191508051906020019080838360005b83811015611d7e578082015181840152602081019050611d63565b50505050905090810190601f168015611dab5780820380516001836020036101000a031916815260200191505b509250505060405180910390f35b348015611dc557600080fd5b50611eb1600480360360c0811015611ddc57600080fd5b81019080803590602001909291908035906020019092919080359060200190929190803590602001909291908035906020019092919080359060200190640100000000811115611e2b57600080fd5b820183602082011115611e3d57600080fd5b80359060200191846001830284011164010000000083111715611e5f57600080fd5b91908080601f016020809104026020016040519081016040528093929190818152602001838380828437600081840152601f19601f820116905080830192505050505050509192919290505050618e63565b005b348015611ebf57600080fd5b50611eec60048036036020811015611ed657600080fd5b810190808035906020019092919050505061908d565b604051808273ffffffffffffffffffffffffffffffffffffffff1673ffffffffffffffffffffffffffffffffffffffff16815260200191505060405180910390f35b348015611f3a57600080fd5b50611f8560048036036080811015611f5157600080fd5b81019080803590602001909291908035906020019092919080359060200190929190803590602001909291905050506190cd565b6040518082815260200191505060405180910390f35b348015611fa757600080fd5b50611fd460048036036020811015611fbe57600080fd5b810190808035906020019092919050505061964d565b6040518082815260200191505060405180910390f35b6000600660008373ffffffffffffffffffffffffffffffffffffffff1673ffffffffffffffffffffffffffffffffffffffff168152602001908152602001600020600601549050919050565b6060600b60008381526020019081526020016000206004018054600181600116156101000203166002900480601f0160208091040260200160405190810160405280929190818152602001828054600181600116156101000203166002900480156120e25780601f106120b7576101008083540402835291602001916120e2565b820191906000526020600020905b8154815290600101906020018083116120c557829003601f168201915b50505050509050919050565b600060046000838152602001908152602001600020600601549050919050565b603c6201518060086000848152602001908152602001600020540303600860008381526020019081526020016000208190555050565b6060600660008373ffffffffffffffffffffffffffffffffffffffff1673ffffffffffffffffffffffffffffffffffffffff1681526020019081526020016000206002018054806020026020016040519081016040528092919081815260200182805480156121d257602002820191906000526020600020905b8154815260200190600101908083116121be575b50505050509050919050565b60003360011515600760008373ffffffffffffffffffffffffffffffffffffffff1673ffffffffffffffffffffffffffffffffffffffff16815260200190815260200160002060000160009054906101000a900460ff1615151461228d576040517f08c379a0000000000000000000000000000000000000000000000000000000008152600401808060200182810382526030815260200180619bd96030913960400191505060405180910390fd5b6122af858585600460008a8152602001908152602001600020600301546190cd565b9150509392505050565b6000600660008373ffffffffffffffffffffffffffffffffffffffff1673ffffffffffffffffffffffffffffffffffffffff168152602001908152602001600020600101549050919050565b6000600660008373ffffffffffffffffffffffffffffffffffffffff1673ffffffffffffffffffffffffffffffffffffffff168152602001908152602001600020600801549050919050565b3360011515600760008373ffffffffffffffffffffffffffffffffffffffff1673ffffffffffffffffffffffffffffffffffffffff16815260200190815260200160002060000160009054906101000a900460ff161515146123fe576040517f08c379a0000000000000000000000000000000000000000000000000000000008152600401808060200182810382526030815260200180619bd96030913960400191505060405180910390fd5b33828173ffffffffffffffffffffffffffffffffffffffff166005600083815260200190815260200160002060010160009054906101000a900473ffffffffffffffffffffffffffffffffffffffff1673ffffffffffffffffffffffffffffffffffffffff16146124ba576040517f08c379a000000000000000000000000000000000000000000000000000000000815260040180806020018281038252602b815260200180619a6a602b913960400191505060405180910390fd5b8360018060058111156124c957fe5b6005600084815260200190815260200160002060020160149054906101000a900460ff1660058111156124f857fe5b1461254e576040517f08c379a00000000000000000000000000000000000000000000000000000000081526004018080602001828103825260418152602001806199be6041913960600191505060405180910390fd5b61255661974c565b6005600088815260200190815260200160002060405180610100016040529081600082015481526020016001820160009054906101000a900473ffffffffffffffffffffffffffffffffffffffff1673ffffffffffffffffffffffffffffffffffffffff1673ffffffffffffffffffffffffffffffffffffffff1681526020016002820160009054906101000a900473ffffffffffffffffffffffffffffffffffffffff1673ffffffffffffffffffffffffffffffffffffffff1673ffffffffffffffffffffffffffffffffffffffff1681526020016002820160149054906101000a900460ff16600581111561264957fe5b600581111561265457fe5b815260200160038201548152602001600482015481526020016005820154815260200160068201548152505090506000610e1082608001518360a00151038161269957fe5b04905060008260e00151828460c001510201905080341015612706576040517f08c379a000000000000000000000000000000000000000000000000000000000815260040180806020018281038252602c815260200180619992602c913960400191505060405180910390fd5b60048360600190600581111561271857fe5b9081600581111561272557fe5b815250507fea1598499a6b74f4ea534d2b8891b00ad6306e8dc6d54c6a346ccc639426f19c898460000151604051808381526020018281526020019250505060405180910390a17ff8a39b59079e168cebb5099fe7aa8c49a36e0921f6d111b3bc396f145b7105f58360400151604051808273ffffffffffffffffffffffffffffffffffffffff1673ffffffffffffffffffffffffffffffffffffffff16815260200191505060405180910390a18034111561282b5760003390508073ffffffffffffffffffffffffffffffffffffffff166108fc8334039081150290604051600060405180830381858888f19350505050158015612828573d6000803e3d6000fd5b50505b505050505050505050565b33600360009054906101000a900473ffffffffffffffffffffffffffffffffffffffff1673ffffffffffffffffffffffffffffffffffffffff168173ffffffffffffffffffffffffffffffffffffffff16146128dd576040517f08c379a000000000000000000000000000000000000000000000000000000000815260040180806020018281038252602b815260200180619a95602b913960400191505060405180910390fd5b600160038111156128ea57fe5b600b600085815260200190815260200160002060050160009054906101000a900460ff16600381111561291957fe5b148061295e57506000600381111561292d57fe5b600b600085815260200190815260200160002060050160009054906101000a900460ff16600381111561295c57fe5b145b6129b3576040517f08c379a0000000000000000000000000000000000000000000000000000000008152600401808060200182810382526038815260200180619ba16038913960400191505060405180910390fd5b6129bb6197c8565b600b60008581526020019081526020016000206040518060c0016040529081600082015481526020016001820160009054906101000a900473ffffffffffffffffffffffffffffffffffffffff1673ffffffffffffffffffffffffffffffffffffffff1673ffffffffffffffffffffffffffffffffffffffff168152602001600282018054600181600116156101000203166002900480601f016020809104026020016040519081016040528092919081815260200182805460018160011615610100020316600290048015612ad25780601f10612aa757610100808354040283529160200191612ad2565b820191906000526020600020905b815481529060010190602001808311612ab557829003601f168201915b50505050508152602001600382018054600181600116156101000203166002900480601f016020809104026020016040519081016040528092919081815260200182805460018160011615610100020316600290048015612b745780601f10612b4957610100808354040283529160200191612b74565b820191906000526020600020905b815481529060010190602001808311612b5757829003601f168201915b50505050508152602001600482018054600181600116156101000203166002900480601f016020809104026020016040519081016040528092919081815260200182805460018160011615610100020316600290048015612c165780601f10612beb57610100808354040283529160200191612c16565b820191906000526020600020905b815481529060010190602001808311612bf957829003601f168201915b505050505081526020016005820160009054906101000a900460ff166003811115612c3d57fe5b6003811115612c4857fe5b81525050905060028160a001906003811115612c6057fe5b90816003811115612c6d57fe5b81525050612c7961974c565b600560008360000151815260200190815260200160002060405180610100016040529081600082015481526020016001820160009054906101000a900473ffffffffffffffffffffffffffffffffffffffff1673ffffffffffffffffffffffffffffffffffffffff1673ffffffffffffffffffffffffffffffffffffffff1681526020016002820160009054906101000a900473ffffffffffffffffffffffffffffffffffffffff1673ffffffffffffffffffffffffffffffffffffffff1673ffffffffffffffffffffffffffffffffffffffff1681526020016002820160149054906101000a900460ff166005811115612d7057fe5b6005811115612d7b57fe5b8152602001600382015481526020016004820154815260200160058201548152602001600682015481525050905060008160400151905060008260200151905060008460200151905042600a60008a8152602001908152602001600020819055508273ffffffffffffffffffffffffffffffffffffffff168173ffffffffffffffffffffffffffffffffffffffff161415612eb257600087600760008573ffffffffffffffffffffffffffffffffffffffff1673ffffffffffffffffffffffffffffffffffffffff168152602001908152602001600020600301540310612ead5786600760008473ffffffffffffffffffffffffffffffffffffffff1673ffffffffffffffffffffffffffffffffffffffff168152602001908152602001600020600301600082825403925050819055505b612f50565b600087600660008673ffffffffffffffffffffffffffffffffffffffff1673ffffffffffffffffffffffffffffffffffffffff168152602001908152602001600020600801540310612f4f5786600660008573ffffffffffffffffffffffffffffffffffffffff1673ffffffffffffffffffffffffffffffffffffffff168152602001908152602001600020600801600082825403925050819055505b5b7ff8a39b59079e168cebb5099fe7aa8c49a36e0921f6d111b3bc396f145b7105f58460400151604051808273ffffffffffffffffffffffffffffffffffffffff1673ffffffffffffffffffffffffffffffffffffffff16815260200191505060405180910390a17fa772bbeff1bd45191583762ba3038ecc80ea6e160d8de1439d08c03f743c72e28460200151604051808273ffffffffffffffffffffffffffffffffffffffff1673ffffffffffffffffffffffffffffffffffffffff16815260200191505060405180910390a17fefc3caf2e4b08f41d5380ca4184c2818fc142ad5e07c161416b764d4c23dbf2c886040518082815260200191505060405180910390a15050505050505050565b33816004600082815260200190815260200160002060000160009054906101000a900473ffffffffffffffffffffffffffffffffffffffff1673ffffffffffffffffffffffffffffffffffffffff168273ffffffffffffffffffffffffffffffffffffffff161461311b576040517f08c379a000000000000000000000000000000000000000000000000000000000815260040180806020018281038252602f815260200180619b3c602f913960400191505060405180910390fd5b82600180600581111561312a57fe5b6004600084815260200190815260200160002060000160149054906101000a900460ff16600581111561315957fe5b146131af576040517f08c379a0000000000000000000000000000000000000000000000000000000008152600401808060200182810382526036815260200180619b6b6036913960400191505060405180910390fd5b600480600087815260200190815260200160002060000160146101000a81548160ff021916908360058111156131e157fe5b02179055507fd9634177085743dc78f994ddbeb3ef9f0b4ec65efc3a50600f0e758dbf8819b4856040518082815260200191505060405180910390a15050505050565b600060056000838152602001908152602001600020600401549050919050565b80600180600581111561325357fe5b6005600084815260200190815260200160002060020160149054906101000a900460ff16600581111561328257fe5b146132d8576040517f08c379a00000000000000000000000000000000000000000000000000000000081526004018080602001828103825260418152602001806199be6041913960600191505060405180910390fd5b33838173ffffffffffffffffffffffffffffffffffffffff166005600083815260200190815260200160002060010160009054906101000a900473ffffffffffffffffffffffffffffffffffffffff1673ffffffffffffffffffffffffffffffffffffffff1614613394576040517f08c379a000000000000000000000000000000000000000000000000000000000815260040180806020018281038252602b815260200180619a6a602b913960400191505060405180910390fd5b600560008681526020019081526020016000206000015460018060058111156133b957fe5b6004600084815260200190815260200160002060000160149054906101000a900460ff1660058111156133e857fe5b1461343e576040517f08c379a0000000000000000000000000000000000000000000000000000000008152600401808060200182810382526036815260200180619b6b6036913960400191505060405180910390fd5b600760003373ffffffffffffffffffffffffffffffffffffffff1673ffffffffffffffffffffffffffffffffffffffff1681526020019081526020016000206007016005600089815260200190815260200160002060000154908060018154018082558091505090600182039060005260206000200160009091929091909150555060046005600089815260200190815260200160002060020160146101000a81548160ff021916908360058111156134f357fe5b0217905550600360046000600560008b815260200190815260200160002060000154815260200190815260200160002060000160146101000a81548160ff0219169083600581111561354157fe5b02179055507fce871e0c96fe88b0cc51e78098e3ee4a655b0b6792af19f8cb8486ad743b5d7a3388604051808373ffffffffffffffffffffffffffffffffffffffff1673ffffffffffffffffffffffffffffffffffffffff1681526020018281526020019250505060405180910390a16135b961974c565b6005600089815260200190815260200160002060405180610100016040529081600082015481526020016001820160009054906101000a900473ffffffffffffffffffffffffffffffffffffffff1673ffffffffffffffffffffffffffffffffffffffff1673ffffffffffffffffffffffffffffffffffffffff1681526020016002820160009054906101000a900473ffffffffffffffffffffffffffffffffffffffff1673ffffffffffffffffffffffffffffffffffffffff1673ffffffffffffffffffffffffffffffffffffffff1681526020016002820160149054906101000a900460ff1660058111156136ac57fe5b60058111156136b757fe5b81526020016003820154815260200160048201548152602001600582015481526020016006820154815250509050600081604001519050600060646002546136fe8c614da3565b028161370657fe5b0490506000816137158c614da3565b0390508273ffffffffffffffffffffffffffffffffffffffff166108fc829081150290604051600060405180830381858888f1935050505015801561375e573d6000803e3d6000fd5b505050505050505050505050565b33600360009054906101000a900473ffffffffffffffffffffffffffffffffffffffff1673ffffffffffffffffffffffffffffffffffffffff168173ffffffffffffffffffffffffffffffffffffffff1614613813576040517f08c379a000000000000000000000000000000000000000000000000000000000815260040180806020018281038252602b815260200180619a95602b913960400191505060405180910390fd5b83600080600381111561382257fe5b600b600084815260200190815260200160002060050160009054906101000a900460ff16600381111561385157fe5b146138a7576040517f08c379a0000000000000000000000000000000000000000000000000000000008152600401808060200182810382526038815260200180619ba16038913960400191505060405180910390fd5b6138af6197c8565b600b60008881526020019081526020016000206040518060c0016040529081600082015481526020016001820160009054906101000a900473ffffffffffffffffffffffffffffffffffffffff1673ffffffffffffffffffffffffffffffffffffffff1673ffffffffffffffffffffffffffffffffffffffff168152602001600282018054600181600116156101000203166002900480601f0160208091040260200160405190810160405280929190818152602001828054600181600116156101000203166002900480156139c65780601f1061399b576101008083540402835291602001916139c6565b820191906000526020600020905b8154815290600101906020018083116139a957829003601f168201915b50505050508152602001600382018054600181600116156101000203166002900480601f016020809104026020016040519081016040528092919081815260200182805460018160011615610100020316600290048015613a685780601f10613a3d57610100808354040283529160200191613a68565b820191906000526020600020905b815481529060010190602001808311613a4b57829003601f168201915b50505050508152602001600482018054600181600116156101000203166002900480601f016020809104026020016040519081016040528092919081815260200182805460018160011615610100020316600290048015613b0a5780601f10613adf57610100808354040283529160200191613b0a565b820191906000526020600020905b815481529060010190602001808311613aed57829003601f168201915b505050505081526020016005820160009054906101000a900460ff166003811115613b3157fe5b6003811115613b3c57fe5b81525050905060018160a001906003811115613b5457fe5b90816003811115613b6157fe5b815250508473ffffffffffffffffffffffffffffffffffffffff166108fc879081150290604051600060405180830381858888f19350505050158015613bab573d6000803e3d6000fd5b5050505050505050565b606060006005600084815260200190815260200160002060020160149054906101000a900460ff16905060006005811115613bec57fe5b816005811115613bf857fe5b1415613c3c576040518060400160405280600781526020017f50656e64696e6700000000000000000000000000000000000000000000000000815250915050613e0e565b60016005811115613c4957fe5b816005811115613c5557fe5b1415613c99576040518060400160405280600881526020017f417070726f766564000000000000000000000000000000000000000000000000815250915050613e0e565b60026005811115613ca657fe5b816005811115613cb257fe5b1415613cf6576040518060400160405280600881526020017f52656a6563746564000000000000000000000000000000000000000000000000815250915050613e0e565b60036005811115613d0357fe5b816005811115613d0f57fe5b1415613d53576040518060400160405280600981526020017f43616e63656c6c65640000000000000000000000000000000000000000000000815250915050613e0e565b60046005811115613d6057fe5b816005811115613d6c57fe5b1415613db0576040518060400160405280600781526020017f4f6e676f696e6700000000000000000000000000000000000000000000000000815250915050613e0e565b600580811115613dbc57fe5b816005811115613dc857fe5b1415613e0c576040518060400160405280600981526020017f436f6d706c657465640000000000000000000000000000000000000000000000815250915050613e0e565b505b919050565b836005806005811115613e2257fe5b6005600084815260200190815260200160002060020160149054906101000a900460ff166005811115613e5157fe5b14613ea7576040517f08c379a00000000000000000000000000000000000000000000000000000000081526004018080602001828103825260418152602001806199be6041913960600191505060405180910390fd5b6005600087815260200190815260200160002060010160009054906101000a900473ffffffffffffffffffffffffffffffffffffffff1673ffffffffffffffffffffffffffffffffffffffff163373ffffffffffffffffffffffffffffffffffffffff1614613f61576040517f08c379a0000000000000000000000000000000000000000000000000000000008152600401808060200182810382526024815260200180619ac06024913960400191505060405180910390fd5b60058511158015613f73575060008510155b613fc8576040517f08c379a0000000000000000000000000000000000000000000000000000000008152600401808060200182810382526021815260200180619c096021913960400191505060405180910390fd5b60058411158015613fda575060008410155b61402f576040517f08c379a0000000000000000000000000000000000000000000000000000000008152600401808060200182810382526021815260200180619c096021913960400191505060405180910390fd5b60058311158015614041575060008310155b614096576040517f08c379a0000000000000000000000000000000000000000000000000000000008152600401808060200182810382526021815260200180619c096021913960400191505060405180910390fd5b60006005600088815260200190815260200160002060020160009054906101000a900473ffffffffffffffffffffffffffffffffffffffff1690506000600660008373ffffffffffffffffffffffffffffffffffffffff1673ffffffffffffffffffffffffffffffffffffffff168152602001908152602001600020600701549050600181018782600660008673ffffffffffffffffffffffffffffffffffffffff1673ffffffffffffffffffffffffffffffffffffffff1681526020019081526020016000206004015402018161416a57fe5b04600660008473ffffffffffffffffffffffffffffffffffffffff1673ffffffffffffffffffffffffffffffffffffffff16815260200190815260200160002060040181905550600181018682600660008673ffffffffffffffffffffffffffffffffffffffff1673ffffffffffffffffffffffffffffffffffffffff1681526020019081526020016000206005015402018161420357fe5b04600660008473ffffffffffffffffffffffffffffffffffffffff1673ffffffffffffffffffffffffffffffffffffffff16815260200190815260200160002060050181905550600181018582600660008673ffffffffffffffffffffffffffffffffffffffff1673ffffffffffffffffffffffffffffffffffffffff1681526020019081526020016000206006015402018161429c57fe5b04600660008473ffffffffffffffffffffffffffffffffffffffff1673ffffffffffffffffffffffffffffffffffffffff16815260200190815260200160002060060181905550600660008373ffffffffffffffffffffffffffffffffffffffff1673ffffffffffffffffffffffffffffffffffffffff168152602001908152602001600020600701600081548092919060010191905055507ff8a39b59079e168cebb5099fe7aa8c49a36e0921f6d111b3bc396f145b7105f582604051808273ffffffffffffffffffffffffffffffffffffffff1673ffffffffffffffffffffffffffffffffffffffff16815260200191505060405180910390a17fd2d058b7baf511516517a523ced87e30ea99561e3424c3de9eaa1f443ac3fad7886040518082815260200191505060405180910390a15050505050505050565b606060006004600084815260200190815260200160002060000160149054906101000a900460ff1690506000600581111561441057fe5b81600581111561441c57fe5b1415614460576040518060400160405280600a81526020017f5265676973746572656400000000000000000000000000000000000000000000815250915050614632565b6001600581111561446d57fe5b81600581111561447957fe5b14156144bd576040518060400160405280600981526020017f417661696c61626c650000000000000000000000000000000000000000000000815250915050614632565b600260058111156144ca57fe5b8160058111156144d657fe5b141561451a576040518060400160405280600881526020017f5265736572766564000000000000000000000000000000000000000000000000815250915050614632565b6003600581111561452757fe5b81600581111561453357fe5b1415614577576040518060400160405280600881526020017f5265636569766564000000000000000000000000000000000000000000000000815250915050614632565b6004600581111561458457fe5b81600581111561459057fe5b14156145d4576040518060400160405280600b81526020017f556e617661696c61626c65000000000000000000000000000000000000000000815250915050614632565b6005808111156145e057fe5b8160058111156145ec57fe5b1415614630576040518060400160405280600881526020017f41626e6f726d616c000000000000000000000000000000000000000000000000815250915050614632565b505b919050565b60006005600083815260200190815260200160002060010160009054906101000a900473ffffffffffffffffffffffffffffffffffffffff169050919050565b6000600660008373ffffffffffffffffffffffffffffffffffffffff1673ffffffffffffffffffffffffffffffffffffffff168152602001908152602001600020600501549050919050565b600060046000838152602001908152602001600020600401549050919050565b600060046000838152602001908152602001600020600701549050919050565b6000600760008373ffffffffffffffffffffffffffffffffffffffff1673ffffffffffffffffffffffffffffffffffffffff168152602001908152602001600020600301549050919050565b6001151561475c8361966d565b1515146147b4576040517f08c379a000000000000000000000000000000000000000000000000000000000815260040180806020018281038252603f815260200180619a2b603f913960400191505060405180910390fd5b6000600b60008481526020019081526020016000206000015490506147d761974c565b6005600083815260200190815260200160002060405180610100016040529081600082015481526020016001820160009054906101000a900473ffffffffffffffffffffffffffffffffffffffff1673ffffffffffffffffffffffffffffffffffffffff1673ffffffffffffffffffffffffffffffffffffffff1681526020016002820160009054906101000a900473ffffffffffffffffffffffffffffffffffffffff1673ffffffffffffffffffffffffffffffffffffffff1673ffffffffffffffffffffffffffffffffffffffff1681526020016002820160149054906101000a900460ff1660058111156148ca57fe5b60058111156148d557fe5b815260200160038201548152602001600482015481526020016005820154815260200160068201548152505090506000816040015190506000826020015190508173ffffffffffffffffffffffffffffffffffffffff163373ffffffffffffffffffffffffffffffffffffffff16148061497a57508073ffffffffffffffffffffffffffffffffffffffff163373ffffffffffffffffffffffffffffffffffffffff16145b6149ec576040517f08c379a000000000000000000000000000000000000000000000000000000000815260040180806020018281038252601b8152602001807f497373756520646f6573206e6f7420696e766f6c766520796f7521000000000081525060200191505060405180910390fd5b6000600b600088815260200190815260200160002060050160006101000a81548160ff02191690836003811115614a1f57fe5b021790555084600b60008881526020019081526020016000206002019080519060200190614a4e92919061981f565b507ff5ef6b370ee421c47090c9eaa507629f3dddec9d0cab6c09d33cd56e985b5d65866040518082815260200191505060405180910390a17ff8a39b59079e168cebb5099fe7aa8c49a36e0921f6d111b3bc396f145b7105f58360400151604051808273ffffffffffffffffffffffffffffffffffffffff1673ffffffffffffffffffffffffffffffffffffffff16815260200191505060405180910390a17fa772bbeff1bd45191583762ba3038ecc80ea6e160d8de1439d08c03f743c72e28360200151604051808273ffffffffffffffffffffffffffffffffffffffff1673ffffffffffffffffffffffffffffffffffffffff16815260200191505060405180910390a1505050505050565b60603360011515600760008373ffffffffffffffffffffffffffffffffffffffff1673ffffffffffffffffffffffffffffffffffffffff16815260200190815260200160002060000160009054906101000a900460ff16151514614c28576040517f08c379a000000000000000000000000000000000000000000000000000000000815260040180806020018281038252601a8152602001807f6361722072656e746572206973206e6f7420766572696669656400000000000081525060200191505060405180910390fd5b600760003373ffffffffffffffffffffffffffffffffffffffff1673ffffffffffffffffffffffffffffffffffffffff168152602001908152602001600020600901805480602002602001604051908101604052809291908181526020018280548015614cb457602002820191906000526020600020905b815481526020019060010190808311614ca0575b505050505091505090565b6000600660008373ffffffffffffffffffffffffffffffffffffffff1673ffffffffffffffffffffffffffffffffffffffff168152602001908152602001600020600301549050919050565b6000600660008373ffffffffffffffffffffffffffffffffffffffff1673ffffffffffffffffffffffffffffffffffffffff168152602001908152602001600020600701549050919050565b6000600760008373ffffffffffffffffffffffffffffffffffffffff1673ffffffffffffffffffffffffffffffffffffffff168152602001908152602001600020600601549050919050565b6000614dad61974c565b6005600084815260200190815260200160002060405180610100016040529081600082015481526020016001820160009054906101000a900473ffffffffffffffffffffffffffffffffffffffff1673ffffffffffffffffffffffffffffffffffffffff1673ffffffffffffffffffffffffffffffffffffffff1681526020016002820160009054906101000a900473ffffffffffffffffffffffffffffffffffffffff1673ffffffffffffffffffffffffffffffffffffffff1673ffffffffffffffffffffffffffffffffffffffff1681526020016002820160149054906101000a900460ff166005811115614ea057fe5b6005811115614eab57fe5b815260200160038201548152602001600482015481526020016005820154815260200160068201548152505090506000610e1082608001518360a001510381614ef057fe5b049050808260c001510292505050919050565b6060600460008381526020019081526020016000206008018054600181600116156101000203166002900480601f016020809104026020016040519081016040528092919081815260200182805460018160011615610100020316600290048015614faf5780601f10614f8457610100808354040283529160200191614faf565b820191906000526020600020905b815481529060010190602001808311614f9257829003601f168201915b50505050509050919050565b60056000858152602001908152602001600020600001546001806005811115614fe057fe5b6004600084815260200190815260200160002060000160149054906101000a900460ff16600581111561500f57fe5b14615065576040517f08c379a0000000000000000000000000000000000000000000000000000000008152600401808060200182810382526036815260200180619b6b6036913960400191505060405180910390fd5b85600080600581111561507457fe5b6005600084815260200190815260200160002060020160149054906101000a900460ff1660058111156150a357fe5b146150f9576040517f08c379a00000000000000000000000000000000000000000000000000000000081526004018080602001828103825260418152602001806199be6041913960600191505060405180910390fd5b6005600089815260200190815260200160002060010160009054906101000a900473ffffffffffffffffffffffffffffffffffffffff1673ffffffffffffffffffffffffffffffffffffffff163373ffffffffffffffffffffffffffffffffffffffff16146151b3576040517f08c379a000000000000000000000000000000000000000000000000000000000815260040180806020018281038252602d815260200180619c8d602d913960400191505060405180910390fd5b86600560008a81526020019081526020016000206003018190555085600560008a81526020019081526020016000206004018190555084600560008a8152602001908152602001600020600501819055507f6886ac1c5fd5c6b4253471f48b7409e43302ccb84df826e37a1d284175f50c2a886040518082815260200191505060405180910390a15050505050505050565b600060056000838152602001908152602001600020600301549050919050565b60006004600083815260200190815260200160002060000160149054906101000a900460ff169050919050565b336000809054906101000a900473ffffffffffffffffffffffffffffffffffffffff1673ffffffffffffffffffffffffffffffffffffffff168173ffffffffffffffffffffffffffffffffffffffff1614615338576040517f08c379a0000000000000000000000000000000000000000000000000000000008152600401808060200182810382526033815260200180619ae46033913960400191505060405180910390fd5b8260018190555081600281905550505050565b83600480600581111561535a57fe5b6005600084815260200190815260200160002060020160149054906101000a900460ff16600581111561538957fe5b146153df576040517f08c379a00000000000000000000000000000000000000000000000000000000081526004018080602001828103825260418152602001806199be6041913960600191505060405180910390fd5b6153e761974c565b6005600088815260200190815260200160002060405180610100016040529081600082015481526020016001820160009054906101000a900473ffffffffffffffffffffffffffffffffffffffff1673ffffffffffffffffffffffffffffffffffffffff1673ffffffffffffffffffffffffffffffffffffffff1681526020016002820160009054906101000a900473ffffffffffffffffffffffffffffffffffffffff1673ffffffffffffffffffffffffffffffffffffffff1673ffffffffffffffffffffffffffffffffffffffff1681526020016002820160149054906101000a900460ff1660058111156154da57fe5b60058111156154e557fe5b815260200160038201548152602001600482015481526020016005820154815260200160068201548152505090506000816040015190506000826020015190508173ffffffffffffffffffffffffffffffffffffffff163373ffffffffffffffffffffffffffffffffffffffff16148061558a57508073ffffffffffffffffffffffffffffffffffffffff163373ffffffffffffffffffffffffffffffffffffffff16145b6155fc576040517f08c379a000000000000000000000000000000000000000000000000000000000815260040180806020018281038252601b8152602001807f497373756520646f6573206e6f7420696e766f6c766520796f7521000000000081525060200191505060405180910390fd5b6040518060c001604052808a81526020013373ffffffffffffffffffffffffffffffffffffffff1681526020018981526020018881526020018781526020016000600381111561564857fe5b815250600b6000600f5481526020019081526020016000206000820151816000015560208201518160010160006101000a81548173ffffffffffffffffffffffffffffffffffffffff021916908373ffffffffffffffffffffffffffffffffffffffff16021790555060408201518160020190805190602001906156cd92919061989f565b5060608201518160030190805190602001906156ea92919061989f565b50608082015181600401908051906020019061570792919061989f565b5060a08201518160050160006101000a81548160ff0219169083600381111561572c57fe5b02179055509050506001600f600082825401925050819055508173ffffffffffffffffffffffffffffffffffffffff163373ffffffffffffffffffffffffffffffffffffffff1614156157ec57600660008373ffffffffffffffffffffffffffffffffffffffff1673ffffffffffffffffffffffffffffffffffffffff168152602001908152602001600020600a01600f54908060018154018082558091505090600182039060005260206000200160009091929091909150555061585b565b600760008273ffffffffffffffffffffffffffffffffffffffff1673ffffffffffffffffffffffffffffffffffffffff168152602001908152602001600020600901600f5490806001815401808255809150509060018203906000526020600020016000909192909190915055505b7f69050c9965f08b2e104d7757ca1347bb11b269a14524e417d7c6c0a1d39cc8bc338a604051808373ffffffffffffffffffffffffffffffffffffffff1673ffffffffffffffffffffffffffffffffffffffff1681526020018281526020019250505060405180910390a17ff8a39b59079e168cebb5099fe7aa8c49a36e0921f6d111b3bc396f145b7105f58360400151604051808273ffffffffffffffffffffffffffffffffffffffff1673ffffffffffffffffffffffffffffffffffffffff16815260200191505060405180910390a17fa772bbeff1bd45191583762ba3038ecc80ea6e160d8de1439d08c03f743c72e28360200151604051808273ffffffffffffffffffffffffffffffffffffffff1673ffffffffffffffffffffffffffffffffffffffff16815260200191505060405180910390a1505050505050505050565b336000809054906101000a900473ffffffffffffffffffffffffffffffffffffffff1673ffffffffffffffffffffffffffffffffffffffff168173ffffffffffffffffffffffffffffffffffffffff1614615a45576040517f08c379a0000000000000000000000000000000000000000000000000000000008152600401808060200182810382526033815260200180619ae46033913960400191505060405180910390fd5b60008060009054906101000a900473ffffffffffffffffffffffffffffffffffffffff1690508073ffffffffffffffffffffffffffffffffffffffff166108fc849081150290604051600060405180830381858888f19350505050158015615ab1573d6000803e3d6000fd5b50505050565b60016003811115615ac457fe5b600b600083815260200190815260200160002060050160009054906101000a900460ff166003811115615af357fe5b1480615b38575060006003811115615b0757fe5b600b600083815260200190815260200160002060050160009054906101000a900460ff166003811115615b3657fe5b145b615b8d576040517f08c379a0000000000000000000000000000000000000000000000000000000008152600401808060200182810382526038815260200180619ba16038913960400191505060405180910390fd5b615b956197c8565b600b60008381526020019081526020016000206040518060c0016040529081600082015481526020016001820160009054906101000a900473ffffffffffffffffffffffffffffffffffffffff1673ffffffffffffffffffffffffffffffffffffffff1673ffffffffffffffffffffffffffffffffffffffff168152602001600282018054600181600116156101000203166002900480601f016020809104026020016040519081016040528092919081815260200182805460018160011615610100020316600290048015615cac5780601f10615c8157610100808354040283529160200191615cac565b820191906000526020600020905b815481529060010190602001808311615c8f57829003601f168201915b50505050508152602001600382018054600181600116156101000203166002900480601f016020809104026020016040519081016040528092919081815260200182805460018160011615610100020316600290048015615d4e5780601f10615d2357610100808354040283529160200191615d4e565b820191906000526020600020905b815481529060010190602001808311615d3157829003601f168201915b50505050508152602001600482018054600181600116156101000203166002900480601f016020809104026020016040519081016040528092919081815260200182805460018160011615610100020316600290048015615df05780601f10615dc557610100808354040283529160200191615df0565b820191906000526020600020905b815481529060010190602001808311615dd357829003601f168201915b505050505081526020016005820160009054906101000a900460ff166003811115615e1757fe5b6003811115615e2257fe5b81525050905060038160a001906003811115615e3a57fe5b90816003811115615e4757fe5b815250505050565b3360011515600760008373ffffffffffffffffffffffffffffffffffffffff1673ffffffffffffffffffffffffffffffffffffffff16815260200190815260200160002060000160009054906101000a900460ff16151514615efc576040517f08c379a0000000000000000000000000000000000000000000000000000000008152600401808060200182810382526030815260200180619bd96030913960400191505060405180910390fd5b33828173ffffffffffffffffffffffffffffffffffffffff166005600083815260200190815260200160002060010160009054906101000a900473ffffffffffffffffffffffffffffffffffffffff1673ffffffffffffffffffffffffffffffffffffffff1614615fb8576040517f08c379a000000000000000000000000000000000000000000000000000000000815260040180806020018281038252602b815260200180619a6a602b913960400191505060405180910390fd5b836000806005811115615fc757fe5b6005600084815260200190815260200160002060020160149054906101000a900460ff166005811115615ff657fe5b1461604c576040517f08c379a00000000000000000000000000000000000000000000000000000000081526004018080602001828103825260418152602001806199be6041913960600191505060405180910390fd5b60036005600088815260200190815260200160002060020160146101000a81548160ff0219169083600581111561607f57fe5b02179055504260096000888152602001908152602001600020819055506004600060056000898152602001908152602001600020600001548152602001908152602001600020600b018690806001815401808255809150509060018203906000526020600020016000909192909190915055507f31a3bf4fecb3cbaf010129493c653e8dab99070f8442054d11f9e052ab37d015866040518082815260200191505060405180910390a17ff8a39b59079e168cebb5099fe7aa8c49a36e0921f6d111b3bc396f145b7105f56005600088815260200190815260200160002060020160009054906101000a900473ffffffffffffffffffffffffffffffffffffffff16604051808273ffffffffffffffffffffffffffffffffffffffff1673ffffffffffffffffffffffffffffffffffffffff16815260200191505060405180910390a1505050505050565b3360056000838152602001908152602001600020600001546004600082815260200190815260200160002060000160009054906101000a900473ffffffffffffffffffffffffffffffffffffffff1673ffffffffffffffffffffffffffffffffffffffff168273ffffffffffffffffffffffffffffffffffffffff161461629c576040517f08c379a000000000000000000000000000000000000000000000000000000000815260040180806020018281038252602f815260200180619b3c602f913960400191505060405180910390fd5b600560008481526020019081526020016000206000015483600080905060606004600085815260200190815260200160002060090180548060200260200160405190810160405280929190818152602001828054801561631b57602002820191906000526020600020905b815481526020019060010190808311616307575b5050505050905060008090505b8151811015616362578382828151811061633e57fe5b602002602001015114156163555760019250616362565b8080600101915050616328565b5060011515821515146163c0576040517f08c379a000000000000000000000000000000000000000000000000000000000815260040180806020018281038252602c8152602001806199ff602c913960400191505060405180910390fd5b8660006001905060008090505b60046000600560008681526020019081526020016000206000015481526020019081526020016000206009018054905081101561667f576001600581111561641157fe5b600560006004600060056000898152602001908152602001600020600001548152602001908152602001600020600901848154811061644c57fe5b9060005260206000200154815260200190815260200160002060020160149054906101000a900460ff16600581111561648157fe5b141561667257600560008481526020019081526020016000206003015460056000600460006005600089815260200190815260200160002060000154815260200190815260200160002060090184815481106164d957fe5b9060005260206000200154815260200190815260200160002060030154106165f7576005600084815260200190815260200160002060040154600560006004600060056000898152602001908152602001600020600001548152602001908152602001600020600901848154811061654d57fe5b90600052602060002001548152602001908152602001600020600301541161657857600091506165f2565b600560008481526020019081526020016000206004015460056000600460006005600089815260200190815260200160002060000154815260200190815260200160002060090184815481106165ca57fe5b9060005260206000200154815260200190815260200160002060040154116165f157600091505b5b616671565b6005600084815260200190815260200160002060040154600560006004600060056000898152602001908152602001600020600001548152602001908152602001600020600901848154811061664957fe5b90600052602060002001548152602001908152602001600020600401541161667057600091505b5b5b80806001019150506163cd565b5060011515811515146166dd576040517f08c379a000000000000000000000000000000000000000000000000000000000815260040180806020018281038252602e815260200180619c5f602e913960400191505060405180910390fd5b6001600560008b815260200190815260200160002060020160146101000a81548160ff0219169083600581111561671057fe5b021790555042600860008b8152602001908152602001600020819055507fef661472eb1160ea7082b026aad9a4ad23d31d720bfe6bca021be40e572645dc896040518082815260200191505060405180910390a1505050505050505050565b6000600660008373ffffffffffffffffffffffffffffffffffffffff1673ffffffffffffffffffffffffffffffffffffffff168152602001908152602001600020600401549050919050565b8260058060058111156167ca57fe5b6005600084815260200190815260200160002060020160149054906101000a900460ff1660058111156167f957fe5b1461684f576040517f08c379a00000000000000000000000000000000000000000000000000000000081526004018080602001828103825260418152602001806199be6041913960600191505060405180910390fd5b6005600086815260200190815260200160002060020160009054906101000a900473ffffffffffffffffffffffffffffffffffffffff1673ffffffffffffffffffffffffffffffffffffffff163373ffffffffffffffffffffffffffffffffffffffff1614616909576040517f08c379a0000000000000000000000000000000000000000000000000000000008152600401808060200182810382526024815260200180619ac06024913960400191505060405180910390fd5b6005841115801561691b575060008410155b616970576040517f08c379a0000000000000000000000000000000000000000000000000000000008152600401808060200182810382526021815260200180619c096021913960400191505060405180910390fd5b60058311158015616982575060008310155b6169d7576040517f08c379a0000000000000000000000000000000000000000000000000000000008152600401808060200182810382526021815260200180619c096021913960400191505060405180910390fd5b60006005600087815260200190815260200160002060010160009054906101000a900473ffffffffffffffffffffffffffffffffffffffff1690506000600760008373ffffffffffffffffffffffffffffffffffffffff1673ffffffffffffffffffffffffffffffffffffffff168152602001908152602001600020600601549050600181018682600760008673ffffffffffffffffffffffffffffffffffffffff1673ffffffffffffffffffffffffffffffffffffffff16815260200190815260200160002060040154020181616aab57fe5b04600760008473ffffffffffffffffffffffffffffffffffffffff1673ffffffffffffffffffffffffffffffffffffffff16815260200190815260200160002060040181905550600181018582600760008673ffffffffffffffffffffffffffffffffffffffff1673ffffffffffffffffffffffffffffffffffffffff16815260200190815260200160002060050154020181616b4457fe5b04600760008473ffffffffffffffffffffffffffffffffffffffff1673ffffffffffffffffffffffffffffffffffffffff16815260200190815260200160002060050181905550600760008373ffffffffffffffffffffffffffffffffffffffff1673ffffffffffffffffffffffffffffffffffffffff168152602001908152602001600020600601600081548092919060010191905055507fa772bbeff1bd45191583762ba3038ecc80ea6e160d8de1439d08c03f743c72e282604051808273ffffffffffffffffffffffffffffffffffffffff1673ffffffffffffffffffffffffffffffffffffffff16815260200191505060405180910390a17fa91e73eda4a7a168d76c6957780db2c6d3902dfd5b5a4b315690051952d84604876040518082815260200191505060405180910390a150505050505050565b6000600b600083815260200190815260200160002060010160009054906101000a900473ffffffffffffffffffffffffffffffffffffffff169050919050565b600060046000838152602001908152602001600020600301549050919050565b60001515600660003373ffffffffffffffffffffffffffffffffffffffff1673ffffffffffffffffffffffffffffffffffffffff16815260200190815260200160002060000160009054906101000a900460ff16151514616d8c576040517f08c379a0000000000000000000000000000000000000000000000000000000008152600401808060200182810382526025815260200180619b176025913960400191505060405180910390fd5b616d9533619691565b15616df6576001600660003373ffffffffffffffffffffffffffffffffffffffff1673ffffffffffffffffffffffffffffffffffffffff16815260200190815260200160002060000160006101000a81548160ff0219169083151502179055505b7f6a79f7f20c9ccc78cb18ff952a60bd2844ef24594cdae659d0b1ea7785e6c86433604051808273ffffffffffffffffffffffffffffffffffffffff1673ffffffffffffffffffffffffffffffffffffffff16815260200191505060405180910390a1565b3360056000838152602001908152602001600020600001546004600082815260200190815260200160002060000160009054906101000a900473ffffffffffffffffffffffffffffffffffffffff1673ffffffffffffffffffffffffffffffffffffffff168273ffffffffffffffffffffffffffffffffffffffff1614616f2d576040517f08c379a000000000000000000000000000000000000000000000000000000000815260040180806020018281038252602f815260200180619b3c602f913960400191505060405180910390fd5b826001806005811115616f3c57fe5b6005600084815260200190815260200160002060020160149054906101000a900460ff166005811115616f6b57fe5b14616fc1576040517f08c379a00000000000000000000000000000000000000000000000000000000081526004018080602001828103825260418152602001806199be6041913960600191505060405180910390fd5b616fca856196da565b61701f576040517f08c379a0000000000000000000000000000000000000000000000000000000008152600401808060200182810382526035815260200180619c2a6035913960400191505060405180910390fd5b6001600460006005600089815260200190815260200160002060000154815260200190815260200160002060000160146101000a81548160ff0219169083600581111561706857fe5b021790555060036005600087815260200190815260200160002060020160146101000a81548160ff021916908360058111156170a057fe5b02179055507f493aa8773123000445821c669df5dd075891fc8a7cc9f8633d301e6e306eb631856040518082815260200191505060405180910390a15050505050565b6060600b60008381526020019081526020016000206003018054600181600116156101000203166002900480601f01602080910402602001604051908101604052809291908181526020018280546001816001161561010002031660029004801561718f5780601f106171645761010080835404028352916020019161718f565b820191906000526020600020905b81548152906001019060200180831161717257829003601f168201915b50505050509050919050565b6000600760008373ffffffffffffffffffffffffffffffffffffffff1673ffffffffffffffffffffffffffffffffffffffff168152602001908152602001600020600501549050919050565b6000600760008373ffffffffffffffffffffffffffffffffffffffff1673ffffffffffffffffffffffffffffffffffffffff168152602001908152602001600020600101549050919050565b3360011515600660008373ffffffffffffffffffffffffffffffffffffffff1673ffffffffffffffffffffffffffffffffffffffff16815260200190815260200160002060000160009054906101000a900460ff161515146172fd576040517f08c379a00000000000000000000000000000000000000000000000000000000081526004018080602001828103825260198152602001807f636172206f776e6572206973206e6f742076657269666965640000000000000081525060200191505060405180910390fd5b6001151561730c3385856196fe565b151514617381576040517f08c379a000000000000000000000000000000000000000000000000000000000815260040180806020018281038252601e8152602001807f63617220646f6573206e6f74207061737320766572696669636174696f6e000081525060200191505060405180910390fd5b60608060606001600c60008282540192505081905550604051806101a001604052803373ffffffffffffffffffffffffffffffffffffffff168152602001600060058111156173cc57fe5b815260200186815260200187815260200160008152602001600081526020016000815260200160008152602001600081526020016040518060200160405280600081525081526020018481526020018381526020018281525060046000600c54815260200190815260200160002060008201518160000160006101000a81548173ffffffffffffffffffffffffffffffffffffffff021916908373ffffffffffffffffffffffffffffffffffffffff16021790555060208201518160000160146101000a81548160ff021916908360058111156174a557fe5b021790555060408201518160010190805190602001906174c692919061989f565b5060608201518160020190805190602001906174e392919061989f565b506080820151816003015560a0820151816004015560c0820151816005015560e08201518160060155610100820151816007015561012082015181600801908051906020019061753492919061989f565b5061014082015181600901908051906020019061755292919061991f565b5061016082015181600a01908051906020019061757092919061991f565b5061018082015181600b01908051906020019061758e92919061991f565b50905050600660003373ffffffffffffffffffffffffffffffffffffffff1673ffffffffffffffffffffffffffffffffffffffff168152602001908152602001600020600201600c5490806001815401808255809150509060018203906000526020600020016000909192909190915055506001600660003373ffffffffffffffffffffffffffffffffffffffff1673ffffffffffffffffffffffffffffffffffffffff168152602001908152602001600020600101600082825401925050819055507f4a8a6eac610598bb3b2ac21798038b9dd10f00bf391be442c6dbe477026c2437600c546040518082815260200191505060405180910390a1505050505050565b3360011515600760008373ffffffffffffffffffffffffffffffffffffffff1673ffffffffffffffffffffffffffffffffffffffff16815260200190815260200160002060000160009054906101000a900460ff1615151461773f576040517f08c379a0000000000000000000000000000000000000000000000000000000008152600401808060200182810382526030815260200180619bd96030913960400191505060405180910390fd5b33828173ffffffffffffffffffffffffffffffffffffffff166005600083815260200190815260200160002060010160009054906101000a900473ffffffffffffffffffffffffffffffffffffffff1673ffffffffffffffffffffffffffffffffffffffff16146177fb576040517f08c379a000000000000000000000000000000000000000000000000000000000815260040180806020018281038252602b815260200180619a6a602b913960400191505060405180910390fd5b83600180600581111561780a57fe5b6005600084815260200190815260200160002060020160149054906101000a900460ff16600581111561783957fe5b1461788f576040517f08c379a00000000000000000000000000000000000000000000000000000000081526004018080602001828103825260418152602001806199be6041913960600191505060405180910390fd5b60036005600088815260200190815260200160002060020160146101000a81548160ff021916908360058111156178c257fe5b02179055504260096000888152602001908152602001600020819055506004600060056000898152602001908152602001600020600001548152602001908152602001600020600b018690806001815401808255809150509060018203906000526020600020016000909192909190915055507f51e85d20a28d68ed9d84299155b85e35d55cd48c686544163f3ef024043e6259866005600089815260200190815260200160002060000154604051808381526020018281526020019250505060405180910390a17ff8a39b59079e168cebb5099fe7aa8c49a36e0921f6d111b3bc396f145b7105f56005600088815260200190815260200160002060020160009054906101000a900473ffffffffffffffffffffffffffffffffffffffff16604051808273ffffffffffffffffffffffffffffffffffffffff1673ffffffffffffffffffffffffffffffffffffffff16815260200191505060405180910390a1505050505050565b60603360011515600660008373ffffffffffffffffffffffffffffffffffffffff1673ffffffffffffffffffffffffffffffffffffffff16815260200190815260200160002060000160009054906101000a900460ff16151514617af7576040517f08c379a00000000000000000000000000000000000000000000000000000000081526004018080602001828103825260198152602001807f636172206f776e6572206973206e6f742076657269666965640000000000000081525060200191505060405180910390fd5b600660003373ffffffffffffffffffffffffffffffffffffffff1673ffffffffffffffffffffffffffffffffffffffff168152602001908152602001600020600a01805480602002602001604051908101604052809291908181526020018280548015617b8357602002820191906000526020600020905b815481526020019060010190808311617b6f575b505050505091505090565b3360056000838152602001908152602001600020600001546004600082815260200190815260200160002060000160009054906101000a900473ffffffffffffffffffffffffffffffffffffffff1673ffffffffffffffffffffffffffffffffffffffff168273ffffffffffffffffffffffffffffffffffffffff1614617c60576040517f08c379a000000000000000000000000000000000000000000000000000000000815260040180806020018281038252602f815260200180619b3c602f913960400191505060405180910390fd5b6005600084815260200190815260200160002060000154836000809050606060046000858152602001908152602001600020600901805480602002602001604051908101604052809291908181526020018280548015617cdf57602002820191906000526020600020905b815481526020019060010190808311617ccb575b5050505050905060008090505b8151811015617d265783828281518110617d0257fe5b60200260200101511415617d195760019250617d26565b8080600101915050617cec565b506001151582151514617d84576040517f08c379a000000000000000000000000000000000000000000000000000000000815260040180806020018281038252602c8152602001806199ff602c913960400191505060405180910390fd5b60026005600089815260200190815260200160002060020160146101000a81548160ff02191690836005811115617db757fe5b021790555042600960008981526020019081526020016000208190555060046000600560008a8152602001908152602001600020600001548152602001908152602001600020600b018790806001815401808255809150509060018203906000526020600020016000909192909190915055507f019bdba867819d7f28de162160362ea55745b63dde8cf60adce41154870a6346876040518082815260200191505060405180910390a150505050505050565b606060046000838152602001908152602001600020600901805480602002602001604051908101604052809291908181526020018280548015617ecc57602002820191906000526020600020905b815481526020019060010190808311617eb8575b50505050509050919050565b600042905090565b6060600460008381526020019081526020016000206002018054600181600116156101000203166002900480601f016020809104026020016040519081016040528092919081815260200182805460018160011615610100020316600290048015617f8c5780601f10617f6157610100808354040283529160200191617f8c565b820191906000526020600020905b815481529060010190602001808311617f6f57829003601f168201915b50505050509050919050565b33876004600082815260200190815260200160002060000160009054906101000a900473ffffffffffffffffffffffffffffffffffffffff1673ffffffffffffffffffffffffffffffffffffffff168273ffffffffffffffffffffffffffffffffffffffff1614618054576040517f08c379a000000000000000000000000000000000000000000000000000000000815260040180806020018281038252602f815260200180619b3c602f913960400191505060405180910390fd5b88600080600581111561806357fe5b6004600084815260200190815260200160002060000160149054906101000a900460ff16600581111561809257fe5b146180e8576040517f08c379a0000000000000000000000000000000000000000000000000000000008152600401808060200182810382526036815260200180619b6b6036913960400191505060405180910390fd5b89600460008d81526020019081526020016000206006018190555088600460008d81526020019081526020016000206007018190555087600460008d8152602001908152602001600020600801908051906020019061814892919061981f565b5085600460008d81526020019081526020016000206004018190555086600460008d81526020019081526020016000206003018190555084600460008d8152602001908152602001600020600501819055506001600460008d815260200190815260200160002060000160146101000a81548160ff021916908360058111156181cd57fe5b02179055507f3e60eaeaf6e2ca4c40879f1615022a2635824d500e0eeee0da37334abf3da9678b6040518082815260200191505060405180910390a15050505050505050505050565b60006005600083815260200190815260200160002060020160149054906101000a900460ff169050919050565b3360056000838152602001908152602001600020600001546004600082815260200190815260200160002060000160009054906101000a900473ffffffffffffffffffffffffffffffffffffffff1673ffffffffffffffffffffffffffffffffffffffff168273ffffffffffffffffffffffffffffffffffffffff1614618315576040517f08c379a000000000000000000000000000000000000000000000000000000000815260040180806020018281038252602f815260200180619b3c602f913960400191505060405180910390fd5b82600480600581111561832457fe5b6005600084815260200190815260200160002060020160149054906101000a900460ff16600581111561835357fe5b146183a9576040517f08c379a00000000000000000000000000000000000000000000000000000000081526004018080602001828103825260418152602001806199be6041913960600191505060405180910390fd5b600560008681526020019081526020016000206000015460038060058111156183ce57fe5b6004600084815260200190815260200160002060000160149054906101000a900460ff1660058111156183fd57fe5b14618453576040517f08c379a0000000000000000000000000000000000000000000000000000000008152600401808060200182810382526036815260200180619b6b6036913960400191505060405180910390fd5b600160046000600560008b815260200190815260200160002060000154815260200190815260200160002060000160146101000a81548160ff0219169083600581111561849c57fe5b021790555060046000600560008a8152602001908152602001600020600001548152602001908152602001600020600a0187908060018154018082558091505090600182039060005260206000200160009091929091909150555060008060076000600560008c815260200190815260200160002060010160009054906101000a900473ffffffffffffffffffffffffffffffffffffffff1673ffffffffffffffffffffffffffffffffffffffff1673ffffffffffffffffffffffffffffffffffffffff16815260200190815260200160002060070180549050905060008090505b8181101561864657600560008b81526020019081526020016000206000015460076000600560008e815260200190815260200160002060010160009054906101000a900473ffffffffffffffffffffffffffffffffffffffff1673ffffffffffffffffffffffffffffffffffffffff1673ffffffffffffffffffffffffffffffffffffffff168152602001908152602001600020600701828154811061862057fe5b9060005260206000200154141561863957809250618646565b808060010191505061857e565b5060076000600560008c815260200190815260200160002060010160009054906101000a900473ffffffffffffffffffffffffffffffffffffffff1673ffffffffffffffffffffffffffffffffffffffff1673ffffffffffffffffffffffffffffffffffffffff16815260200190815260200160002060070182815481106186ca57fe5b906000526020600020016000905560076000600560008c815260200190815260200160002060010160009054906101000a900473ffffffffffffffffffffffffffffffffffffffff1673ffffffffffffffffffffffffffffffffffffffff1673ffffffffffffffffffffffffffffffffffffffff168152602001908152602001600020600701600182038154811061875e57fe5b906000526020600020015460076000600560008d815260200190815260200160002060010160009054906101000a900473ffffffffffffffffffffffffffffffffffffffff1673ffffffffffffffffffffffffffffffffffffffff1673ffffffffffffffffffffffffffffffffffffffff16815260200190815260200160002060070183815481106187ec57fe5b906000526020600020018190555060076000600560008c815260200190815260200160002060010160009054906101000a900473ffffffffffffffffffffffffffffffffffffffff1673ffffffffffffffffffffffffffffffffffffffff1673ffffffffffffffffffffffffffffffffffffffff168152602001908152602001600020600701600182038154811061888057fe5b906000526020600020016000905560058060008b815260200190815260200160002060020160146101000a81548160ff021916908360058111156188c057fe5b02179055506000600560008b815260200190815260200160002060010160009054906101000a900473ffffffffffffffffffffffffffffffffffffffff169050600760008273ffffffffffffffffffffffffffffffffffffffff1673ffffffffffffffffffffffffffffffffffffffff16815260200190815260200160002060010160008154809291906001019190505550600760008273ffffffffffffffffffffffffffffffffffffffff1673ffffffffffffffffffffffffffffffffffffffff168152602001908152602001600020600201600081548092919060010191905055506064600760008373ffffffffffffffffffffffffffffffffffffffff1673ffffffffffffffffffffffffffffffffffffffff16815260200190815260200160002060020154600760008473ffffffffffffffffffffffffffffffffffffffff1673ffffffffffffffffffffffffffffffffffffffff1681526020019081526020016000206001015481618a3357fe5b0402600760008373ffffffffffffffffffffffffffffffffffffffff1673ffffffffffffffffffffffffffffffffffffffff168152602001908152602001600020600301819055506000819050600060046000600560008f81526020019081526020016000206000015481526020019081526020016000206004015490508173ffffffffffffffffffffffffffffffffffffffff166108fc829081150290604051600060405180830381858888f19350505050158015618af7573d6000803e3d6000fd5b506000600560008e815260200190815260200160002060020160009054906101000a900473ffffffffffffffffffffffffffffffffffffffff169050600660008273ffffffffffffffffffffffffffffffffffffffff1673ffffffffffffffffffffffffffffffffffffffff168152602001908152602001600020600301600081548092919060010191905055507fd9188e305dee9c23fa1cc9b07058ae9500862da7079cc5ba9df28045ae2f1d1e600560008f8152602001908152602001600020600001546040518082815260200191505060405180910390a150505050505050505050505050565b6000600760008373ffffffffffffffffffffffffffffffffffffffff1673ffffffffffffffffffffffffffffffffffffffff168152602001908152602001600020600401549050919050565b618c3633619691565b618c3f57600080fd5b60001515600760003373ffffffffffffffffffffffffffffffffffffffff1673ffffffffffffffffffffffffffffffffffffffff16815260200190815260200160002060000160009054906101000a900460ff16151514618ceb576040517f08c379a0000000000000000000000000000000000000000000000000000000008152600401808060200182810382526026815260200180619cba6026913960400191505060405180910390fd5b6001600760003373ffffffffffffffffffffffffffffffffffffffff1673ffffffffffffffffffffffffffffffffffffffff16815260200190815260200160002060000160006101000a81548160ff0219169083151502179055507fe61c52258a4d2f33189eda374919387538392b1582262d1d43da6a73019fe88233604051808273ffffffffffffffffffffffffffffffffffffffff1673ffffffffffffffffffffffffffffffffffffffff16815260200191505060405180910390a1565b6060600b60008381526020019081526020016000206002018054600181600116156101000203166002900480601f016020809104026020016040519081016040528092919081815260200182805460018160011615610100020316600290048015618e575780601f10618e2c57610100808354040283529160200191618e57565b820191906000526020600020905b815481529060010190602001808311618e3a57829003601f168201915b50505050509050919050565b33866004600082815260200190815260200160002060000160009054906101000a900473ffffffffffffffffffffffffffffffffffffffff1673ffffffffffffffffffffffffffffffffffffffff168273ffffffffffffffffffffffffffffffffffffffff1614618f1f576040517f08c379a000000000000000000000000000000000000000000000000000000000815260040180806020018281038252602f815260200180619b3c602f913960400191505060405180910390fd5b876001806005811115618f2e57fe5b6004600084815260200190815260200160002060000160149054906101000a900460ff166005811115618f5d57fe5b14618fb3576040517f08c379a0000000000000000000000000000000000000000000000000000000008152600401808060200182810382526036815260200180619b6b6036913960400191505060405180910390fd5b86600460008c81526020019081526020016000206006018190555085600460008c81526020019081526020016000206007018190555084600460008c8152602001908152602001600020600801908051906020019061901392919061981f565b5087600460008c81526020019081526020016000206004018190555088600460008c8152602001908152602001600020600301819055507faf764f91008d919cc12cae710394849f1902037bb34f46b91d8b4b3b9d1d08d68a6040518082815260200191505060405180910390a150505050505050505050565b60006004600083815260200190815260200160002060000160009054906101000a900473ffffffffffffffffffffffffffffffffffffffff169050919050565b60003360011515600760008373ffffffffffffffffffffffffffffffffffffffff1673ffffffffffffffffffffffffffffffffffffffff16815260200190815260200160002060000160009054906101000a900460ff1615151461917c576040517f08c379a0000000000000000000000000000000000000000000000000000000008152600401808060200182810382526030815260200180619bd96030913960400191505060405180910390fd5b85600180600581111561918b57fe5b6004600084815260200190815260200160002060000160149054906101000a900460ff1660058111156191ba57fe5b14619210576040517f08c379a0000000000000000000000000000000000000000000000000000000008152600401808060200182810382526036815260200180619b6b6036913960400191505060405180910390fd5b6000600d600081546001019190508190559050600760003373ffffffffffffffffffffffffffffffffffffffff1673ffffffffffffffffffffffffffffffffffffffff16815260200190815260200160002060080181908060018154018082558091505090600182039060005260206000200160009091929091909150555060066000600460008c815260200190815260200160002060000160009054906101000a900473ffffffffffffffffffffffffffffffffffffffff1673ffffffffffffffffffffffffffffffffffffffff1673ffffffffffffffffffffffffffffffffffffffff168152602001908152602001600020600901819080600181540180825580915050906001820390600052602060002001600090919290919091505550600460008a815260200190815260200160002060090181908060018154018082558091505090600182039060005260206000200160009091929091909150555061937961974c565b6040518061010001604052808b81526020013373ffffffffffffffffffffffffffffffffffffffff168152602001600460008d815260200190815260200160002060000160009054906101000a900473ffffffffffffffffffffffffffffffffffffffff1673ffffffffffffffffffffffffffffffffffffffff1681526020016000600581111561940657fe5b81526020018a8152602001898152602001888152602001600460008d815260200190815260200160002060040154815250905080600560008481526020019081526020016000206000820151816000015560208201518160010160006101000a81548173ffffffffffffffffffffffffffffffffffffffff021916908373ffffffffffffffffffffffffffffffffffffffff16021790555060408201518160020160006101000a81548173ffffffffffffffffffffffffffffffffffffffff021916908373ffffffffffffffffffffffffffffffffffffffff16021790555060608201518160020160146101000a81548160ff0219169083600581111561950957fe5b02179055506080820151816003015560a0820151816004015560c0820151816005015560e082015181600601559050507f46d8489632192dd294096a252ad7860b89444adc1adaec7953c7bf9c1e87fe253383604051808373ffffffffffffffffffffffffffffffffffffffff1673ffffffffffffffffffffffffffffffffffffffff1681526020018281526020019250505060405180910390a17ff8a39b59079e168cebb5099fe7aa8c49a36e0921f6d111b3bc396f145b7105f5600460008c815260200190815260200160002060000160009054906101000a900473ffffffffffffffffffffffffffffffffffffffff16604051808273ffffffffffffffffffffffffffffffffffffffff1673ffffffffffffffffffffffffffffffffffffffff16815260200191505060405180910390a18195505050505050949350505050565b600060056000838152602001908152602001600020600001549050919050565b600062093a80600a6000848152602001908152602001600020540142109050919050565b60008060009050600073ffffffffffffffffffffffffffffffffffffffff168373ffffffffffffffffffffffffffffffffffffffff16146196d157600190505b80915050919050565b60006201518060086000848152602001908152602001600020540142119050919050565b60008192506000809050600073ffffffffffffffffffffffffffffffffffffffff168573ffffffffffffffffffffffffffffffffffffffff161461974157600190505b809150509392505050565b60405180610100016040528060008152602001600073ffffffffffffffffffffffffffffffffffffffff168152602001600073ffffffffffffffffffffffffffffffffffffffff168152602001600060058111156197a657fe5b8152602001600081526020016000815260200160008152602001600081525090565b6040518060c0016040528060008152602001600073ffffffffffffffffffffffffffffffffffffffff1681526020016060815260200160608152602001606081526020016000600381111561981957fe5b81525090565b828054600181600116156101000203166002900490600052602060002090601f016020900481019282601f1061986057805160ff191683800117855561988e565b8280016001018555821561988e579182015b8281111561988d578251825591602001919060010190619872565b5b50905061989b919061996c565b5090565b828054600181600116156101000203166002900490600052602060002090601f016020900481019282601f106198e057805160ff191683800117855561990e565b8280016001018555821561990e579182015b8281111561990d5782518255916020019190600101906198f2565b5b50905061991b919061996c565b5090565b82805482825590600052602060002090810192821561995b579160200282015b8281111561995a57825182559160200191906001019061993f565b5b509050619968919061996c565b5090565b61998e91905b8082111561998a576000816000905550600101619972565b5090565b9056fe506c65617365207472616e7366657220656e6f7567682045746820746f2070617920666f722072656e74616c54686520737461747573206f6620746869732072656e74616c2072657175657374206973206e6f7420616c6c6f77656420666f722074686973206f7074696f6e2e72656e746572206e6565647320746f206170706c7920746f2072656e74207468697320636172206669727374796f752063616e206f6e6c792072656f70656e20616e2069737375652077697468696e20372064617973206166746572206974206973207265736f6c766564546869732072656e74616c207265717565737420646f6573206e6f742062656c6f6e6720746f20796f752e6f6e6c7920737570706f7274207465616d2063616e207472696767657220746869732066756e6374696f6e596f7520617265206e6f7420696e766f6c76656420696e20746869732072656e74616c2e6f6e6c79206f776e6572206f6620446563656e7472616c52656e742063616e20706572666f726d207468697320616374696f6e636172206f776e65722068617320616c7265616479206265656e20726567697374657265646f6e6c7920766572696669656420636172206f776e65722063616e20706572666f726d207468697320616374696f6e54686520737461747573206f66207468697320636172206973206e6f7420616c6c6f77656420666f722074686973206f7074696f6e2e54686520737461747573206f662074686973206973737565206973206e6f7420616c6c6f77656420666f722074686973206f7074696f6e2e6f6e6c79207665726966696564206361722072656e7465722063616e20706572666f726d207468697320616374696f6e526174696e672068617320746f206265206265747765656e203020616e64203521596f752063616e206f6e6c7920726563616c6c206974206166746572203234682073696e636520796f757220617070726f76616c2e796f75206861766520616c726561647920617070726f76656420666f7220746869732074696d6520706572696f64596f7520617265206e6f7420746865206f776e6572206f6620746869732072656e74616c20726571756573742e6361722072656e7465722068617320616c7265616479206265656e2072656769737465726564a265627a7a7231582088e7ee57553aa2c7b0e14705f705d4d983806cb5ee0fc2feb662075a6507fd7764736f6c63430005100032",
  "source": "pragma solidity >= 0.5.0; \n\n// try to optimise by using memory storage \n// try to integrate learnings from lecture 9 \n// separate data storage and logic \n// satellite functions \n\ncontract DecentralRent{\n    address _owner = msg.sender;\n    uint256 platformFee;\n    uint256 commissionPercent; // records the percentage of commission to be charged upon every deal. e.g. 2 means 2%\n    address _support_team;    \n    mapping (uint256 => car) carList; \n    mapping (uint256 => rent) rentList;\n    mapping (address => carOwner) carOwnerInfo; \n    mapping (address => renter) renterList;\n    mapping (uint256 => uint256) offer_dates;\n    mapping (uint256 => uint256) cancellation_dates;\n    mapping (uint256 => uint256) issue_resolved_dates;\n    mapping (uint256 => issue) issueList; \n    uint256 carIdCount = 0;\n    uint256 rentIdCount = 0;\n    uint256 renterIDCount = 0;\n    uint256 issueIDCount = 0;\n\n    constructor(uint256 fee, uint256 percentage, address supportAddress) public {\n        _support_team = supportAddress;\n        platformFee = fee;\n        commissionPercent = percentage;\n    }\n\n    enum CarStatus {\n        Registered,\n        Available,\n        Reserved,\n        Received,\n        Unavailable,\n        Abnormal\n    }\n\n    enum RentalStatus {\n        Pending,\n        Approved,\n        Rejected,\n        Cancelled, \n        Ongoing,\n        Completed\n    } \n    //'Ongoing' when renter accept offer\n    //'Cancelled' when owner recall approval/renter reject offer\n\n    enum IssueStatus {\n        Created,\n        Solving,\n        Solved,\n        Rejected\n    }  \n\n/***************************** STRUCTS ********************************/\n    struct carOwner {\n        bool verified; \n        uint256 carCount;\n        uint256[] carList;\n        uint256 completedRentCount;\n        uint256 carConditionRating;\n        uint256 attitude;\n        uint256 responseSpeed;\n        uint256 ratingCount;\n        uint256 creditScore;\n        uint256[] rentalRequests; //Rent IDs\n        uint256[] issueList;\n    }\n\n    struct car {\n        address owner;\n        CarStatus carStatus;\n        // (available, reserved, received, on_rent, returned, missing)\n        string carPlate; // maybe can be revealed only after the rent has been confirmed;\n        string carModel;\n        uint256 hourlyRentalRate;\n        uint256 deposit;\n        uint256 carCondition; // 1-10\n        uint256 availableStartDate; // in seconds, JS default\n        uint256 availableEndDate;\n        string collectionPoint;\n        uint256[] requestedrentIdList; \n        uint256[] rentHistory;\n        uint256[] cancelledRentIdList;\n    }\n\n    struct rent {\n        uint256 carId;\n        address renter;\n        address carOwner;\n        RentalStatus rentalStatus; // (pending, approved, rejected) \n        uint256 startDate;\n        uint256 endDate;\n        uint256 hourlyRentalRate; // Named offeredRate at submit_rental_requests, updates throughout nego\n        uint256 deposit; // is fixed, no nego.\n    }\n\n    struct renter {\n        bool verified;\n        uint256 completedRentCount;\n        uint256 totalRentCount; \n        uint256 creditScore;\n        uint256 attitude;\n        uint256 responseSpeed;\n        uint256 ratingCount;\n        uint256[] currentCars; //Ongoing car IDs\n        uint256[] rentalRequests; //Rent IDs\n        uint256[] issueList;\n    }\n\n    struct issue {\n        uint256 rentId;\n        address reporter;\n        string details;\n        string contactNumber;\n        string proofImageUrl;\n        IssueStatus issueStatus;\n    }\n\n/***************************** EVENTS ********************************/\n    event Notify_renter(address renter);\n    event Notify_owner(address owner);\n\n    //car owner\n    event CarOwnerRegistered(address carOwner);\n    event CarRegistered(uint256 carId);\n    event CarListed(uint256 carId);\n    event RentalOfferApproved(uint256 rentId);\n    event RentalRequestRejected(uint256 rentId);\n    event OfferRecalled(uint256 rentId);\n    event CarReturned(uint256 carId);\n    event CarUnlisted(uint256 carId);\n    event CarInfoUpdated(uint256 carId);\n    event CarOwnerNewRating(uint256 rentId);\n    \n    //car renter\n    event RenterRegistered(address renter_address);\n    event RentalRequestedSubmitted(address renter_address, uint256 rentId);\n    event RentRequestUpdated(uint256 rentId);\n    event RentalRequestRecalled(uint256 rentId);\n    event RentalOfferAccepted(uint256 renterId, uint256 carId);\n    event RentalOfferDeclined(uint256 renterId, uint256 carId);\n    event CarReceived(address renter_address, uint256 carId);\n    event IssueReported(address reporter, uint256 rentId);\n    event IssueResolved(uint256 issueId);\n    event IssueReopened(uint256 issueId);\n    event RenterNewRating(uint256 rentId);\n\n/***************************** MODIFIERS ********************************/\n    modifier carOwnerOnly(address person, uint256 carId) {\n        // this modifier requires the caller to be the owner of this car\n        require(person == carList[carId].owner, \"only verified car owner can perform this action\");\n        _;\n    }\n\n    modifier registeredCarRenterOnly(address renter_address) {\n        require(renterList[renter_address].verified == true, \"only verified car renter can perform this action\");\n        _;\n    }\n\n    modifier verifiedOwnerOnly(address person) {\n        // this modifier requires to caller to be a verified user of DecentralRent\n        require(carOwnerInfo[person].verified == true, \"car owner is not verified\");\n        _;\n    }\n\n     modifier verifiedRenterOnly(address person) {\n        // this modifier requires to caller to be a verified user of DecentralRent\n        require(renterList[person].verified == true, \"car renter is not verified\");\n        _;\n    }\n\n    modifier supportTeamOnly(address person) {\n        require(person == _support_team, \"only support team can trigger this function\");\n        _;\n    }\n\n    modifier decentralRentOwnerOnly(address person) {\n        require(person == _owner, \"only owner of DecentralRent can perform this action\");\n        _;\n    }\n\n    modifier requestedRenter(uint256 carId, uint256 rentId) {\n        // this modifier requires only when the renter submited a rental request for this car, s/he can be approved or rejected\n        bool requested = false;\n        uint256[] memory requests = carList[carId].requestedrentIdList;\n        for (uint i=0; i<requests.length; i++) {\n            if (requests[i] == rentId) {\n                requested = true;\n                break;\n            }\n        }\n        require(requested == true, \"renter needs to apply to rent this car first\");\n        _;\n    }\n\n    modifier requesterOnly(address person, uint256 rentId) {\n        require(rentList[rentId].renter == person, \"This rental request does not belong to you.\");\n        _;\n    }\n    \n    modifier canApprove(uint256 rentId) {\n        // this modifier requires the owner to be able to approve only if he has not approved a rent in the same period\n        bool approve = true;\n        for (uint i=0; i<carList[rentList[rentId].carId].requestedrentIdList.length; i++) {\n           if (rentList[carList[rentList[rentId].carId].requestedrentIdList[i]].rentalStatus == RentalStatus.Approved) {\n                if (rentList[carList[rentList[rentId].carId].requestedrentIdList[i]].startDate >= rentList[rentId].startDate) {\n                    if (rentList[carList[rentList[rentId].carId].requestedrentIdList[i]].startDate <= rentList[rentId].endDate) {\n                        approve = false;\n                    } else if (rentList[carList[rentList[rentId].carId].requestedrentIdList[i]].endDate <= rentList[rentId].endDate) {\n                        approve = false;\n                    }\n                } else {\n                    if (rentList[carList[rentList[rentId].carId].requestedrentIdList[i]].endDate <= rentList[rentId].endDate) {\n                        approve = false;\n                    }\n                }         \n           }     \n        }\n        require(approve == true, \"you have already approved for this time period\");\n        _;\n    }\n\n    modifier rentalInStatus(uint256 rentId, RentalStatus status) {\n        // this modifier requires rental in specific status\n        require(rentList[rentId].rentalStatus == status, \"The status of this rental request is not allowed for this option.\");\n        _;\n    }\n\n    modifier carInStatus(uint256 carId, CarStatus status) {\n        // this modifier requires car in specific status\n        require(carList[carId].carStatus == status, \"The status of this car is not allowed for this option.\");\n        _;\n    }\n\n    modifier issueInStatus(uint256 issueId, IssueStatus status) {\n        // this modifier requires rental in specific status\n        require(issueList[issueId].issueStatus == status, \"The status of this issue is not allowed for this option.\");\n        _;\n    }\n\n    // modifier offer_pending_1day(uint256 rentId) internal view returns (bool) {\n    //     //auto-depre for recall approval\n    //     return block.timestamp > offer_dates[rentId] + 1 days;\n    // }\n\n    function singPassVerify(address person) private pure returns(bool) {\n        // this function simulates the verification through SingPass. \n        // Returns true by default. assuming the person passes real-name identification and driving license check\n        bool singPass = false;\n        if (person != address(0)) {\n            singPass = true;\n        }\n        return singPass;\n    }\n\n    function singPassVerifyCar(address person, string memory carModel, string memory carPlate) private pure returns(bool){\n        // this function simulates the verification of car ownership and model through SingPass. \n        // Returns true by default.\n        carModel = carPlate; // just for warning purpose. To be taken out/editted\n        bool singPassCar = false;\n        if (person != address(0)) {\n            singPassCar = true;\n        }\n        return singPassCar;\n    }\n    \n//car owner \n    function register_car_owner() public {\n        // never use carOwner struct to register?\n        require(carOwnerInfo[msg.sender].verified == false, \"car owner has already been registered\");\n        if(singPassVerify(msg.sender)) {\n            carOwnerInfo[msg.sender].verified = true;\n        }\n\n        emit CarOwnerRegistered(msg.sender);\n\n    }\n\n    function register_car(string memory carModel, string memory carPlate) public verifiedOwnerOnly(msg.sender) {\n        // require verification of car\n        require(singPassVerifyCar(msg.sender, carModel, carPlate) == true, \"car does not pass verification\"); \n        // create new car struct\n        uint256[] memory requestedrentIdList;\n        uint256[] memory rentHistory;\n        uint256[] memory cancelledList;\n        carIdCount += 1;\n        carList[carIdCount] = car(msg.sender, CarStatus.Registered, carPlate, carModel, 0, 0, 0, 0, 0, \"\", requestedrentIdList, rentHistory, cancelledList);\n        carOwnerInfo[msg.sender].carList.push(carIdCount);\n        carOwnerInfo[msg.sender].carCount += 1;\n\n        emit CarRegistered(carIdCount);\n    }\n\n    function list_car_for_rental(uint256 carId, uint256 availableStartDate, uint256 availableEndDate, string memory collectionPoint, uint256 hourlyRentalRate, uint256 deposit, uint256 carCondition) \n        public carOwnerOnly(msg.sender, carId) carInStatus(carId, CarStatus.Registered) {\n\n        // add information to the car struct\n        carList[carId].availableStartDate = availableStartDate;\n        carList[carId].availableEndDate = availableEndDate;\n        carList[carId].collectionPoint = collectionPoint;\n        carList[carId].deposit = deposit;\n        carList[carId].hourlyRentalRate = hourlyRentalRate;\n        carList[carId].carCondition = carCondition;\n        carList[carId].carStatus = CarStatus.Available;\n\n        emit CarListed(carId);\n    }\n\n    function update_listed_car_info(uint256 carId, uint256 hourlyRentalRate, uint256 deposit, uint256 availableStartDate, uint256 availableEndDate, string memory collectionPoint) \n        public carOwnerOnly(msg.sender, carId) carInStatus(carId, CarStatus.Available) {\n        \n        //modify information in the car struct\n        carList[carId].availableStartDate = availableStartDate;\n        carList[carId].availableEndDate= availableEndDate;\n        carList[carId].collectionPoint = collectionPoint;\n        carList[carId].deposit = deposit;\n        carList[carId].hourlyRentalRate = hourlyRentalRate;\n\n        emit CarInfoUpdated(carId);\n    }\n\n    function approve_rental_request(uint256 rentId) public carOwnerOnly(msg.sender, rentList[rentId].carId) requestedRenter(rentList[rentId].carId, rentId) canApprove(rentId){\n        // change the request status of the rent contract to be approved \n        rentList[rentId].rentalStatus = RentalStatus.Approved;\n        offer_dates[rentId] = block.timestamp;\n        \n        emit RentalOfferApproved(rentId);\n    } \n\n    function reject_rental_request(uint256 rentId) public carOwnerOnly(msg.sender, rentList[rentId].carId) requestedRenter(rentList[rentId].carId, rentId) {\n        rentList[rentId].rentalStatus = RentalStatus.Rejected;\n\n        // record the rejected requests of this car in a list\n        // record reject date\n        // those rental requests rejected over 24h will be cleared from storage later\n        cancellation_dates[rentId] = block.timestamp;\n        carList[rentList[rentId].carId].cancelledRentIdList.push(rentId);\n        emit RentalRequestRejected(rentId);\n        // delete rentList[rentId];\n    }\n\n    function unlist_car(uint256 carId) public carOwnerOnly(msg.sender, carId) carInStatus(carId, CarStatus.Available) {\n        carList[carId].carStatus = CarStatus.Unavailable;\n\n        emit CarUnlisted(carId);\n    }\n\n    function offer_pending_1day(uint256 rentId) internal view returns (bool) {\n        //auto-depre for recall approval\n        return block.timestamp > offer_dates[rentId] + 1 days;\n    }\n\n    function recall_approval(uint256 rentId) public carOwnerOnly(msg.sender, rentList[rentId].carId) rentalInStatus(rentId, RentalStatus.Approved){\n        require(offer_pending_1day(rentId), \"You can only recall it after 24h since your approval.\");\n        //change rent request status and car status\n        carList[rentList[rentId].carId].carStatus = CarStatus.Available;\n        rentList[rentId].rentalStatus = RentalStatus.Cancelled;\n\n        emit OfferRecalled(rentId);\n    }\n\n    //only used for testing purposes\n    function revert_offer_date_by_1day (uint256 rentId) public{\n        offer_dates[rentId] = offer_dates[rentId] - 1 days - 1 minutes; \n    }\n\n    function request_cancelled_1day(uint256 rentId) internal view returns (bool) {\n        //auto-depre for deletion of cancelled rental request\n        return block.timestamp > cancellation_dates[rentId] + 1 days;\n    }\n\n    // causes gas to run out, so i comment out first\n    function confirm_car_returned(uint256 rentId) public payable carOwnerOnly(msg.sender, rentList[rentId].carId) rentalInStatus(rentId, RentalStatus.Ongoing) carInStatus(rentList[rentId].carId, CarStatus.Received) {\n        // change car status to returned\n        carList[rentList[rentId].carId].carStatus = CarStatus.Available;\n        \n        // add rent to car's rentHistory\n        carList[rentList[rentId].carId].rentHistory.push(rentId);\n\n        // remove car from the renter's current car list\n        uint256 currentCarIndex;\n        uint256 currentCarCount = renterList[rentList[rentId].renter].currentCars.length;\n        for (uint i=0; i<currentCarCount; i++) {\n            if(renterList[rentList[rentId].renter].currentCars[i] == rentList[rentId].carId) {\n                currentCarIndex = i;\n                break;\n            }\n        }\n        delete renterList[rentList[rentId].renter].currentCars[currentCarIndex];\n        // move up the last element to the deleted gap\n        renterList[rentList[rentId].renter].currentCars[currentCarIndex] = renterList[rentList[rentId].renter].currentCars[currentCarCount - 1];\n        delete renterList[rentList[rentId].renter].currentCars[currentCarCount - 1];\n        \n        // causes compilation error, so i comment out first \n        // delete those rental request of this car that are rejected/cancelled over 24h ago\n        /* uint256[] memory newCancelledRentList;\n        uint256 j = 0; // temporary index for memory array newCancelledRentList\n        for (uint i=0; i<carList[rentList[rentId].carId].cancelledRentIdList.length; i++) {\n\n            if (request_cancelled_1day(carList[rentList[rentId].carId].cancelledRentIdList[i])) {\n                // loop thru the existing cancelled rent of this car\n                // delete the corresponding rent struct if it has been rejected/cancelled over 24h ago\n                delete rentList[carList[rentList[rentId].carId].cancelledRentIdList[i]];\n            } else {\n                // if not over 24h, keep the rent id in the cancellation list\n                newCancelledRentList[j] = (carList[rentList[rentId].carId].cancelledRentIdList[i]);\n                j++;\n            }\n        }\n        // update the cancelled list, remove those id we've alr deleted\n        carList[rentList[rentId].carId].cancelledRentIdList = newCancelledRentList; */\n        \n        // change rent status\n        rentList[rentId].rentalStatus = RentalStatus.Completed;\n        \n        // update renter score \n        address renteradd = rentList[rentId].renter;\n        renterList[renteradd].completedRentCount ++;\n        renterList[renteradd].totalRentCount ++;\n        renterList[renteradd].creditScore = renterList[renteradd].completedRentCount/renterList[renteradd].totalRentCount * 100; //maximum 100 marks\n        \n        // transfer deposit back to renter\n        address payable recipient = address(uint160(renteradd));\n        uint256 dep = carList[rentList[rentId].carId].deposit;\n        recipient.transfer(dep);\n\n        // update car owner completedRentCount also\n        address owneradd = rentList[rentId].carOwner;\n        carOwnerInfo[owneradd].completedRentCount ++;\n\n        emit CarReturned(rentList[rentId].carId);\n    } \n\n    \n/***************************** CAR RENTER ********************************/\n//car renter -> guys \n    function register_car_renter() public {\n        require(singPassVerify(msg.sender));\n        require(renterList[msg.sender].verified == false, \"car renter has already been registered\");\n        renterList[msg.sender].verified = true;\n        // uint256[] memory rentalRequests;\n        // renterList[renter_address] = renter(\n        // renter memory newRenter = renter(\n        //     true,\n        //     0,\n        //     0,\n        //     0,\n        //     0,\n        //     0,\n        //     0,\n        //     rentalRequests\n        // );\n        // renterList[renter_address] = newRenter;\n        emit RenterRegistered(msg.sender);\n    }\n\n    // struct renter {\n    //     address renter_address;\n    //     uint256 completedRentCount;\n    //     uint256 totalRentCount; \n    //     uint256 creditScore;\n    //     uint8 rating;\n    //     uint256 ratingCount;\n    //     uint256 currentCar; //Car ID if renting, 0 if not\n    //     uint256[] rentalRequests; //Rent IDs\n    // }\n    \n    // for the renter to quickly make rent request using LISTING PRICE\n    function submit_rental_request_without_offer(uint256 carId, uint256 startDate,uint256 endDate) public registeredCarRenterOnly(msg.sender) returns (uint256) {\n        return submit_rental_request_with_offer(carId, startDate, endDate, carList[carId].hourlyRentalRate);\n    }\n\n\n    // if renter wants to offer a different price from listing\n    function submit_rental_request_with_offer(uint256 carId, uint256 startDate,uint256 endDate, uint256 offeredRate) public registeredCarRenterOnly(msg.sender) carInStatus(carId, CarStatus.Available) returns (uint256) {\n        /**\n        car renters can submit multiple rental requests\n\n        rental request must have a way of expiring -> should include the start and end date of\n        car rental, after rental offer accepted, only other requests with overlapping dates should expire\n\n        this logic can be handled in decentralrent smart contract, rental requests can be modelled as a struct\n        */\n        //require(car to be listed)\n\n        // renter memory currentRenter = renterList[msg.sender]; \n\n        // make a new list of requests to append our new rentId in\n        //uint256[] memory oldRequests = currentRenter.rentalRequests;\n        //uint256 newRequestSize = oldRequests.length + 1;\n        //uint256[] memory newRequests = new uint256[](newRequestSize);\n        //for(uint i = 0; i < oldRequests.length; i++) {\n        //    newRequests[i] = oldRequests[i];   \n        //}\n\n\n\n        // create a new rent ID to put into currentRenter rentalrequests\n        // rentList[newrentId] = currentRenter;\n        // newRequests[prevLength] = newrentId;\n        // currentRenter.rentalRequests = newRequests;\n        \n        uint256 newrentId = ++rentIdCount;\n        // currentRenter.rentalRequests.push(newrentId);\n\n        renterList[msg.sender].rentalRequests.push(newrentId);\n        carOwnerInfo[carList[carId].owner].rentalRequests.push(newrentId);\n        carList[carId].requestedrentIdList.push(newrentId);\n        \n        // creating our new rent struct and put into rentList\n        rent memory newRentInstance = rent(\n            carId,\n            msg.sender,\n            carList[carId].owner,\n            RentalStatus.Pending, // (pending, approved, rejected) \n            startDate,\n            endDate,\n            offeredRate,\n            carList[carId].deposit\n        );\n        rentList[newrentId] = newRentInstance;\n\n        \n        emit RentalRequestedSubmitted(msg.sender,newrentId);\n        emit Notify_owner(carList[carId].owner);\n        \n        return newrentId;\n    }\n    \n    function recall_rental_request(uint256 rentId) public registeredCarRenterOnly(msg.sender) requesterOnly(msg.sender, rentId) rentalInStatus(rentId, RentalStatus.Pending){\n        //change rent request status\n        rentList[rentId].rentalStatus = RentalStatus.Cancelled;\n\n        // record cancel date\n        // those rental requests cancelled over 24h will be cleared from storage later\n        cancellation_dates[rentId] = block.timestamp;\n        carList[rentList[rentId].carId].cancelledRentIdList.push(rentId);\n\n        emit RentalRequestRecalled(rentId);\n        emit Notify_owner(rentList[rentId].carOwner);\n    }\n\n    function accept_rental_offer(uint256 rentId) public payable registeredCarRenterOnly(msg.sender) requesterOnly(msg.sender, rentId) rentalInStatus(rentId, RentalStatus.Approved){\n        rent memory rentInstance = rentList[rentId];\n\n        // WE TAKE RENTAL PRICE + DEPOSIT FROM RENTER NOW\n        // NEED FIND A WAY TO CALCULATE TOTAL HOURS ELAPSED\n        // uint256 hoursElapsed = 3; //hardcoded first\n        uint256 hoursElapsed = (rentInstance.endDate - rentInstance.startDate) / (60 * 60); \n        uint256 ethToPay = rentInstance.hourlyRentalRate * hoursElapsed + rentInstance.deposit;\n        require(msg.value >= ethToPay, \"Please transfer enough Eth to pay for rental\");\n\n        rentInstance.rentalStatus = RentalStatus.Ongoing;        \n\n        emit RentalOfferAccepted(rentId, rentInstance.carId);\n        emit Notify_owner(rentInstance.carOwner);\n\n        if (msg.value > ethToPay) {\n            // transfer back remaining Eth\n            // address payable recipient = payable(msg.sender);\n            address payable recipient = address(uint160(msg.sender));\n\n\n            recipient.transfer(msg.value - ethToPay);\n        }\n    }\n\n    function decline_rental_offer(uint256 rentId) public registeredCarRenterOnly(msg.sender) requesterOnly(msg.sender, rentId) rentalInStatus(rentId, RentalStatus.Approved){\n        // change the request status of the rent contract to be cancelled \n        rentList[rentId].rentalStatus = RentalStatus.Cancelled;\n\n        // record cancel date\n        // those rental requests cancelled over 24h will be cleared from storage later\n        cancellation_dates[rentId] = block.timestamp;\n        carList[rentList[rentId].carId].cancelledRentIdList.push(rentId);\n        \n        emit RentalOfferDeclined(rentId, rentList[rentId].carId);\n        emit Notify_owner(rentList[rentId].carOwner);\n    } \n\n    function update_rental_request(uint256 rentId, uint256 startDate,uint256 endDate, uint256 offeredRate) public carInStatus(rentList[rentId].carId, CarStatus.Available) rentalInStatus(rentId, RentalStatus.Pending) {\n        require(msg.sender == rentList[rentId].renter, \"You are not the owner of this rental request.\");\n        rentList[rentId].startDate = startDate;\n        rentList[rentId].endDate = endDate;\n        rentList[rentId].hourlyRentalRate = offeredRate;\n\n        emit RentRequestUpdated(rentId);\n    }\n    \n    function confirm_car_received(uint256 rentId) public payable rentalInStatus(rentId,RentalStatus.Approved) requesterOnly(msg.sender, rentId) carInStatus(rentList[rentId].carId, CarStatus.Available) {\n        renterList[msg.sender].currentCars.push(rentList[rentId].carId);\n        rentList[rentId].rentalStatus = RentalStatus.Ongoing;\n        carList[rentList[rentId].carId].carStatus = CarStatus.Received;\n\n        emit CarReceived(msg.sender, rentId);\n        \n        // TRANSFER THE RENTAL PRICE TO OWNER\n        rent memory rentInstance = rentList[rentId];\n        // address payable recipient = payable(rentInstance.carOwner);\n        address payable recipient = address(uint160(rentInstance.carOwner));\n        \n        uint256 commissionCharge = get_total_rent_price(rentId) * commissionPercent / 100;\n        uint256 ethToPay = get_total_rent_price(rentId) - commissionCharge;\n        recipient.transfer(ethToPay);\n    }\n    \n/***************************** COMMON FUNCTIONS ********************************/\n    function renter_leave_rating(uint256 rentId, uint256 carConditionRating, uint256 attitude, uint256 responseSpeed) public rentalInStatus(rentId, RentalStatus.Completed){\n        require(msg.sender == rentList[rentId].renter, \"You are not involved in this rental.\");\n        require(carConditionRating <= 5 && carConditionRating >=0, \"Rating has to be between 0 and 5!\");\n        require(attitude <= 5 && attitude >=0, \"Rating has to be between 0 and 5!\");\n        require(responseSpeed <= 5 && responseSpeed >=0, \"Rating has to be between 0 and 5!\");\n\n        // update the renter struct value \n    \n        address rater_address = rentList[rentId].carOwner;\n        uint256 rating_count = carOwnerInfo[rater_address].ratingCount;\n        carOwnerInfo[rater_address].carConditionRating = (carOwnerInfo[rater_address].carConditionRating * rating_count + carConditionRating)/(rating_count + 1);\n        carOwnerInfo[rater_address].attitude = (carOwnerInfo[rater_address].attitude * rating_count + attitude)/(rating_count + 1);\n        carOwnerInfo[rater_address].responseSpeed = (carOwnerInfo[rater_address].responseSpeed * rating_count + responseSpeed)/(rating_count + 1);\n        carOwnerInfo[rater_address].ratingCount++;\n        emit Notify_owner(rater_address);\n        emit CarOwnerNewRating(rentId);\n    } \n\n    function owner_leave_rating(uint256 rentId, uint256 attitude, uint256 responseSpeed) public rentalInStatus(rentId, RentalStatus.Completed) {\n        require(msg.sender == rentList[rentId].carOwner, \"You are not involved in this rental.\");\n        require(attitude <= 5 && attitude >=0, \"Rating has to be between 0 and 5!\");\n        require(responseSpeed <= 5 && responseSpeed >=0, \"Rating has to be between 0 and 5!\");\n\n        address rater_address = rentList[rentId].renter;\n        uint256 rating_count = renterList[rater_address].ratingCount;\n        renterList[rater_address].attitude = (renterList[rater_address].attitude * rating_count + attitude)/(rating_count + 1);\n        renterList[rater_address].responseSpeed = (renterList[rater_address].responseSpeed * rating_count + responseSpeed)/(rating_count + 1);\n        renterList[rater_address].ratingCount++;\n        emit Notify_renter(rater_address);\n        emit RenterNewRating(rentId);\n    }\n\n//support team \n\n    // common for both\n    function report_issue(uint256 rentId, string memory details, string memory contact, string memory proofImageUrl) public rentalInStatus(rentId, RentalStatus.Ongoing) {\n        //CHECK IF OWNER OR RENTER\n        rent memory currentRent = rentList[rentId];\n        address car_owner = currentRent.carOwner;\n        address car_renter = currentRent.renter;\n\n        require(msg.sender == car_owner || msg.sender == car_renter, \"Issue does not involve you!\");\n\n        issueList[issueIDCount] = issue(rentId, msg.sender, details, contact, proofImageUrl, IssueStatus.Created);\n        issueIDCount += 1;\n\n        if (msg.sender == car_owner) {\n            carOwnerInfo[car_owner].issueList.push(issueIDCount);\n        } else {\n            renterList[car_renter].issueList.push(issueIDCount);\n        }\n\n        emit IssueReported(msg.sender, rentId);\n        emit Notify_owner(currentRent.carOwner);\n        emit Notify_renter(currentRent.renter); \n    }\n\n    function support_team_transfer(uint256 issueId, uint256 amount, address payable recipient) public payable supportTeamOnly(msg.sender) issueInStatus(issueId, IssueStatus.Created) {\n        // issue status set to Solving to guard against re-entrancy attack \n        issue memory issueInstance = issueList[issueId];\n        issueInstance.issueStatus = IssueStatus.Solving;\n    \n        recipient.transfer(amount);\n    }\n\n    function resolve_issue(uint256 issueId, uint256 changeInCreditScore) public supportTeamOnly(msg.sender)  {\n        require(issueList[issueId].issueStatus == IssueStatus.Solving || issueList[issueId].issueStatus == IssueStatus.Created, \"The status of this issue is not allowed for this option.\");\n        issue memory issueInstance = issueList[issueId];\n        issueInstance.issueStatus = IssueStatus.Solved;\n\n        rent memory currentRent = rentList[issueInstance.rentId];\n        address car_owner = currentRent.carOwner;\n        address car_renter = currentRent.renter;\n        address reporter = issueInstance.reporter;\n\n        issue_resolved_dates[issueId] = block.timestamp;\n\n        if (reporter == car_owner) {\n            if (renterList[car_renter].creditScore - changeInCreditScore >= 0) {\n                renterList[car_renter].creditScore -= changeInCreditScore;\n            }\n        } else {\n            if (carOwnerInfo[car_owner].creditScore - changeInCreditScore >= 0) {\n                carOwnerInfo[car_owner].creditScore -= changeInCreditScore;\n            }\n        }\n\n        emit Notify_owner(currentRent.carOwner);\n        emit Notify_renter(currentRent.renter); \n        emit IssueResolved(issueId);\n    }\n\n    function reject_issue(uint256 issueId) public view {\n        require(issueList[issueId].issueStatus == IssueStatus.Solving || issueList[issueId].issueStatus == IssueStatus.Created, \"The status of this issue is not allowed for this option.\");\n        issue memory issueInstance = issueList[issueId];\n        issueInstance.issueStatus = IssueStatus.Rejected;\n    }\n\n    function reopen_within_7day(uint256 issueId) internal view returns (bool) {\n        //auto-depre for deletion of cancelled rental request\n        return block.timestamp < issue_resolved_dates[issueId] + 7 days;\n    }\n\n    function reopen_issue(uint256 issueId, string memory updatedDetails) public {\n        require(reopen_within_7day(issueId) == true, \"you can only reopen an issue within 7 days after it is resolved\");\n        // could be renter or owner?\n        uint256 rentId = issueList[issueId].rentId;\n        rent memory currentRent = rentList[rentId];\n        address car_owner = currentRent.carOwner;\n        address car_renter = currentRent.renter;\n\n        require(msg.sender == car_owner || msg.sender == car_renter, \"Issue does not involve you!\");\n\n        issueList[issueId].issueStatus = IssueStatus.Created;\n        issueList[issueId].details = updatedDetails;\n\n        // events\n        emit IssueReopened(issueId);\n        emit Notify_owner(currentRent.carOwner);\n        emit Notify_renter(currentRent.renter); \n    }\n\n// DecentralRent Functions \n    function update_platform_fee_and_commision_percentage(uint256 fee, uint256 commission_percentage) public decentralRentOwnerOnly(msg.sender) {\n        // only owner of decentralRent can call this function \n        platformFee = fee;\n        commissionPercent = commission_percentage;\n    }\n\n    function withdraw_profit(uint256 amount) public payable decentralRentOwnerOnly(msg.sender) {\n        // only owner of decentralRent can call this function \n        address payable recipient = address(uint160(_owner));\n        recipient.transfer(amount);\n    }\n\n    // getters for frontend\n    /*\n    function get_my_rental_requests() public view returns (rent[] memory) {\n        require(renterList[msg.sender].verified || carOwnerInfo[msg.sender].verified, \"You do not have an account yet.\");\n        rent[] memory myRentList;\n        if (renterList[msg.sender].verified) {\n            for (uint i=0; i<renterList[msg.sender].rentalRequests.length; i++) {\n                myRentList[i] = rentList[renterList[msg.sender].rentalRequests[i]];\n            }\n        } else if (carOwnerInfo[msg.sender].verified) {\n            for (uint i=0; i<carOwnerInfo[msg.sender].rentalRequests.length; i++) {\n                myRentList[i] = rentList[carOwnerInfo[msg.sender].rentalRequests[i]];\n            }\n        }\n        return myRentList;\n    }\n\n    function get_car_rental_requests(uint256 carId) public view verifiedOwnerOnly(msg.sender) returns (rent[] memory) {\n        // get my rental requests for a car\n        // for car owner use only\n        rent[] memory myRentList;\n        for (uint i=0; i<carList[carId].requestedrentIdList.length; i++) {\n            myRentList[i] = rentList[carList[carId].requestedrentIdList[i]];\n        }\n        return myRentList;\n    }\n\n    function get_a_rental_request_details(uint256 rentId) public view returns (rent memory) {\n        require(msg.sender == rentList[rentId].renter || msg.sender == rentList[rentId].carOwner, \"You are not involved in this rental.\");\n        \n        return rentList[rentId];\n    }\n\n    function get_current_cars(address person) public view returns (car[] memory) {\n        // get a renter's current cars\n        require(renterList[person].verified, \"This account is not a renter account.\");\n        car[] memory currCars;\n        for (uint i=0; i<renterList[person].currentCars.length; i++) {\n            currCars[i] = carList[renterList[person].currentCars[i]];\n        }\n        return currCars;\n    } */\n\n    // getters for smart contract\n    function get_current_time()public view returns (uint256) {\n        return block.timestamp;\n    }\n\n    function get_owner_car_condition_rating(address user_address) public view returns (uint256) {\n        return carOwnerInfo[user_address].carConditionRating;\n    }\n\n    function get_owner_attitude(address user_address) public view returns (uint256) {\n        return carOwnerInfo[user_address].attitude;\n    }\n\n    function get_owner_response_speed(address user_address) public view returns (uint256) {\n        return carOwnerInfo[user_address].responseSpeed;\n    }\n\n    function get_renter_attitude(address user_address) public view returns (uint256) {\n        return renterList[user_address].attitude;\n    }\n\n    function get_renter_response_speed(address user_address) public view returns (uint256) {\n        return renterList[user_address].responseSpeed;\n    }\n\n    function get_owner_credit_score(address user_address) public view returns (uint256) {\n        return carOwnerInfo[user_address].creditScore;\n    }\n\n    function get_renter_credit_score(address user_address) public view returns (uint256) {\n        return renterList[user_address].creditScore;\n    }\n\n    function get_owner_rating_count(address user_address) public view returns (uint256) {\n        return carOwnerInfo[user_address].ratingCount;\n    }\n\n    function get_renter_rating_count(address user_address) public view returns (uint256) {\n        return renterList[user_address].ratingCount;\n    }\n\n    function get_owner_completed_rent_count(address user_address) public view returns (uint256) {\n        return carOwnerInfo[user_address].completedRentCount;\n    }\n\n    function get_renter_completed_rent_count(address user_address) public view returns (uint256) {\n        return renterList[user_address].completedRentCount;\n    }\n\n    function get_car_count(address owner) public view returns(uint256) {\n        return carOwnerInfo[owner].carCount;\n    }\n\n    function get_cars_owned(address owner) public view returns(uint256[] memory) {\n        return carOwnerInfo[owner].carList;\n    }\n\n    function get_car_hourly_rental(uint256 carId) public view returns(uint256) {\n        return carList[carId].hourlyRentalRate;\n    }\n\n    function get_car_model(uint256 carId) public view returns(string memory) {\n        return carList[carId].carModel;\n    }\n\n    function get_car_deposit(uint256 carId) public view returns(uint256) {\n        return carList[carId].deposit;\n    }\n\n    function get_car_owner(uint256 carId) public view returns(address) {\n        return carList[carId].owner;\n    }\n\n    function get_car_available_start_date(uint256 carId) public view returns(uint256) {\n        return carList[carId].availableStartDate;\n    }\n\n    function get_car_available_end_date(uint256 carId) public view returns(uint256 ) {\n        return carList[carId].availableEndDate;\n    }\n\n    function get_car_requested_rent_IDs(uint256 carId) public view returns(uint256[] memory) {\n        return carList[carId].requestedrentIdList;\n    }\n\n    function get_car_collection_point(uint256 carId) public view returns(string memory) {\n        return carList[carId].collectionPoint;\n    }\n\n    function get_car_status(uint256 carId) public view returns(CarStatus) {\n        return carList[carId].carStatus;\n    }\n\n    function get_car_status_toString(uint256 carId) public view returns (string memory){\n        CarStatus temp = carList[carId].carStatus;\n        if (temp == CarStatus.Registered) return \"Registered\";\n        if (temp == CarStatus.Available) return \"Available\";\n        if (temp == CarStatus.Reserved) return \"Reserved\";\n        if (temp == CarStatus.Received) return \"Received\";\n        if (temp == CarStatus.Unavailable) return \"Unavailable\";\n        if (temp == CarStatus.Abnormal) return \"Abnormal\";\n    }\n\n    function get_rent_status_toString(uint256 rentId) public view returns (string memory){\n        RentalStatus temp = rentList[rentId].rentalStatus;\n        if (temp == RentalStatus.Pending) return \"Pending\";\n        if (temp == RentalStatus.Approved) return \"Approved\";\n        if (temp == RentalStatus.Rejected) return \"Rejected\";\n        if (temp == RentalStatus.Cancelled) return \"Cancelled\";\n        if (temp == RentalStatus.Ongoing) return \"Ongoing\";\n        if (temp == RentalStatus.Completed) return \"Completed\";\n    }\n\n    function get_rent_start_date(uint256 rentId) public view returns(uint256) {\n        return rentList[rentId].startDate;\n    }\n\n    function get_rent_end_date(uint256 rentId) public view returns(uint256) {\n        return rentList[rentId].endDate;\n    }\n\n    function get_total_rent_price(uint256 rentId) public view returns(uint256) {\n        rent memory rentInstance = rentList[rentId];\n        uint256 hoursElapsed = (rentInstance.endDate - rentInstance.startDate) / (60 * 60); \n        return rentInstance.hourlyRentalRate * hoursElapsed;\n    }\n\n    function get_rent_carId(uint256 rentId) public view returns(uint256) {\n        return rentList[rentId].carId;\n    }\n\n    function get_rent_renter(uint256 rentId) public view returns(address) {\n        return rentList[rentId].renter;\n    }\n\n    function get_rent_status(uint256 rentId) public view returns(RentalStatus) {\n        return rentList[rentId].rentalStatus;\n    }\n\n    function get_issue_details(uint256 issueId) public view returns(string memory) {\n        return issueList[issueId].details;\n    }\n\n    function get_issue_contact(uint256 issueId) public view returns(string memory) {\n        return issueList[issueId].contactNumber;\n    }\n\n    function get_issue_image_url(uint256 issueId) public view returns(string memory) {\n        return issueList[issueId].proofImageUrl;\n    }\n\n    function get_issue_reporter(uint256 issueId) public view returns(address) {\n        return issueList[issueId].reporter;\n    }\n\n    function owner_get_my_issues() public view verifiedOwnerOnly(msg.sender) returns(uint256[] memory) {\n        // only verified owner can call this function\n        return carOwnerInfo[msg.sender].issueList;\n    }\n\n    function renter_get_my_issues() public view verifiedRenterOnly(msg.sender) returns(uint256[] memory) {\n        // only verified renter can call this function\n        return renterList[msg.sender].issueList;\n    }\n\n    /*function view_unsolved_issue() public view supportTeamOnly(msg.sender) returns(issue[] memory) {\n        // only support team can call this function\n        issue[] memory unsolvedIssues;\n        for (uint i=0; i<issueIDCount; i++) {\n            if (issueList[i].issueStatus == IssueStatus.Created || issueList[i].issueStatus == IssueStatus.Solving) {\n                unsolvedIssues.push(issueList[i]);\n            }\n        }\n        return unsolvedIssues;\n    } */\n\n}",
  "sourcePath": "/Users/xinyi/Desktop/4302-Project/contracts/DecentralRent.sol",
  "compiler": {
    "name": "solc",
    "version": "0.5.16+commit.9c3226ce.Emscripten.clang"
  },
  "schemaVersion": "3.4.4",
  "updatedAt": "2022-04-11T16:33:13.425Z",
  "devdoc": {
    "methods": {}
  },
  "userdoc": {
    "methods": {
      "register_car_renter()": {
        "notice": "*************************** CAR RENTER *******************************"
      },
      "renter_leave_rating(uint256,uint256,uint256,uint256)": {
        "notice": "*************************** COMMON FUNCTIONS *******************************"
      }
    }
  }
}